:020000040800F2
:1000000000200020B9000008150B0008290B00088B
:1000100000000000000000000000000000000000E0
:10002000000000000000000000000000150B0008A8
:100030000000000000000000150B0008150B000870
:10004000150B0008150B0008150B0008150B000810
:10005000150B0008150B0008150B0008150B000800
:1000600000000000150B0008150B0008150B000818
:10007000150B0008150B0008000000003B010008EC
:1000800000000000150B0008000000000000000048
:10009000150B000800000000150B0008150B0008E8
:1000A000150B0008150B0008150B00084506000885
:1000B000150B0008150B000800F0A8FC00F06AFC06
:1000C000E1235B02180000F015FA62B6C04600F0AA
:1000D00009F9024B180000F07DFBFEE748270008F5
:1000E00080B500AF0A4B0B4A5A60094B00229A6058
:1000F000074B05221A60C046054B1A6880235B0235
:100100001340F9D0024B00221A60C046BD4680BDA4
:1001100010E000E0FF7C000080B582B000AF7860A6
:1001200001E0FFF7DDFF7B685A1E7A60002BF8D1F3
:10013000C046C046BD4602B080BD80B500AF80233A
:10014000DB051A698023DB0501218A431A61274BED
:100150001B685A1C254B1A60254B1B78DBB21A0012
:10016000224B1B689A4209DDA023DB055A69A023B4
:10017000DB05802109010A435A6107E0A023DB0562
:100180005A69A023DB051B490A405A611A4B1B78A8
:10019000DBB21A00154B1B689A4209DDA023DB0570
:1001A0005A69A023DB05802149010A435A6107E00F
:1001B000A023DB055A69A023DB0510490A405A61D8
:1001C0000A4B1A68FA23DB009A420BDD074B002228
:1001D0001A60A023DB055A69A023DB05C021490171
:1001E0000A435A61C046BD4680BDC0466400002037
:1001F00000000020FFF7FFFF01000020FFEFFFFFDE
:1002000080B500AF314BDA6A304B01210A43DA6224
:10021000A023DB051B682E4A1A40A023DB058021A2
:10022000C9030A431A60A023DB055A68A023DB0533
:1002300028490A405A60A023DB051B68264A1A4059
:10024000A023DB05802149040A431A60A023DB05B3
:100250005A68A023DB0521490A405A601B4B9A6B60
:100260001A4B01210A439A638023DB054022FF32A7
:10027000DA621B4B1A681A4B802109020A431A6082
:100280008023DB051A688023DB0510210A431A60EE
:100290008023DB051A688023DB0580210A431A606E
:1002A0008023DB05DA688023DB0501210A43DA605D
:1002B0008023DB051A688023DB0501210A431A60CD
:1002C00062B6C046C046BD4680BDC0460010024072
:1002D000FFFF3FFFFFF7FFFFFFFFFFFCFFEFFFFF09
:1002E00000E100E080B58AB000AFFFF789FFFA2394
:1002F0005B001800FFF710FF304B180001F092F977
:100300002F4B180001F08EF92E4B180001F08AF9DE
:100310002D4B180001F020F92C4B1B689B6818002E
:1003200000F0AAFF3B1D1F21180000F0E6FA284B41
:10033000180001F077F93B1D180000F039FE0300AA
:100340007B627B6A002B0DD07B6AFF2B01DDFF23D4
:100350007B627B6A3B2B01DC3C237B627B6ADAB2EB
:100360001C4B1A701C4B180001F0F6F8174B1B6859
:100370009B68180000F080FF3B1D1F21180000F053
:10038000BCFA134B180001F04DF93B1D180000F0AA
:100390000FFE03007B627B6A002BB9D07B6AFF2BC8
:1003A00001DDFF237B627B6A3B2B01DC3C237B620C
:1003B0007B6ADAB2094B1A70AAE7C04684260008A5
:1003C000C0260008F02600081C27000814000020A2
:1003D000302700080000002034270008010000201A
:1003E00090B585B000AF78603960184B1B68002B62
:1003F00002D101235B4224E00023FB600AE0FB689A
:100400005A1CFA603A68D418114B180000F0ADF984
:10041000030023707B68013B1A00FB68934205D2FE
:100420000B4B180000F0CCF9031EE8D1FB68002B41
:1004300006D03A68FB68D31800221A70FB6800E007
:1004400000231800BD4605B090BDC0460001002045
:100450006800002080B584B000AF78603960224B1E
:100460001B68002B02D101235B4238E07B683F2BE5
:100470000BDCC0461D4B180000F0A2F9030040221F
:10048000D21A7B689A42F5D302E002235B4226E04F
:100490000023FB600BE03A68FB68D3181A78134B13
:1004A0001100180000F030F9FB680133FB607B6835
:1004B000FA689A42EFD30E4B1B68082213400DD105
:1004C0000B4B1A680A4B08210A431A60074B1800A5
:1004D00000F04BF903001A00054B9A620023180044
:1004E000BD4604B080BDC04600010020B40000201D
:1004F0000038014080B584B000AF786072B6C04665
:10050000454B00229A64444B9A6C434B5A64424BCD
:100510005A6C414B1A64414B00229A643F4B9A6CCF
:100520003E4B5A643D4B5A6C3C4B1A643C4B012287
:100530001A603C4B00221A603B4BDA6A3A4B0121AD
:100540000A43DA62394BFB607968F86800F044FCD2
:100550000300FB60A023DB059A68A023DB05802154
:10056000C9020A439A60A023DB055A68A023DB0571
:100570002F490A405A60A023DB051B682D4A1A4008
:10058000A023DB05802109030A431A60A023DB05B1
:100590005A6AA023DB0540210A435A62A023DB05E7
:1005A0001B68254A1A40A023DB05802189030A43E2
:1005B0001A60A023DB055A6AA023DB058021C9004D
:1005C0000A435A62184B5A6B174B8021C9010A43E0
:1005D0005A631A4B1A68194B6C210A431A60174B5D
:1005E00000225A60154B00229A60144BFA68DA60B8
:1005F000124B1A68114B01210A431A60104B1A68FA
:100600000F4B802109050A431A6062B6C046C046F6
:10061000BD4604B080BDC04668000020B400002084
:100620000001002004010020001002400048E80101
:10063000FFFDFFFFFFFFF3FFFFFFCFFF003801408B
:1006400000E100E080B500AF084BDB698022134079
:1006500001D000F025F8054BDB692022134001D0C2
:1006600000F006F8C046BD4680BDC04600380140D7
:1006700080B500AF074B5B6ADAB2074B1100180078
:1006800000F042F8031E02D0044B01221A60C0465B
:10069000BD4680BD003801406800002004010020F4
:1006A00080B500AF164B180000F08AF8031E08D082
:1006B000134B180000F059F803001A00114B9A620E
:1006C0001BE0104B1A680F4B08218A431A600D4B30
:1006D000DB694022134005D00A4B1A6A094B4021BE
:1006E0000A431A62074BDB698022134005D0054B91
:1006F0009A69044B10210A439A61C046BD4680BDE9
:10070000B40000200038014080B582B000AF7860AE
:100710000A00FB1C1A707B681A6C7B685B6C9A423F
:1007200005D17B689B6C002B01D0012319E072B6C8
:10073000C0467B681B6C591C7A6811647A68F91C86
:100740000978D1547B689B6C5A1C7B689A647B68DF
:100750001B6C402B02D17B6800221A6462B6C04633
:1007600000231800BD4602B080BD80B584B000AF44
:1007700078607B689B6C002B01D100231CE072B673
:10078000C0467B685B6C591C7A6851640F22BA18AA
:100790007968CB5C13707B685B6C402B02D17B6803
:1007A00000225A647B689B6C5A1E7B689A6462B60E
:1007B000C0460F23FB181B781800BD4604B080BD4F
:1007C00080B582B000AF78607B689B6C1800BD4636
:1007D00002B080BD80B582B000AF78600B4B1B6863
:1007E000002B09D101235B420BE07B685A1C7A6025
:1007F00019000120FFF72EFE7B681B78002BF4D137
:1008000000231800BD4602B080BDC0460001002094
:1008100080B582B000AF0200FB1D1A70FB1D1900ED
:100820000120FFF717FEC046BD4602B080BD80B56F
:1008300000AF044B1800FFF798FF03001800BD46F7
:1008400080BDC04668000020B0B584B000AF7860BD
:1008500039601E4B1B68002B02D101235B4231E043
:100860000023FB600B23FB1800221A7017E0C04620
:10087000174B1800FFF7A4FF031EF9D00B257C19B6
:10088000134B1800FFF771FF03002370FB685A1C1D
:10089000FA601A007B689B187A1912781A703B6804
:1008A000013BFA689A4204DA0B23FB181B780D2BE4
:1008B000DDD1FB68002B04DDFB687A68D3180022C9
:1008C0001A70FB681800BD4604B0B0BD00010020DE
:1008D0006800002090B583B000AFFC1DFFF7A7FFB4
:1008E00003002370FB1D1B781800FFF791FFFB1D11
:1008F0001B781800BD4603B090BDB0B584B000AF02
:1009000078603960214B1B68002B02D101235B42C8
:1009100037E00023FB600B23FB1800221A701DE058
:10092000C0461B4B1800FFF74BFF031EF9D00B25E9
:100930007C19174B1800FFF718FF030023702C00D9
:100940003B191B781800FFF763FFFB685A1CFA601D
:100950001A007B689B183A1912781A703B68013BA1
:10096000FA689A4204DA0B23FB181B780D2BD7D1B7
:10097000FB68002B04DDFB687A68D31800221A702C
:10098000FB681800BD4604B0B0BDC04600010020A1
:100990006800002080B582B000AF164B7B60164B1C
:1009A0003B6007E07A68131D7B603B68191D396066
:1009B00012681A603A68114B9A42F3D304E03B681C
:1009C0001A1D3A6000221A603A680D4B9A42F6D31B
:1009D0000C4B3B6004E03B681A1D3A601B6898476B
:1009E0003A68094B9A42F6D3C046C046BD4602B0AB
:1009F00080BDC046F82800080000002064000020E8
:100A000064020020F8280008F828000880B500AF2C
:100A10003B4B1A683A4B01210A431A60C046384BD7
:100A20001B6804221340FAD0354B0122DA60C0461D
:100A3000334BDB680C221340042BF9D1314B1A687D
:100A4000304B02210A431A602E4B1A682D4B0121AC
:100A50000A431A602A4B9A6B294B802149050A43A5
:100A60009A63294B802212011A60C046264B5B68AC
:100A700010221340FAD1224BDA68214B23490A4055
:100A8000DA601F4BDA681E4B8821C9030A43DA601B
:100A90001B4A1B4BD268DA60194A194BD268DA60DC
:100AA000174A174BD268DA60154B1A68144B18496D
:100AB0000A401A60124B1A68114B802149040A43FC
:100AC0001A60C0460E4B1A6880239B041340F9D06D
:100AD0000B4BDA680A4B03218A43DA60084BDA6869
:100AE000074B03210A43DA60C046054BDB680C2242
:100AF00013400C2BF9D1C046C046BD4680BDC04650
:100B0000001002400020024000700040FFFF02FF82
:100B1000FFFFFFFE80B500AF024B1800FFF75AFE43
:100B2000FEE7C0467027000880B500AF024B1800F2
:100B3000FFF750FEFEE7C046A027000880B582B050
:100B400000AF7860FEE780B582B000AF7860012327
:100B50005B421800BD4602B080BD80B584B000AFD6
:100B6000F860B9607A60044B0C221A6001235B4282
:100B70001800BD4604B080BD1401002080B500AF50
:100B8000034B0B221A6001235B421800BD4680BD57
:100B90001401002080B582B000AF786039603B68F6
:100BA000802292015A6000231800BD4602B080BD29
:100BB00080B500AF01231800BD4680BD80B582B06E
:100BC00000AF78603960044B16221A6001235B4243
:100BD0001800BD4602B080BD1401002080B582B06F
:100BE00000AF78603960044B1F221A6001235B421A
:100BF0001800BD4602B080BD1401002080B584B04D
:100C000000AFF860B9607A6000231800BD4604B0F8
:100C100080BD80B582B000AF786039603B688022CB
:100C200092015A6000231800BD4602B080BD80B515
:100C300082B000AF786001235B421800BD4602B06D
:100C400080BD80B582B000AF7860044B02221A608C
:100C500001235B421800BD4602B080BD1401002094
:100C600080B582B000AF7860044B0A221A6001237D
:100C70005B421800BD4602B080BDC0461401002092
:100C800080B582B000AF78607B68022B01D8012369
:100C900003E0044B09221A6000231800BD4602B08D
:100CA00080BDC0461401002080B586B000AF7860DA
:100CB000124B7B61124B3B61124B1B68002B02D124
:100CC000104B7A691A600F4B1B68FB600D4B1A685A
:100CD0007B68D3183A699A4205D20B4B0C221A60F2
:100CE00001235B4206E0074B1A687B68D218054B6C
:100CF0001A60FB681800BD4606B080BD6402002083
:100D000000100020100100201401002080B588B0E0
:100D100000AFF860B9607A600023BB61FB68002B0C
:100D200022D10023FB611AE0FFF781FD03001A00C6
:100D300017217B181A70BB685A1CBA607A1812788F
:100D4000D2B21A70BB690133BB617B181B78DBB26E
:100D50000A2B01D1BB690EE0FB690133FB61FA6923
:100D60007B689A42E0DB05E0054B09221A6001230B
:100D70005B4200E0BB691800BD4608B080BDC046BC
:100D80001401002080B586B000AFF860B9607A60C9
:100D9000FB68013B012B11D800237B6109E0BB6894
:100DA0005A1CBA601B781800FFF732FD7B690133CB
:100DB0007B617A697B689A42F1DB05E0054B092289
:100DC0001A6001235B4200E07B681800BD4606B054
:100DD00080BDC0461401002003460B437FD400228F
:100DE00043088B4274D303098B425FD3030A8B42BF
:100DF00044D3030B8B4228D3030C8B420DD3FF2229
:100E0000090212BA030C8B4202D31212090265D0F6
:100E1000030B8B4219D300E0090AC30B8B4201D3A9
:100E2000CB03C01A5241830B8B4201D38B03C01AF0
:100E30005241430B8B4201D34B03C01A5241030B67
:100E40008B4201D30B03C01A5241C30A8B4201D318
:100E5000CB02C01A5241830A8B4201D38B02C01AC3
:100E60005241430A8B4201D34B02C01A5241030A3A
:100E70008B4201D30B02C01A5241CDD2C3098B421F
:100E800001D3CB01C01A524183098B4201D38B019C
:100E9000C01A524143098B4201D34B01C01A52413F
:100EA00003098B4201D30B01C01A5241C3088B4284
:100EB00001D3CB00C01A524183088B4201D38B006F
:100EC000C01A524143088B4201D34B00C01A524111
:100ED000411A00D201465241104670475DE0CA0FE8
:100EE00000D04942031000D34042534000229C46A8
:100EF00003098B422DD3030A8B4212D3FC228901B2
:100F000012BA030A8B420CD3890192118B4208D387
:100F1000890192118B4204D389013AD0921100E0E9
:100F20008909C3098B4201D3CB01C01A52418309FD
:100F30008B4201D38B01C01A524143098B4201D32A
:100F40004B01C01A524103098B4201D30B01C01A55
:100F50005241C3088B4201D3CB00C01A52418308CF
:100F60008B4201D38B00C01A5241D9D243088B4225
:100F700001D34B00C01A5241411A00D201466346C8
:100F800052415B10104601D34042002B00D549422C
:100F9000704763465B1000D3404201B5002000F06B
:100FA00005F802BD0029F8D016E770477047C04623
:100FB00010B50A22002100F0A1F810BD10B50A23D7
:100FC000002200F08BF810BDF0B585B017001E00B0
:100FD00003900191242B23D80C00012B20D03D4BF2
:100FE00008229C46230061461D780134485D0100BB
:100FF00011401042F6D12D2D19D125789C1C0123CA
:1010000000931022330093431DD1302D15D12021A0
:1010100023788B43582B10D165780234102612E0C8
:1010200000F058FC16230360002005B0F0BD0091CD
:101030002B2DE6D125789C1CE3E7002EEED10A3655
:10104000302D00D1023E244A009B94466344310077
:101050001800029301F012FB0022844610002B00BE
:10106000303B092B11D81D00AE421DDD531C09D0A9
:1010700001225242844505D301D1A94211DB01224C
:101080007043281825780134E9E72B00413B192BE0
:1010900001D8373DE8E72B00613B192B04D8573DB9
:1010A000E2E701225242EDE7531C08D12223039AC2
:1010B00002981360002FB8D0631E019307E0009BD5
:1010C000002B00D04042002FAFD0002AF4D1019B6A
:1010D0003B60AAE7C5270008FFFFFF7F10B5FFF7B9
:1010E00073FF10BD10B5044C13000A000100206806
:1010F000FFF76AFF10BDC0461400002010B5044C75
:1011000013000A0001002068FFF75EFF10BDC04613
:1011100014000020F7B50C228B5E05000C001A07A6
:1011200056D44A68002A02DC0A6C002A4EDDE76ABF
:10113000002F4BD0002280202E682A601A00400128
:10114000216A0240034233D0626DA3895B0706D552
:101150006368D21A636B002B01D0236CD21A002370
:101160002800E76A216AB847A289431C06D129688A
:101170001D2946D8294BCB40DB0742D500236360AD
:1011800023692360D20405D5431C02D12B68002BB0
:1011900000D16065616B2E60002917D023004433B5
:1011A000994202D0280000F0A7FB002363630DE002
:1011B00001232800B8470200431CC6D12B68002B2E
:1011C000C3D01D2B01D0162B1AD12E6000201EE09B
:1011D0000E69002EFAD00F680E60BA1B0192002231
:1011E0009B0700D14A69A260019B002BEEDDA36A38
:1011F00032001F002800019B216AB847002807DC45
:10120000A2894023012013431BB2A3814042FEBDAB
:10121000019B36181B1A0193E6E7C04601004020E7
:101220000B6970B505000C00002B02D100252800C9
:1012300070BD002804D0036A002B01D100F030F902
:101240000C22A35E002BF1D0626ED20704D49B0562
:1012500002D4A06D00F049FB28002100FFF75AFFDF
:10126000636E0500DB07E2D4A3899B05DFD4A06D84
:1012700000F041FBDBE70000010010B5002805D1BC
:10128000054A0649064800F03FF910BD054B1868AD
:10129000FFF7C6FFF9E7C04608000020211200084A
:1012A0001800002014000020002310B50400036083
:1012B0004360836081814366C281036143618361CE
:1012C000190008225C3000F0AFFA0B4B2462636215
:1012D0000A4BA3620A4BE3620A4B23630A4B9C420C
:1012E00005D00A4B9C4202D0094B9C4203D12000FE
:1012F000583000F0F6FA10BD3916000865160008DF
:101300009D160008C9160008180100208001002061
:10131000E801002010B5034A0349044800F0F4F83E
:1013200010BDC0460800002021120008180000204F
:1013300041680B4B10B50400994201D0FFF770FFD4
:10134000A168084B994202D02000FFF769FFE168CD
:10135000054B994202D02000FFF762FF10BDC04646
:101360001801002080010020E80100204B6E10B51C
:10137000DB0705D48B899B0502D4886D00F0B5FA94
:10138000002010BD4B6E10B5DB0705D48B899B0583
:1013900002D4886D00F0AFFA002010BD10B5094BE3
:1013A000094A04211A6009480022FFF77DFF012243
:1013B00009210748FFF778FF022212210548FFF7AD
:1013C00073FF10BD50020020151300081801002003
:1013D00080010020E801002010B5024800F085FAE5
:1013E00010BDC0465B02002010B5024800F083FA31
:1013F00010BDC0465B020020F8B50700FFF7ECFF08
:10140000244B1B68002B01D1FFF7C8FF224EB468A4
:101410007368013B0FD53568002D38D1D6213800CF
:10142000490000F0D5FA041E26D13060FFF7DCFF3A
:101430000C233B601CE00C22A55E002D1AD120007D
:10144000164B5830E360656600F04BFAFFF7CCFFAF
:101450002000082229002560A5606560256165617E
:10146000A5615C3000F0E0F96563A563A564E564FF
:101470002000F8BD6834CCE70423D0220560436027
:101480000C302900A060520000F0CEF934603668BC
:10149000BDE7C04650020020080000200100FFFF09
:1014A00010B50400FFF798FF236A002B02D0FFF766
:1014B0009BFF10BD044B2362044B1B68002BF6D12D
:1014C000FFF76CFFF3E7C04631130008500200201D
:1014D00010B5FFF781FF0020024A034900F014F81D
:1014E00010BDC046080000206D13000810B5044A66
:1014F0000449002000F008F8FFF776FF10BDC04651
:101500000800002085130008F7B51400002600909D
:101510000191A5686768013F04D52468002CF8D1C3
:101520003000FEBDAB89012B08D90E22AB5E013322
:1015300004D029000098019B984706436835EAE7E4
:101540000EB403B503AB04CB8168019300F008FB34
:1015500002B008BC03B018470FB407B5054904AB87
:10156000086804CB8168019300F0FAFA03B008BC64
:1015700004B0184714000020036A70B505000E007F
:101580008468002B01D1FFF78BFF636EDB0705D466
:10159000A3899B0502D4A06D00F0A7F9A3891B07BE
:1015A00002D52369002B1FD12100280000F0DEF8AE
:1015B000002819D001256D42636EDB0705D4A3898D
:1015C0009B0502D4A06D00F096F9280070BD01368D
:1015D000A360002B04DAA2699A4216DC0A2914D00F
:1015E00023685A1C22601970A3683178013B0029D6
:1015F000EDD1A360002B0FDA220028000A3100F0A1
:1016000069F80130D6D00A25D6E72200280000F07C
:1016100061F80130E8D1CDE723685A1C22600A2224
:101620001A70F0E710B5034B01001868FFF7A4FF2C
:1016300010BDC0461400002070B50C000E25495F97
:1016400000F020F9002803DB636D1B18636570BD93
:10165000A389024A1340A381F9E7C046FFEFFFFFC9
:1016600000207047F8B51F008B8905000C0016009C
:10167000DB0505D50E23C95E0022022300F0EEF83B
:10168000A389054A28001340A38132000E23E15E9E
:101690003B0000F00BF9F8BDFFEFFFFF70B50C0049
:1016A0000E25495F00F0DAF8A389421C03D1054AF0
:1016B0001340A38170BD802252011343A381606552
:1016C000F8E7C046FFEFFFFF10B50E23C95E00F03C
:1016D000B3F810BDF8B506000D001400002804D0C2
:1016E000036A002B01D1FFF7DBFEA369A360A38986
:1016F0001B0702D52369002B09D12100300000F01F
:1017000035F8002803D001256D422800F8BD236973
:101710002068EFB2C01A6369EDB2834205DC210094
:101720003000FFF77DFD0028EDD1A3680130013BBB
:10173000A36023685A1C22601F706369834204D02F
:10174000A389DB07E1D50A2DDFD121003000FFF7A7
:1017500067FD0028D9D0D6E710B5034B0A00010079
:101760001868FFF7B7FF10BD140000202D4B70B5AF
:10177000050018680C00002804D0036A002B01D172
:10178000FFF78EFE0C22A35E1A0723D4DA0607D4D5
:1017900009222A60402201201343A38140423AE0FB
:1017A0005B0713D5616B002908D0230044339942AD
:1017B00002D0280000F0A0F8002363632422A3894C
:1017C0009343A38100236360236923600823A289D4
:1017D0001343A3812369002B0BD1A0218022A3896D
:1017E000890092000B40934203D02100280000F0B2
:1017F000DFFD0C22A35E01211A000A400B420BD030
:101800000022A26062695242A261002022698242E3
:1018100001D11A06BED470BD990700D46269A260D6
:10182000F3E7C0461400002003008218934200D161
:10183000704719700133F9E7002370B5064D0400B5
:1018400008002B60FFF77FF9431C03D12B68002BA6
:1018500000D0236070BDC0461401002070B50400A4
:10186000080011001A000023054D2B60FFF7C6F990
:10187000431C03D12B68002B00D0236070BDC046F1
:101880001401002070B50400080011001A000023A4
:10189000054D2B60FFF73AFA431C03D12B68002B50
:1018A00000D0236070BDC0461401002070B5040054
:1018B000080011001A000023054D2B60FFF762FAA3
:1018C000431C03D12B68002B00D0236070BDC046A1
:1018D00014010020014B18687047C0461400002016
:1018E00070477047704770477047704701207047D6
:1018F000012070477047704770B505000C1E10D06E
:10190000043C2368002B00DAE418280000F0E0F81B
:101910001D4A1368002B05D163601460280000F095
:10192000DFF870BDA34208D9206821188B42F3D19B
:1019300019685B6809182160EEE71A005B68002BE4
:1019400001D0A342F9D911685018A0420BD12068E8
:101950000918501811608342E0D118685B6841187B
:1019600011605360DAE7A04202D90C232B60D5E75F
:10197000206821188B4203D119685B68091821601F
:1019800063605460CAE7C0466002002070B50F4E25
:101990000D0031680400002902D100F081FD3060A3
:1019A0002900200000F07CFD431C03D101256D427D
:1019B000280070BD0323C51C9D43A842F8D0291AF6
:1019C000200000F06DFD0130F2D1EFE75C02002055
:1019D000F7B50322CB1C9343083305001F000C2BE3
:1019E00034D20C27B94233D8280000F071F8374EB2
:1019F00033681C00002C2FD139002800FFF7C6FFE8
:101A00000400431C5FD134680094009B002B4AD132
:101A1000002C52D023682800E3180099019300F0AD
:101A20003FFD019B834248D123682800FF1A3900FB
:101A3000FFF7ACFF013040D02368DB192360336827
:101A40005A68002A33D1009B336019E0002BC9DAB1
:101A50000C232B600020FEBD2168C91B20D40B295C
:101A60000AD9E2192760A34204D132606368116089
:101A7000536005E05A60F9E76268A3420ED1326014
:101A8000280000F02DF8200007220B30231D904382
:101A9000C21A9842DFD01B1AA350DCE75A60EFE766
:101AA00023006468A6E7009C63680093ADE71A0012
:101AB0005B68A342FBD10023DAE70C2328002B60EC
:101AC00000F00EF8C6E70760DAE7C04660020020C3
:101AD00010B50248FFF709FF10BDC04658020020AC
:101AE00010B50248FFF707FF10BDC046580200209E
:101AF000936810B5013B9360002B04DA9469A3420C
:101B000007DB0A2905D01368581C106019700800FB
:101B100010BDFFF7DFFD0100F9E7F8B506000F0083
:101B20001400D518AC4201D1002007E021783A001A
:101B30003000FFF7DDFF0134431CF3D1F8BD002373
:101B400010B5140092689A4205D0220000F0ACFA59
:101B500000220300A26000221800626010BD000095
:101B6000F0B5A1B00F0015001E000390002804D0AE
:101B7000036A002B01D1FFF793FC7B6EDB0705D4D2
:101B8000BB899B0502D4B86DFFF7AFFEBB891B076D
:101B900002D53B69002B13D139000398FFF7E6FD0E
:101BA00000280DD07B6EDB0703D50120404221B019
:101BB000F0BDBB899B05F8D4B86DFFF79CFEF4E738
:101BC000002308AC6361203363761033A376079655
:101BD0002E003378002B01D0252B48D1731B0593A1
:101BE000AE420BD02A0039000398FFF796FF013070
:101BF00000D1AEE06369059A9B1863613378002BCE
:101C000000D1A6E0012200235242626004A95432AE
:101C10005218751C2360E360A3601370A365594BD1
:101C2000052218002978059300F04CFC6E1C002852
:101C30001FD12268D30604D5532304A95B182021A1
:101C40001970130704D5532304A95B182B211970AD
:101C50002B782A2B16D02E0000210A20E368327838
:101C6000751C303A092A50D9002911D117E00136E4
:101C7000AFE7059B2268C01A012383401343350058
:101C80002360CCE7079B191D1B680791002B01DB24
:101C90000B9304E05B42E360022313432360337839
:101CA0002E2B0CD173782A2B34D1079B02361A1DA8
:101CB0001B680792002B01DA01235B420993324D26
:101CC00003222800317800F0FDFB002806D04023D5
:101CD000401B83402268013613432360317806227B
:101CE0002A48751C217600F0EDFB002840D0284BD7
:101CF000002B22D10722079B073393430833079316
:101D00006369049A9B18636162E743432E000121D3
:101D10009B18A4E700230A2019000136636032787B
:101D2000751C303A092A03D9002BC8D00991C6E79F
:101D300041432E0001238918F1E707AA00922100F0
:101D40003A00144B039800E000BF0490049B013359
:101D5000D6D17B6EDB0705D4BB899B0502D4B86D59
:101D6000FFF7C9FDBB895B0600D51EE70D981EE78E
:101D700007AA009221003A00064B039800F088F869
:101D8000E3E7C046C5280008CB280008CF28000894
:101D9000000000001B1B000810B5044C13000A00D3
:101DA00001002068FFF7DCFE10BDC04614000020D3
:101DB000F7B5160001938A680B690C0000909342F6
:101DC00000DA13002200336043321278002A01D077
:101DD0000133336023689B0602D5336802333360D6
:101DE0002268062315001D401A4227D023004333E2
:101DF0001B785A1E93412268920630D42200019922
:101E00000098089D4332A847013025D00622236858
:101E100000251340042B05D13368E568ED1AEB4328
:101E2000DB171D40A3682269934201DD9B1AED1860
:101E30000026B54220D1002010E00135E368326869
:101E40009B1AAB42D2DD2200012301990098089F22
:101E50001932B8470130F0D101204042FEBD302098
:101E6000E1184331087021005A1C45310978A21845
:101E7000433202331170C1E7220001230199009817
:101E8000089F1A32B8470130E6D00136D1E700008A
:101E9000F0B58BB006920A00433207930590039287
:101EA0000A7E0C00109B782A09D8622A0BD8002AD7
:101EB00000D1BAE07A490491582A00D18EE0250079
:101EC00042352A7022E0100063381528F7D800F058
:101ED00045FB16001F00F6FFF6FFF6FFF6FF1F009A
:101EE000F6FFF6FFF6FFF6FF9F0036007E00F6FFD6
:101EF000F6FFB000F6FF3600F6FFF6FF8200250081
:101F00001A684235111D196013682B7001239EE079
:101F100018680968021D0D060BD506681A60002EA8
:101F200003DA2D23039A764213705D4B0A2704933C
:101F300018E006681A604906F1D536B2EFE708687E
:101F4000196840C9050602D4400600D5B6B219602A
:101F5000534B0A2704936F2A00D1023F230000222B
:101F600043331A706368A360002B06DB04212268E8
:101F7000039D8A43226033430CD0039D3000390017
:101F800000F07CFB049B013D5B5C2B703300060082
:101F90009F42F3D9082F09D12368DB0706D5626871
:101FA00023699A4202DC3023013D2B70039B5B1BAB
:101FB0002361079B210000930598069B09AAFFF760
:101FC000F7FE013048D1012040420BB0F0BD202285
:101FD00009680A4322607822324904912100453180
:101FE0000A701968226840C9100602D4500600D54C
:101FF000B6B21960D30702D5202313432360002E05
:1020000001D01027AAE72022236893432360F8E732
:102010001A680D68101D4969186013682E0601D5ED
:10202000196002E06D06FBD519800023039D236132
:10203000BFE71A68111D1960156800212800626841
:1020400000F040FA002801D0401B60606368236103
:102050000023039A1370ACE72A00236906990598B8
:10206000079DA8470130AED023689B0715D4099B74
:10207000E0689842A9DA1800A7E722000123069930
:102080000598079E1932B04701309CD00135E368AE
:10209000099A9B1AAB42F0DCE9E70025F7E7C04656
:1020A000D6280008E7280008F0B5936887B00C0030
:1020B00002900492002B02D1002007B0F0BD8B8962
:1020C0001B0756D50B69002B53D0049B1B6801934B
:1020D0000C22A35E02221E00164013426FD1012281
:1020E00001211A400B4200D1A2E0300037000396D4
:1020F000002F00D10AE100280AD13A000A210398F2
:1021000000F0E0F97E1C002802D0039B0130C61AC3
:102110000596BE4200D9059720682269A5686369C3
:10212000904200D8FBE0059AED18AA4200DCF6E0E8
:1021300003992A0000F07DF9236821005B190298B9
:102140002360FFF76DF800286DD10120761B05D1C3
:1021500021000298FFF764F8002864D1039B049AD9
:102160005B190393049B7F1B9B685B1B9360BFD130
:10217000A2E721000298FFF7F9FA0028A5D0012074
:1021800040429AE7019B1E685D6808330193A76A85
:10219000216A002DF6D06E4A2B00954200D913001B
:1021A00032000298B84700283DDD049B049A9B68E2
:1021B00036181B1A2D1A9360002BE8D17CE70026F5
:1021C0003500E4E7019B1B680393019B5D680833BE
:1021D00001930C22A35E2068A668002DF2D0802215
:1021E0009200134262D0AE4237D89022D2001342FE
:1021F00033D02169421A0320059262694243D70F06
:10220000BF18059A7F1001325219BA4200D917003F
:102210005B053CD539000298FFF7DAFB061E0AD1B0
:102220000C23029A13604023A2891343A381A6E7DB
:1022300015000392CDE7059A216900F04EF9A289B5
:10224000444B1A4080231343A381059B2661F61853
:1022500026602E006761FF1AA7602F00AE4200D9EA
:102260002E0032000399206800F0E3F8A3689B1B5E
:10227000A36023689B192360039B049ADB190393D3
:10228000049BED1B9B68DB1B9360A2D114E73A0013
:10229000029800F02BF9061ED7D121690298FFF7AA
:1022A0002BFB8022A3899343A381B9E7236983424F
:1022B00002D36769AF4216D9AE4200D92E00320070
:1022C000039900F0B6F8A36822689B1B92193700A7
:1022D000A3602260002BCFD121000298FEF7A0FF5F
:1022E0000028C9D09FE7802328001B069D4200D309
:1022F00019483900FEF770FD3B00A66A4343039A74
:10230000216A0298B047071EB6DC8CE7019B0020CB
:102310001B680393019B5F6808330193E8E6059A05
:10232000934208DCA56A039A216A0298A847051E11
:1023300000DD0AE777E7059A039900F07AF8059A35
:10234000A36815009B1AA36023689B182360FCE612
:1023500000FCFF7F7FFBFFFFFFFFFF7F70B50E00DC
:102360001D000E23C95E140096B000290CDAB28954
:102370008023110019401A4214D18023DB00002071
:102380002960236016B070BD6A4600F065F8002829
:10239000EDDBF02301991B021940044BC9184B4295
:1023A0005941EAE700214023E9E7C04600E0FFFF8A
:1023B000F0B502268B8905000C0085B0334207D0AA
:1023C00023004733236023610123636105B0F0BD1F
:1023D00003AB02AAFFF7C2FF029F01903900280059
:1023E000FFF7F6FA002808D10C22A35E9A05EDD477
:1023F000032293431E43A681E2E78023A289206043
:102400001343A381039B20616761002B0CD028003C
:102410000E23E15E00F032F8002805D00323A289E4
:102420009A43023B1343A381A389019A1343A381D7
:10243000CCE710B5884202D98B18984208D3002304
:102440009A4207D0CC5CC4540133F9E78B5C8354C7
:10245000013AFBD210BD0000002370B5064D040008
:10246000080011002B60FEF795FB431C03D12B687D
:10247000002B00D0236070BD14010020002370B534
:10248000064D040008002B60FEF7FAFB431C03D145
:102490002B68002B00D0236070BDC04614010020C3
:1024A000002370B5064D040008002B60FEF7FCFB0E
:1024B000431C03D12B68002B00D0236070BDC046A5
:1024C00014010020C9B28218904201D10020704747
:1024D00003788B42FBD00130F6E7002310B59A4217
:1024E00000D110BDCC5CC4540133F8E7F7B5060049
:1024F0000C001500002905D11100FFF769FA04004E
:102500002000FEBD002A03D1FFF7F6F92C00F7E703
:1025100000F01CF80700854202D84308AB42EFD315
:1025200029003000FFF754FA0190002801D1019CE6
:10253000E6E72A00BD4200D93A0021000198FFF7E2
:10254000CCFF21003000FFF7D7F9F0E70B1F1B6825
:10255000181F002B01DA0B58C018704703B47146DE
:10256000490840004900095E49008E4403BC704799
:10257000002243088B4274D303098B425FD3030AC2
:102580008B4244D3030B8B4228D3030C8B420DD3D5
:10259000FF22090212BA030C8B4202D31212090263
:1025A00065D0030B8B4219D300E0090AC30B8B42A1
:1025B00001D3CB03C01A5241830B8B4201D38B034F
:1025C000C01A5241430B8B4201D34B03C01A5241F4
:1025D000030B8B4201D30B03C01A5241C30A8B4237
:1025E00001D3CB02C01A5241830A8B4201D38B0222
:1025F000C01A5241430A8B4201D34B02C01A5241C6
:10260000030A8B4201D30B02C01A5241CDD2C30937
:102610008B4201D3CB01C01A524183098B4201D3B3
:102620008B01C01A524143098B4201D34B01C01A9E
:10263000524103098B4201D30B01C01A5241C30816
:102640008B4201D3CB00C01A524183088B4201D385
:102650008B00C01A524143088B4201D34B00C01A71
:102660005241411A00D20146524110467047FFE7DD
:1026700001B50020FEF79AFC02BDC0460029F7D044
:1026800076E77047536572766F207369676E616C89
:102690002067656E65726174696F696E2075736914
:1026A0006E67207468652053544D33324C30353199
:1026B000207573696E672054494D320D000000008B
:1026C000286F757470757473206172652050413184
:1026D0003120616E6420504131322C2070696E735C
:1026E00020323120616E64203232292E0D0000002C
:1026F0004279204A657375732043616C76696E6F09
:102700002D46726167612028632920323031382DCF
:10271000323032332E0D0A0D0000000050574D317B
:102720002028363020746F20323535293A200000B9
:102730000D00000050574D322028363020746F2095
:10274000323535293A2000000D0A52657475726ED3
:1027500065642066726F6D206D61696E28292E2078
:102760002053797374656D2073746F702E000000B0
:10277000496E7465727275707420776974686F75CC
:10278000742068616E646C65722028495352292E4A
:10279000202053797374656D2073746F702E000060
:1027A00048617264204661756C7420696E7465724C
:1027B000727570742E202053797374656D20737454
:1027C0006F702E000020202020202020202028288C
:1027D00028282820202020202020202020202020E1
:1027E0002020202020881010101010101010101021
:1027F0001010101010040404040404040404041051
:1028000010101010101041414141414101010101DE
:1028100001010101010101010101010101010101A8
:1028200010101010101042424242424202020202B4
:102830000202020202020202020202020202020278
:102840001010101020000000000000000000000028
:102850000000000000000000000000000000000078
:102860000000000000000000000000000000000068
:102870000000000000000000000000000000000058
:102880000000000000000000000000000000000048
:102890000000000000000000000000000000000038
:1028A0000000000000000000000000000000000028
:1028B0000000000000000000000000000000000018
:1028C0000000000000232D302B2000686C4C0065B8
:1028D000666745464700303132333435363738394C
:1028E000414243444546003031323334353637387F
:0828F000396162636465660052
:1028F800646400000C0100200000000003000000D8
:102908001801002018000020000000001801002015
:1029180080010020E8010020000000000000000005
:10292800000000000000000000000000000000009F
:10293800000000000000000000000000000000008F
:10294800000000000000000000000000000000007F
:04295800000000007B
:04000005080000B936
:00000001FF
