:020000040800F2
:1000000000200020B9000008B5190008C91900082F
:1000100000000000000000000000000000000000E0
:10002000000000000000000000000000B5190008FA
:100030000000000000000000B5190008B519000814
:10004000B5190008B5190008B5190008B519000858
:10005000B5190008B5190008B5190008B519000848
:1000600000000000B5190008B5190008B51900080E
:10007000B5190008B5190008000000003B01000890
:1000800000000000B519000800000000000000009A
:10009000B519000800000000B5190008B5190008DE
:1000A000B5190008B5190008B51900081D0F00089A
:1000B000CD140008B519000801F0F8FB01F0BAFBF7
:1000C000E1235B02180000F081FE62B6C04600F03A
:1000D000F3FB024B180000F0E9FFFEE7C84F0008F1
:1000E00080B500AF0A4B0B4A5A60094B00229A6058
:1000F000074B05221A60C046054B1A6880235B0235
:100100001340F9D0024B00221A60C046BD4680BDA4
:1001100010E000E0FF7C000080B582B000AF7860A6
:1001200001E0FFF7DDFF7B685A1E7A60002BF8D1F3
:10013000C046C046BD4602B080BD80B500AF80233A
:10014000DB051A698023DB0501218A431A61394BDB
:100150001B685A1C374B1A60364B1B68642B02DD38
:10016000344B00221A60344B1B78DBB21A00314B3F
:100170001B689A4208DDA023DB055A69A023DB0532
:1001800001210A435A6107E0A023DB055A69A02335
:10019000DB0501218A435A61284B1B78DBB21A0028
:1001A000244B1B689A4208DDA023DB055A69A02373
:1001B000DB0502210A435A6107E0A023DB055A69E7
:1001C000A023DB0502218A435A611D4B1B78DBB259
:1001D0001A00184B1B689A4208DDA023DB055A69F8
:1001E000A023DB0504210A435A6107E0A023DB05B5
:1001F0005A69A023DB0504218A435A61114B1B78FD
:10020000DBB21A000B4B1B689A4208DDA023DB050A
:100210005A69A023DB0508210A435A6107E0A0239D
:10022000DB055A69A023DB0508218A435A61C046D1
:10023000BD4680BD640000200000002001000020B9
:10024000020000200300002080B500AF8F4BDA6A67
:100250008E4B03210A43DA62A023DB051B680322CD
:1002600093431A00A023DB0501210A431A60A0234F
:10027000DB051B680C2293431A00A023DB05042135
:100280000A431A60A023DB051B68302293431A003F
:10029000A023DB0510210A431A60A023DB051B689D
:1002A000C02293431A00A023DB0540210A431A60B1
:1002B00000F07CFCA023DB051A68A023DB05744951
:1002C0000A401A60A023DB05DA68A023DB05802141
:1002D00049020A43DA60A023DB05DA68A023DB05C4
:1002E0006C490A40DA60A023DB051A68A023DB050D
:1002F00069490A401A60A023DB05DA68A023DB0500
:10030000802149050A43DA60A023DB05DA68A023CF
:10031000DB0562490A40DA60614B1B68C0229343E7
:100320001A005F4B40210A431A605D4B5A685C4BD0
:1003300008218A435A605A4B1B685A4A1A40584B44
:10034000802149000A431A60554B5A68544B1021CA
:100350008A435A60524B1B68534A1A40504B8021C3
:10036000C9000A431A604E4B5A684D4B20218A43FC
:100370005A604B4B1B684D4A1A40494B802149013A
:100380000A431A60464B5A68454B40218A435A60DB
:10039000434B1B68464A1A40414B8021C9010A431E
:1003A0001A603F4B5A683E4B80218A435A60374B54
:1003B0009A6B364B01210A439A638023DB05402266
:1003C000FF32DA623B4B1A683A4B802109020A433A
:1003D0001A608023DB051A688023DB0510210A439D
:1003E0001A608023DB051A688023DB0580210A431D
:1003F0001A608023DB05DA688023DB0501210A43CC
:10040000DA608023DB051A688023DB0501210A43BB
:100410001A60A023DB05012252429A601B4BDA6A64
:100420001A4B01210A43DA62A023DB051B68224A2A
:100430001A40A023DB058021C9040A431A60A023C7
:10044000DB055A69A023DB05802189010A435A6133
:10045000A023DB051A68A023DB0518490A401A60AF
:10046000A023DB05DA68A023DB058021C9030A434A
:10047000DA60A023DB05DA68A023DB0510490A4017
:10048000DA6062B6C046C046BD4680BD001002407C
:10049000FFFFFCFFFFFFFDFFFFFFFFCFFFFFFFDFC1
:1004A00000040050FFFCFFFFFFF3FFFFFFCFFFFF43
:1004B000FF3FFFFF00E100E0FFFFFFF3FFFF3FFF13
:1004C000FFFF7FFF90B58DB000AF78607A68184B62
:1004D0001100180003F0FEF9A023DB055A69A023E0
:1004E000DB0514490A405A610A20FFF715FE7B68B4
:1004F000180001F0B3F808243B192721180001F077
:10050000E7F8A023DB055A69A023DB0580218901D8
:100510000A435A610A20FFF7FFFD3A19064B110002
:10052000180003F0D7F9C046BD460DB090BDC046D7
:10053000604D0008FFDFFFFF6C4D000880B584B000
:1005400000AF78603A4B3B4A5A60394B394A9A605F
:10055000374B05221A6007E0354B1A6880235B028F
:10056000134001D000235EE0A023DB051A6980233D
:100570005B001340F0D12E4B00221A602C4B2D4A09
:100580005A602B4B2B4A9A60294B05221A6007E0D0
:10059000274B1A6880235B02134001D0002342E0FE
:1005A000A023DB051A6980235B001340F0D0204BA9
:1005B00000221A601E4B1F4A5A601D4B1D4A9A604A
:1005C0001B4B05221A600023FB6021E0184B1A68C0
:1005D00080235B02134001D0002324E0A023DB052D
:1005E0001A6980235B001340F0D107E0104B1A68B2
:1005F00080235B02134001D0002314E0A023DB051D
:100600001A6980235B001340F0D0FB680133FB6064
:10061000FA687B689A42E1DB054B00221A60044BC2
:100620009B68044AD31A1800BD4604B080BDC0467A
:1006300010E000E0FFFFFF0090B595B000AFF8605C
:10064000B9607A603823FB18224A13CA13C31168B1
:10065000196012791A711423FB1820220021995471
:100660001F23FB641BE0FB68B968180001F0EAFB7C
:100670000B001900FB6C5A1EFA643822BA18515C40
:100680001422BA18D154B968F86801F0F5FA0300D9
:10069000FB607B68002B02D07B68013B7B60FB68C2
:1006A000DA17D31ADB0FDAB27B68D917CB1ADB0F54
:1006B000DBB21343DBB2002BD5D1FB6C0133142228
:1006C000BA18D318180000F0F1FCC046BD4615B0AA
:1006D00090BDC0467C4D000880B582B000AF786008
:1006E0007B68002B18DD1A4B00221A70786802F024
:1006F00045F8031C181C02F01BFF0022154B02F0EA
:1007000087F802000B001000190001F0A1FB0300A4
:10071000DAB2114B1A7017E0786802F02FF8031C58
:10072000181C02F005FF00220A4B02F071F80200CB
:100730000B001000190001F08BFB0300DAB2044B30
:100740001A70054B00221A70C046BD4602B080BD2B
:1007500000000020000013400100002080B582B09E
:1007600000AF78607B68002B0BDD0D4B00221A7008
:100770007B68DBB21A1C9200D318DAB2094B1A70EC
:100780000AE07B68DBB21A1C9200D318DAB2044B81
:100790001A70044B00221A70C046BD4602B080BDDC
:1007A000020000200300002080B584B000AF0200EA
:1007B000FB1D1A700023FB600723FB6014E0FB1D88
:1007C0001A78FB681A411300DAB20B203B1801219A
:1007D0000A401A703B181B7801220A211800FFF703
:1007E0002BFFFB68013BFB60FB68002BE7DAC04690
:1007F000C046BD4604B080BD80B584B000AF0200E5
:10080000FB1D1A70FB1D1B782022134002D0012310
:100810005B4200E00123FB60FB1D1B781F2213409D
:10082000BB60FB68BA6853431800BD4604B080BD86
:1008300090B585B000AFF860B9607A603B601D4B41
:1008400018687B681B689B00BA68D3181B68191C62
:1008500001F0CEFD031C1A1C164B1A60154B1B68C9
:10086000F968181C01F012FB031C1A1C114B1A60CA
:100870007B681B689B00BA68D318FA681A607B68AB
:100880001B6801333968180001F0DCFA0B001A000C
:100890007B681A60074B1C68386801F06FFF031C07
:1008A000191C201C01F092FC031C181CBD4605B04D
:1008B00090BDC0467C000020B0B5BAB000AFE724C0
:1008C0003B1900221A700023D022BA1813603B0093
:1008D0001800C8231A00002103F00CF80023E022BE
:1008E000BA1813600023DC22BA1813600023D82240
:1008F000BA1813600023D422BA181360FFF7A4FCBF
:1009000096239B01180000F03BFDFA235B001800C2
:10091000FFF702FC914B1800FFF7D4FD904B180035
:10092000FFF7D0FD8F4B1800FFF7CCFD8E4B180062
:10093000FFF7C8FD8D4B1800FFF7C4FD8C4B180066
:10094000FFF7C0FD8B4B1800FFF7BCFD8A4B18006A
:10095000FFF7B8FDFA235B001800FFF7DDFB874BBC
:10096000180000F0A3FB864B180000F09FFB854B9E
:10097000180000F09BFB844B180000F097FB834BA2
:10098000180000F093FB824B180000F08FFB814BA6
:10099000180000F08BFB3B1900221A707E4B5A693D
:1009A0007D4B08218A435A617B4B5A697A4B10214F
:1009B0008A435A61784B5A69774B20218A435A619E
:1009C000754B5A69744B40218A435A61724B5A697C
:1009D000714B80218A435A6100F0C0FE031E16DD70
:1009E0006E4B1321180000F073FE6C4B1B7818003F
:1009F000FFF702FF0300E022BA181360674B5B7831
:100A00001800FFF7F9FE0300DC22BA1813603C203F
:100A1000FFF794FD0300CC22B9180B60BB181B68CC
:100A2000002B0DDDBB1819685D4801F025F90300A6
:100A3000180001F0A3FE031CC822BA18136003E0DB
:100A4000584B180000F032FBE722BB181B78BA188D
:100A5000591C1170042B27D89A00534BD3181B68CC
:100A60009F464D4B5A694C4B08210A435A613EE060
:100A7000494B5A69484B10210A435A6137E0464BAB
:100A80005A69454B20210A435A6130E0424B5A696A
:100A9000414B40210A435A6129E03F4B5A693E4B82
:100AA00080210A435A6122E0E723FB1800221A70D2
:100AB000394B5A69384B08218A435A61364B5A6977
:100AC000354B10218A435A61334B5A69324B2021EE
:100AD0008A435A61304B5A692F4B40218A435A61ED
:100AE0002D4B5A692C4B80218A435A61C046D8232A
:100AF000FB181A68DC217B181B689A4207D00A0091
:100B0000BB181B680A2B02D10023BA181360D42328
:100B1000FB181A68E0217B181B689A4207D00A006C
:100B2000BB181B680A2B02D10023BA181360DC24FF
:100B30003B191B681800FFF711FEE0257B191B68A5
:100B40001800FFF7C9FD3B191B68D822BA181360BB
:100B50007B191B68D422BA1813603DE7904D00083A
:100B6000A04D0008AC4D0008B84D0008C44D000869
:100B7000D04D0008DC4D0008E84D0008F44D000899
:100B8000004E0008244E0008784E0008AC4E0008C5
:100B9000FC4E0008504F0008000400506800002080
:100BA00000E07072944F0008B44F000880B500AFA9
:100BB000244B5A6B234B802189000A435A63224BF2
:100BC0001A69214BC02109060A431A611E4B1A6893
:100BD0001D4B01210A431A601B4B9A681A4B0121D5
:100BE0000A439A60184BDA6880231B02134005D130
:100BF000C046154B1B6801221340FAD0124B9B686C
:100C00000122134005D0104B9A680F4B02210A4372
:100C10009A600D4B9A680C4B802109060A439A6032
:100C2000C046094B1A6880231B011340F9D0064BBC
:100C30001A68054B802109010A431A60C046BD4667
:100C400080BDC046001002400024014080B582B043
:100C500000AF7860164BDA68154B802109020A4311
:100C6000DA60134B7A689A62114B5A69104B07216C
:100C70000A435A617A6880239B029A4206D10D4B3F
:100C80001A680C4B8021C9030A431A60084B9A6802
:100C9000074B04210A439A60C046054B1B68042297
:100CA0001340FAD0024B1B6C1800BD4602B080BD49
:100CB000002401400827014090B585B000AF78605E
:100CC0003960184B1B68002B02D101235B4224E0E2
:100CD0000023FB600AE0FB685A1CFA603A68D418EB
:100CE000114B180000F0ADF9030023707B68013B45
:100CF0001A00FB68934205D20B4B180000F0CCF9A8
:100D0000031EE8D1FB68002B06D03A68FB68D318B5
:100D100000221A70FB6800E000231800BD4605B0F1
:100D200090BDC046180100208000002080B584B02E
:100D300000AF78603960224B1B68002B02D1012381
:100D40005B4238E07B683F2B0BDCC0461D4B180034
:100D500000F0A2F903004022D21A7B689A42F5D330
:100D600002E002235B4226E00023FB600BE03A68CE
:100D7000FB68D3181A78134B1100180000F030F9F3
:100D8000FB680133FB607B68FA689A42EFD30E4B35
:100D90001B68082213400DD10B4B1A680A4B08211F
:100DA0000A431A60074B180000F04BF903001A00C1
:100DB000054B9A6200231800BD4604B080BDC046B2
:100DC00018010020CC0000200038014080B584B01C
:100DD00000AF786072B6C046454B00229A64444B1F
:100DE0009A6C434B5A64424B5A6C414B1A64414BC8
:100DF00000229A643F4B9A6C3E4B5A643D4B5A6CAE
:100E00003C4B1A643C4B01221A603C4B00221A6096
:100E10003B4BDA6A3A4B01210A43DA62394BFB60F9
:100E20007968F86800F028FF0300FB60A023DB0569
:100E30009A68A023DB058021C9020A439A60A02397
:100E4000DB055A68A023DB052F490A405A60A0231E
:100E5000DB051B682D4A1A40A023DB05802109030E
:100E60000A431A60A023DB055A6AA023DB05402150
:100E70000A435A62A023DB051B68254A1A40A023B7
:100E8000DB05802189030A431A60A023DB055A6A27
:100E9000A023DB058021C9000A435A62184B5A6B14
:100EA000174B8021C9010A435A631A4B1A68194B20
:100EB0006C210A431A60174B00225A60154B00221E
:100EC0009A60144BFA68DA60124B1A68114B0121D0
:100ED0000A431A60104B1A680F4B802109050A4318
:100EE0001A6062B6C046C046BD4604B080BDC0466A
:100EF00080000020CC000020180100201C010020F0
:100F0000001002400048E801FFFDFFFFFFFFF3FF74
:100F1000FFFFCFFF0038014000E100E080B500AFE7
:100F2000084BDB698022134001D000F025F8054B07
:100F3000DB692022134001D000F006F8C046BD4610
:100F400080BDC0460038014080B500AF074B5B6AEA
:100F5000DAB2074B1100180000F042F8031E02D06D
:100F6000044B01221A60C046BD4680BD00380140D6
:100F7000800000201C01002080B500AF164B180037
:100F800000F08AF8031E08D0134B180000F059F83F
:100F900003001A00114B9A621BE0104B1A680F4BAA
:100FA00008218A431A600D4BDB694022134005D0AB
:100FB0000A4B1A6A094B40210A431A62074BDB6944
:100FC0008022134005D0054B9A69044B10210A4337
:100FD0009A61C046BD4680BDCC000020003801406B
:100FE00080B582B000AF78600A00FB1C1A707B6885
:100FF0001A6C7B685B6C9A4205D17B689B6C002BFA
:1010000001D0012319E072B6C0467B681B6C591CE5
:101010007A6811647A68F91C0978D1547B689B6CF2
:101020005A1C7B689A647B681B6C402B02D17B68DE
:1010300000221A6462B6C04600231800BD4602B002
:1010400080BD80B584B000AF78607B689B6C002B5E
:1010500001D100231CE072B6C0467B685B6C591C52
:101060007A6851640F22BA187968CB5C13707B6878
:101070005B6C402B02D17B6800225A647B689B6CBE
:101080005A1E7B689A6462B6C0460F23FB181B7811
:101090001800BD4604B080BD80B582B000AF786056
:1010A0007B689B6C1800BD4602B080BD80B582B0E5
:1010B00000AF78600B4B1B68002B09D101235B420A
:1010C0000BE07B685A1C7A6019000120FFF72EFEA6
:1010D0007B681B78002BF4D100231800BD4602B0BA
:1010E00080BDC0461801002080B582B000AF02006C
:1010F000FB1D1A70FB1D19000120FFF717FEC046EB
:10110000BD4602B080BD80B500AF044B1800FFF7AC
:1011100098FF03001800BD4680BDC0468000002037
:10112000B0B584B000AF786039601E4B1B68002BEF
:1011300002D101235B4231E00023FB600B23FB184B
:1011400000221A7017E0C046174B1800FFF7A4FFE3
:10115000031EF9D00B257C19134B1800FFF771FF04
:1011600003002370FB685A1CFA601A007B689B1806
:101170007A1912781A703B68013BFA689A4204DACD
:101180000B23FB181B780D2BDDD1FB68002B04DD36
:10119000FB687A68D31800221A70FB681800BD46F5
:1011A00004B0B0BD180100208000002090B583B0CD
:1011B00000AFFC1DFFF7A7FF03002370FB1D1B788A
:1011C0001800FFF791FFFB1D1B781800BD4603B008
:1011D00090BDB0B584B000AF78603960214B1B681A
:1011E000002B02D101235B4237E00023FB600B237D
:1011F000FB1800221A701DE0C0461B4B1800FFF7B9
:101200004BFF031EF9D00B257C19174B1800FFF775
:1012100018FF030023702C003B191B781800FFF700
:1012200063FFFB685A1CFA601A007B689B183A1926
:1012300012781A703B68013BFA689A4204DA0B2371
:10124000FB181B780D2BD7D1FB68002B04DDFB6846
:101250007A68D31800221A70FB681800BD4604B0E3
:10126000B0BDC046180100208000002090B585B0B8
:1012700000AF78603960184B1B68002B02D1012346
:101280005B4224E00023FB600AE0FB685A1CFA6022
:101290003A68D418114B180000F0ABF90300237022
:1012A0007B68013B1A00FB68934205D20B4B180088
:1012B00000F0CAF9031EE8D1FB68002B06D03A689B
:1012C000FB68D31800221A70FB6800E000231800A6
:1012D000BD4605B090BDC046BC01002024010020E1
:1012E00080B584B000AF78603960224B1B68002B5A
:1012F00002D101235B4238E07B683F2B0BDCC04608
:101300001D4B180000F0A0F903004022D21A7B68A0
:101310009A42F5D302E002235B4226E00023FB6001
:101320000BE03A68FB68D3181A78134B11001800C9
:1013300000F02EF9FB680133FB607B68FA689A4283
:10134000EFD30E4B1B68082213400DD10B4B1A68CC
:101350000A4B08210A431A60074B180000F049F9AC
:1013600003001A00054B9A6200231800BD4604B022
:1013700080BDC046BC010020700100200044004038
:1013800080B584B000AF786072B6C046454B00228D
:101390009A64444B9A6C434B5A64424B5A6C414B8F
:1013A0001A64414B00229A643F4B9A6C3E4B5A643C
:1013B0003D4B5A6C3C4B1A643C4B01221A603C4B2F
:1013C00000221A603B4BDA6A3A4B01210A43DA6287
:1013D000394BFB607968F86800F04EFC0300FB6055
:1013E000A023DB059A68A023DB05802149050A4379
:1013F0009A60A023DB055A68A023DB052F490A4029
:101400005A60A023DB051B682D4A1A40A023DB0588
:10141000802189050A431A60A023DB055A6AA023AC
:10142000DB058021C9040A435A62A023DB051B683F
:101430009B009A08A023DB05802109060A431A6055
:10144000A023DB055A6AA023DB058021C9050A43D6
:101450005A62184B9A6B174B802189020A439A6390
:10146000184B1A68174B6C210A431A60154B00225F
:101470005A60144B00229A60124BFA68DA60114BE2
:101480001A68104B01210A431A600F4B1A680E4B61
:10149000802149050A431A6062B6C046C046BD466F
:1014A00004B080BD2401002070010020BC01002098
:1014B000C0010020001002400048E801FFBFFFFF0C
:1014C000FFFFFFCF0044004000E100E080B500AF27
:1014D000084BDB698022134001D000F025F8054B52
:1014E000DB692022134001D000F006F8C046BD465B
:1014F00080BDC0460044004080B500AF074B5B6A2A
:10150000DAB2074B1100180000F042F8031E02D0B7
:10151000044B01221A60C046BD4680BD0044004015
:1015200024010020C001002080B500AF164B180038
:1015300000F08AF8031E08D0134B180000F059F889
:1015400003001A00114B9A621BE0104B1A680F4BF4
:1015500008218A431A600D4BDB694022134005D0F5
:101560000A4B1A6A094B40210A431A62074BDB698E
:101570008022134005D0054B9A69044B10210A4381
:101580009A61C046BD4680BD700100200044004005
:1015900080B582B000AF78600A00FB1C1A707B68CF
:1015A0001A6C7B685B6C9A4205D17B689B6C002B44
:1015B00001D0012319E072B6C0467B681B6C591C30
:1015C0007A6811647A68F91C0978D1547B689B6C3D
:1015D0005A1C7B689A647B681B6C402B02D17B6829
:1015E00000221A6462B6C04600231800BD4602B04D
:1015F00080BD80B584B000AF78607B689B6C002BA9
:1016000001D100231CE072B6C0467B685B6C591C9C
:101610007A6851640F22BA187968CB5C13707B68C2
:101620005B6C402B02D17B6800225A647B689B6C08
:101630005A1E7B689A6462B6C0460F23FB181B785B
:101640001800BD4604B080BD80B582B000AF7860A0
:101650007B689B6C1800BD4602B080BD80B582B02F
:1016600000AF78600B4B1B68002B09D101235B4254
:101670000BE07B685A1C7A6019000120FFF730FEEE
:101680007B681B78002BF4D100231800BD4602B004
:1016900080BDC046BC01002080B582B000AF020012
:1016A000FB1D1A70FB1D19000120FFF719FEC04633
:1016B000BD4602B080BD80B500AF044B1800FFF7F7
:1016C00098FF03001800BD4680BDC04624010020DD
:1016D000B0B584B000AF786039601E4B1B68002B3A
:1016E00002D101235B4231E00023FB600B23FB1896
:1016F00000221A7017E0C046174B1800FFF7A4FF2E
:10170000031EF9D00B257C19134B1800FFF771FF4E
:1017100003002370FB685A1CFA601A007B689B1850
:101720007A1912781A703B68013BFA689A4204DA17
:101730000B23FB181B780A2BDDD1FB68002B04DD83
:10174000FB687A68D31800221A70FB681800BD463F
:1017500004B0B0BDBC0100202401002080B500AF62
:10176000034B1800FFF770FF03001800BD4680BD53
:101770002401002090B583B000AFFC1DFFF79BFF54
:1017800003002370FB1D1B781800FFF785FFFB1D6E
:101790001B781800BD4603B090BDB0B584B000AF53
:1017A00078603960214B1B68002B02D101235B421A
:1017B00037E00023FB600B23FB1800221A701DE0AA
:1017C000C0461B4B1800FFF73FFF031EF9D00B2547
:1017D0007C19174B1800FFF70CFF030023702C0037
:1017E0003B191B781800FFF757FFFB685A1CFA607B
:1017F0001A007B689B183A1912781A703B68013BF3
:10180000FA689A4204DA0B23FB181B780D2BD7D108
:10181000FB68002B04DDFB687A68D31800221A707D
:10182000FB681800BD4604B0B0BDC046BC01002036
:101830002401002080B582B000AF164B7B60164BB0
:101840003B6007E07A68131D7B603B68191D3960B7
:1018500012681A603A68114B9A42F3D304E03B686D
:101860001A1D3A6000221A603A680D4B9A42F6D36C
:101870000C4B3B6004E03B681A1D3A601B689847BC
:101880003A68094B9A42F6D3C046C046BD4602B0FC
:1018900080BDC046F4500008000000206400002015
:1018A00020030020F4500008F450000880B500AF79
:1018B0003B4B1A683A4B01210A431A60C046384B29
:1018C0001B6804221340FAD0354B0122DA60C0466F
:1018D000334BDB680C221340042BF9D1314B1A68CF
:1018E000304B02210A431A602E4B1A682D4B0121FE
:1018F0000A431A602A4B9A6B294B802149050A43F7
:101900009A63294B802212011A60C046264B5B68FD
:1019100010221340FAD1224BDA68214B23490A40A6
:10192000DA601F4BDA681E4B8821C9030A43DA606C
:101930001B4A1B4BD268DA60194A194BD268DA602D
:10194000174A174BD268DA60154B1A68144B1849BE
:101950000A401A60124B1A68114B802149040A434D
:101960001A60C0460E4B1A6880239B041340F9D0BE
:101970000B4BDA680A4B03218A43DA60084BDA68BA
:10198000074B03210A43DA60C046054BDB680C2293
:1019900013400C2BF9D1C046C046BD4680BDC046A1
:1019A000001002400020024000700040FFFF02FFD4
:1019B000FFFFFFFE80B500AF024B1800FFF776FB7C
:1019C000FEE7C046F04F000880B500AF024B18009C
:1019D000FFF76CFBFEE7C0462050000880B582B0E0
:1019E00000AF7860FEE780B582B000AF7860012379
:1019F0005B421800BD4602B080BD80B584B000AF28
:101A0000F860B9607A60044B0C221A6001235B42D3
:101A10001800BD4604B080BDD001002080B500AFE5
:101A2000034B0B221A6001235B421800BD4680BDA8
:101A3000D001002080B582B000AF786039603B688B
:101A4000802292015A6000231800BD4602B080BD7A
:101A500080B500AF01231800BD4680BD80B582B0BF
:101A600000AF78603960044B16221A6001235B4294
:101A70001800BD4602B080BDD001002080B582B004
:101A800000AF78603960044B1F221A6001235B426B
:101A90001800BD4602B080BDD001002080B584B0E2
:101AA00000AFF860B9607A6000231800BD4604B04A
:101AB00080BD80B582B000AF786039603B6880221D
:101AC00092015A6000231800BD4602B080BD80B567
:101AD00082B000AF786001235B421800BD4602B0BF
:101AE00080BD80B582B000AF7860044B02221A60DE
:101AF00001235B421800BD4602B080BDD00100202A
:101B000080B582B000AF7860044B0A221A600123CE
:101B10005B421800BD4602B080BDC046D001002027
:101B200080B582B000AF78607B68022B01D80123BA
:101B300003E0044B09221A6000231800BD4602B0DE
:101B400080BDC046D001002080B586B000AF78606F
:101B5000124B7B61124B3B61124B1B68002B02D175
:101B6000104B7A691A600F4B1B68FB600D4B1A68AB
:101B70007B68D3183A699A4205D20B4B0C221A6043
:101B800001235B4206E0074B1A687B68D218054BBD
:101B90001A60FB681800BD4606B080BD2003002017
:101BA00000100020CC010020D001002080B588B0BA
:101BB00000AFF860B9607A600023BB61FB68002B5E
:101BC00022D10023FB611AE0FFF79DFA03001A00FF
:101BD00017217B181A70BB685A1CBA607A181278E1
:101BE000D2B21A70BB690133BB617B181B78DBB2C0
:101BF0000A2B01D1BB690EE0FB690133FB61FA6975
:101C00007B689A42E0DB05E0054B09221A6001235C
:101C10005B4200E0BB691800BD4608B080BDC0460D
:101C2000D001002080B586B000AFF860B9607A605E
:101C3000FB68013B012B11D800237B6109E0BB68E5
:101C40005A1CBA601B781800FFF74EFA7B69013303
:101C50007B617A697B689A42F1DB05E0054B0922DA
:101C60001A6001235B4200E07B681800BD4606B0A5
:101C700080BDC046D001002003460B437FD4002224
:101C800043088B4274D303098B425FD3030A8B4210
:101C900044D3030B8B4228D3030C8B420DD3FF227A
:101CA000090212BA030C8B4202D31212090265D048
:101CB000030B8B4219D300E0090AC30B8B4201D3FB
:101CC000CB03C01A5241830B8B4201D38B03C01A42
:101CD0005241430B8B4201D34B03C01A5241030BB9
:101CE0008B4201D30B03C01A5241C30A8B4201D36A
:101CF000CB02C01A5241830A8B4201D38B02C01A15
:101D00005241430A8B4201D34B02C01A5241030A8B
:101D10008B4201D30B02C01A5241CDD2C3098B4270
:101D200001D3CB01C01A524183098B4201D38B01ED
:101D3000C01A524143098B4201D34B01C01A524190
:101D400003098B4201D30B01C01A5241C3088B42D5
:101D500001D3CB00C01A524183088B4201D38B00C0
:101D6000C01A524143088B4201D34B00C01A524162
:101D7000411A00D201465241104670475DE0CA0F39
:101D800000D04942031000D34042534000229C46F9
:101D900003098B422DD3030A8B4212D3FC22890103
:101DA00012BA030A8B420CD3890192118B4208D3D9
:101DB000890192118B4204D389013AD0921100E03B
:101DC0008909C3098B4201D3CB01C01A524183094F
:101DD0008B4201D38B01C01A524143098B4201D37C
:101DE0004B01C01A524103098B4201D30B01C01AA7
:101DF0005241C3088B4201D3CB00C01A5241830821
:101E00008B4201D38B00C01A5241D9D243088B4276
:101E100001D34B00C01A5241411A00D20146634619
:101E200052415B10104601D34042002B00D549427D
:101E3000704763465B1000D3404201B5002000F0BC
:101E400005F802BD0029F8D016E770477047C04674
:101E500070B500220C4B04000D0001F0E5FB0028DA
:101E600004D12000290001F027FB70BD064B0022A1
:101E70002000290000F098FF01F01EFB80231B06C4
:101E80009C466044F1E7C0460000E041F0B5C6461C
:101E900043025B0A9C461F00DE004B025A0A4500C3
:101EA00090464A002D0E120EC40F00B5C90F9B09B3
:101EB000A81A8C4221D000280DDD002A2DD1002B3C
:101EC00000D195E0421E012800D131E1FF2800D168
:101ED00094E0100027E0002862D0501B002D00D0B5
:101EE000E1E0002E00D181E0441E012800D142E152
:101EF000FF2800D119E12000DAE0002800DC9CE096
:101F0000002A69D0FF2D00D178E08022D20413434B
:101F10001B2800DC7DE001362AE0FF2D00D16DE0BA
:101F20008022D204134301221B2807DC2021091A36
:101F30001A008B40C240591E8B411A43B61A7301D6
:101F400000D477E0B601B709380001F077FB053817
:101F50008740854200DD82E020223B00401B0130AB
:101F6000121A3E009340C6405A1E934100251E435C
:101F7000730704D00F233340042B00D004367301C1
:101F800037D5681CFE2D52D08E4BC0B233409B011A
:101F90005F0AC0053843E407204380BCB846F0BD63
:101FA000FE206A1C104274D1002D00D0AAE0002E41
:101FB00000D1DAE00020002BEBD08022F71AD20407
:101FC000174200D1ECE09B1B134200D1F2E07D4AA6
:101FD0000C0013400130DAE7002B09D0421E012823
:101FE00000D196E0FF2809D0100091E70C001E00F8
:101FF0000500F3089C46FF2D00D091E06346002BBE
:1020000015D080276346FF031F437F02FF207F0A0E
:10201000BFE72021091A1A008B40C240591E8B418C
:102020001343F618730105D50135FF2D54D1FF2058
:102030000027AEE773079DD1DBE7002813D0501BC4
:10204000002D50D1002ED2D0411E012840D0FF28B3
:102050006CD008001B286EDD15005E1C88E7594E09
:102060002D1A3E4084E7FE216A1C114241D1002D09
:102070006CD1002E00D190E00020002B00D188E729
:10208000F318DF087F027F0A5B0100D481E701209B
:102090007FE7F71A7A0132D4002F00D054E70024EA
:1020A0000020002775E7FF2A3FD08024E404264360
:1020B00001241B2808DC35001F34241AA640C54023
:1020C000741EA6412C0034431E1B15000C0036E77D
:1020D000F6180235730120D501233B4A33407608B8
:1020E00016401E4344E7FF2A20D08021C9040E4336
:1020F000B0E7FF2A9BD0F6181500760838E70C00E9
:102100009F1B21E7002E3AD1002B4ED0C4460C0075
:1021100077E7F61802257301DED4F3089C46012503
:1021200063465F027F0AE8B233E70C00C44665E706
:102130000125F61A03E731002025C140281A864000
:10214000701E86410E431500F6186BE7002EEDD089
:10215000002B00D155E78023DB039C4500D250E7DC
:10216000984500D34DE7C4464BE7002B97D00C00B1
:10217000474600200DE70C009E1B0135DFE6002BD3
:1021800000D13EE78023DB039C4500D239E7984528
:1021900000D336E70C00C44633E747460020F8E694
:1021A000002F0BD0BF017F0AF3E680270024FF2019
:1021B000FF03EEE69B010C005F0AEAE6002400271D
:1021C000E7E6C046FFFFFFFBFFFFFF7DF0B5464699
:1021D0004F46D6464502C0B5C30F470098460E1C71
:1021E0006D0A3F0E57D0FF2F21D08023ED00DB0476
:1021F0001D43002399469A467F3F74027300640A88
:102200001B0EF60F002B20D0FF2B4CD0802200207D
:10221000E400D20414437F3B4246FF1A4B4672400F
:102220000F2B00D9ACE06F499B00CB589F46002D87
:102230005BD108239946063B74029A467300FF2738
:10224000640A1B0EF60F002BDED1002C30D10123C7
:1022500042464946724019430E2904D86248890013
:1022600041588F464246FF200024C0052043D20734
:102270001043E0BCBA46B146A846F0BD5346022B17
:10228000F0D0032B00D1A3E042462C00012B35D126
:1022900000200024E9E7002D1BD104239946033BCD
:1022A00000279A46A9E7002C0CD10223FF3FCFE775
:1022B000200001F0C3F9431F9C4076235B421B1AA8
:1022C0000020A9E703234A461A4391460320FC3322
:1022D000A2E7280001F0B2F97627431F9D400023B2
:1022E0007F4299469A463F1A87E70C239946093B55
:1022F000FF279A4681E703286CD0320038007F30F0
:10230000002825DD630704D00F232340042B00D0D1
:102310000434230103D53800344B80301C40FE28A0
:10232000A1DCA401640AC0B29FE780240022FF2040
:10233000E4039AE78023DB031D4201D01C424BD00B
:102340008024E4032C4364024246FF20640A8CE7A5
:1023500001231B1A1B2B9BDC21009E37D940BC405C
:102360000B00611E8C412343590704D00F211940F3
:10237000042900D00433590126D50120002474E734
:102380006D016001854213D21B230024013F012609
:10239000290064006D00002901DBA84201D82D1A34
:1023A0003443013B002BF3D16B1E9D412C43A5E729
:1023B0001A2301242D1AEAE7981E4342584140424D
:1023C00032000024C0B250E79B0100205C0A4CE7B9
:1023D00046462C008023DB031C4364023200FF20AE
:1023E000640A42E74450000884500008FFFFFFF7EA
:1023F000F0B546464F46D64643025B0AC0B59C46FA
:102400001F00DE004B025A0A904645004A002D0E7E
:10241000C40F120EC90F9B09FF2A26D0012041408C
:10242000A81A8C4210D0002800DC8AE1002A48D18A
:10243000002B00D1AEE0421E012800D13FE1FF2871
:1024400000D1ADE0100041E0002800DC86E1002A68
:1024500000D182E0FF2D00D1A2E08022D2041343FC
:102460001B2800DC83E0013654E02800FF38824658
:10247000002B69D1012041408C4200D1D8E0504668
:10248000002800D19AE00C00002D00D07DE0FF2054
:10249000002E00D17CE0471E012800D12CE10C0069
:1024A000FF2800D109E101211B2F07DC2020C01BE0
:1024B00031008640F940701E8641314315005E1A96
:1024C00010E0FF2D6CD08022D204134301221B2880
:1024D00007DC2021091A1A008B40C240591E8B418B
:1024E0001A43B61A730166D5B601B709380001F070
:1024F000A5F805388740854200DD7AE020223B00C0
:10250000401B0130121A3E009340C6405A1E9341B0
:1025100000251E43730704D00F233340042B00D043
:102520000436730137D5681CFE2D2ED0914BC0B2F6
:1025300033409B015F0AC0053843E4072043E0BCF9
:10254000BA46B146A846F0BD8C4260D0002835D0CE
:10255000002D9CD00C00C44622E0002B1AD0421E55
:10256000012800D19DE0FF281AD0100078E7202133
:10257000091A1A008B40C240591E8B411343F618AA
:10258000730118D50135FF2D6AD1FF200027D2E74E
:102590000C001E000500F3089C46FF2D00D087E0CC
:1025A0006346002BF1D080276346FF031F437F0261
:1025B000FF207F0ABFE77307AED1ECE7FE206A1C5D
:1025C00010421AD1002D63D1002E00D198E00020D6
:1025D000002BB0D08022F71AD204174200D1A8E015
:1025E00001249B1B0C401342A3D0624A01301340CC
:1025F0009FE7604E2D1A3E408CE7F71A7A0143D4CC
:10260000002F00D072E700240020002793E7002865
:1026100011D0002D51D1FF20002EBAD0411E01282B
:102620003FD0FF2849D01B294CDD15005E1C71E707
:10263000514600291BD1FE216A1C11421ED1002DDA
:102640004BD1002E72D00020002B00D173E7F3187D
:10265000DF087F027F0A5B0100D46CE701206AE794
:102660000123454A3340760816401E4352E7002DA9
:10267000D1D08AE7FE216A1C0A42E2D0FF2A84D028
:10268000F6181500760845E701249F1B0C402DE73E
:10269000002E3CD1002B45D180270024FF20FF03D2
:1026A00049E7F61802257301DAD4F3089C460125A0
:1026B00063465F027F0AE8B23DE7C44670E7012542
:1026C000F61A0FE730002025C840691A8E40711EA7
:1026D0008E4106431500F61852E7002EEDD0002B70
:1026E00000D160E78023DB039C4500D25BE798457F
:1026F00000D358E7C44656E70C0001259E1BF1E6BF
:10270000002B80D00124474600200C4013E7002B0B
:1027100000D148E78023DB039C4500D243E798457E
:1027200000D340E70124C4460C403CE74746002064
:1027300001E7002F02D0BF017F0AFCE6002400273A
:10274000F9E6002800D139E7571B3800002D00D1E9
:102750009EE68020C0040C000643A4E6002889D031
:10276000511B002D01D1080056E78020C00406430C
:1027700059E7C046FFFFFFFBFFFFFF7D70B5002854
:1027800013D0C317C5185D40C40F280000F056FFD2
:102790009E2301001B1A962B0FDC082831D0083924
:1027A0008D406D026D0AD8B202E0002400200025A1
:1027B000C0052843E407204370BD992B15DC421F58
:1027C00095402A00150011480540560709D00F26EC
:1027D0003240042A05D004356A0102D59F23054002
:1027E0005B1AAD016D0AD8B2E2E70522121A280081
:1027F000D0400A001B3295402A00551EAA410243D0
:10280000E0E76D0296206D0AD2E7C046FFFFFFFBAE
:10281000F0B557464E46DE464546E0B589B00092D3
:1028200001930B031B0B9A46CA0F4B000400914601
:102830005B0D00D1BCE1D84A934200D14AE1514638
:10284000420FC9000A43802109041143C200904687
:10285000D24A8A469C18002300250393009E019FBC
:102860003B031B0B9B46FA0F7B0030005B0D049271
:1028700000D16FE1C84A934200D153E15946720F2B
:10288000C9000A43802109041143C44A8B46944677
:1028900000216344F0001B195C1C0A2D00DD26E1B9
:1028A0004E46049A5640F2B20092022D00DCA8E196
:1028B0000122AA40A6271500FF003A403D4200D061
:1028C00013E19027BF003D4200D016E288222A4241
:1028D00000D0EFE1414642460904090C0D00170CF7
:1028E000020C0004000C4543AC46050016007D4375
:1028F000A8460D007E43039204963200039E754362
:102900006646360CB14645444D44A84505D91600E7
:10291000802252029046464404962E0C0596664646
:102920003604360CB4462D04654406955D462D0CE0
:10293000A9465D460E002D042D0C6E43B4462E00B4
:102940007E43B3464E467143594488466146090C5E
:10295000414477438B4503D9802252029046474435
:102960000E0CB0463E004644079666463704059E68
:102970003F0CB4460904C9198C4466460596564670
:10298000360CB446564637043F0C3E004643B0462C
:1029900066464643B24646466046360CB346039A00
:1029A00050437A4352445A44924503D980267602D2
:1029B000B2465044160CB246824440461204904639
:1029C0000004000C3A004E46804460466A43774358
:1029D0004543704384467819170C3F18BD4203D90C
:1029E000802040028146CC44059D0498A946079E5C
:1029F000484488428941B14612043D04120CAA1889
:102A00004A44494255184044A9464045AD41C8464C
:102A10006D42AB46B242924189458941D044C3449C
:102A2000494252420A43AB45AD41D04589416D42CE
:102A300049420D4359463F0CD21952196244520281
:102A4000C90D069D11438A46410229434D1EA941E5
:102A5000C00D08435946490208438046D20100D4BC
:102A600073E101224308024013435246D207134345
:102A7000984653465B089A46009B9946484BE31894
:102A8000002B00DCE5E0424652070AD00F22414607
:102A90000A40042A05D004314145924188465242F9
:102AA00092445246D20106D552463E4B1A408023EC
:102AB0009246DB00E3183C4A934200DD9DE042462B
:102AC000D108524652070A4351465B054C02240B7B
:102AD0005B0D19E052460243904600D0B3E01C0063
:102AE0000223924608250393B8E6009B9946039B70
:102AF000022B00D181E0032B00D1F5E0039B012BD9
:102B0000BCD100230024002210004A461B052343A9
:102B1000D2071343190009B0F0BCBB46B246A94620
:102B2000A046F0BD5B46009E1E431B4BE318002EE3
:102B300000D181E003224E461543049A5640F2B27A
:102B4000009280221201944664440A2D00DDB7E011
:102B50000321ADE65B46009A134365D05B46002B2C
:102B600000D1E2E0584600F069FD020003000B3A94
:102B70001D27009EBA1A19005846D64008398840C9
:102B800032000243009893468840084AE31A94466C
:102B90000021634480E6C046FF07000001FCFFFF00
:102BA000FF030000FFFFFFFEFE0700000DFCFFFF1C
:102BB00053460343984630D05346002B00D1A2E041
:102BC000504600F03BFD0B235B429C4602008444D0
:102BD00066461D239B1B260011005046DE40083927
:102BE0008840330003439A4623008B4098460023D5
:102BF000694C0025A41A039330E600240022674B99
:102C000082E7013D012D00D964E6009B9946022927
:102C1000F3D0DA468046039170E700239A460133E9
:102C200004250024039319E6002201331D43934633
:102C30002300002001212FE602221543002200205C
:102C40009346022128E61C00032380460C250393AB
:102C500004E60121C91A382900DD52E71F2978DD71
:102C60001F225242D31A5246DA401300202907D0BD
:102C70004B4A4146944652466444A240114388461A
:102C80004246511E8A411A4307231900002411406D
:102C900013420BD00F231340042B7BD0131D934200
:102CA000A4411A00644261076402240BD208002385
:102CB0000A4329E7049BDA4699468046039116E7C2
:102CC0000F2D0DD180245346240323420CD05B46A4
:102CD000234209D11C43049B020099462F4B13E762
:102CE000049BDA46994680468024534624031C43BD
:102CF00024034246294B240B06E7002380249946EF
:102D00002403264B00E700F099FC15239C468444DD
:102D10000200634620321C2B00DC59E70023984652
:102D20002300083883409A4661E700F087FC0200E0
:102D30000300153220331C2A00DC19E70200009939
:102D4000083A914000208B461FE7009A1C009146EC
:102D500094E6144B52469C4643466444A240CB4002
:102D60001A434346A340581E834154461A43CC405D
:102D7000530709D00F231340042B05D0131D934292
:102D800092415242A4181A0023028CD50123002438
:102D90000022B9E6002486E70DFCFFFFFF070000D4
:102DA0003E0400001E040000F0B557464E4645465E
:102DB000DE46E0B583B0009001910E034D00CC0FCC
:102DC000710A009E5F00760F0E43009900920193F6
:102DD000C80019037B0D9A46B446009E019FFB0F65
:102DE0009946CA4A4B0A710F1943F3008346984625
:102DF0001F006D0D924500D1C4E001234E465E4098
:102E00005346B146EB1AB44200D17AE0002B00DC05
:102E100024E35646002E00D1D4E0954200D164E16F
:102E20000126382B16DC8022120411431F2B00DDF3
:102E3000D6E120220E004746D21ADF4096403E439C
:102E400047469740D9403A006346571EBA415B1A3D
:102E50009C461643861BB0428041634640421F1A7F
:102E60003B0200D438E17F027F0A002F00D114E139
:102E7000380000F0E3FB0300083B20213000CA1AB1
:102E8000D0409F4002009E403A439D4200DD7AE1DF
:102E9000581B0130091A37008E40C740731E9E41EF
:102EA0001300C2408B403E43002517001E437307AA
:102EB00009D00F233340042B05D0331DB342B64154
:102EC0007642BF191E003B0200D49AE28F4A6B1C67
:102ED000934200D106E18E4D5B053D405B0D6A07D4
:102EE000F6086D0232432D0B1B052B43E4072343E9
:102EF0001000190003B0F0BCBB46B246A946A0467C
:102F0000F0BD002B00DCC4E25646002E00D0BAE033
:102F100046460E4300D1EAE05E1EB146012B00D1C9
:102F2000AAE1934200D1E0E04B460126382B11DCA8
:102F30001F2B00DDB5E120220E004746D21A964035
:102F4000DF403E43474697403A00D940571EBA41BA
:102F50008C44164336188642804140426044070044
:102F60003B0200D4B8E0694B01359D4200D1B8E086
:102F70000121674B72081F4031400A43FE07164388
:102F80007F0894E7634BEA1843460B432CD04C452B
:102F900030D0002A5DD0002D00D1F8E043464C46E9
:102FA0008C46D80863465A070243D9080B001343DE
:102FB000002B00D147E280252D030D432D03534BF9
:102FC0002D0B91E746460E4300D190E05E1EB146C0
:102FD000012B00D15CE1934200D186E04B460126F3
:102FE000382B00DD36E721E74E4601235E40B1462F
:102FF0004C45CED1002A00D190E0002D00D004E154
:1030000053466246024300D1C8E15A1E012B00D14B
:10301000FFE13E4DAB4200D1F7E00123382A10DC3E
:103020001F2A00DDDCE120250600AD1A6346A8401A
:10303000AB40D640451EA841334303436046D040D1
:10304000091843444345924152421E0055465718C1
:1030500086E7314A6B1C134200D082E04246634649
:103060000A430343002D00D0F5E0002B00D16AE1B4
:10307000002A00D075E10023C70862466146520766
:103080003A43C9083DE095422FD00126382B00DD98
:1030900060E78022120411434AE7300000F0CEFAC4
:1030A000030018331F2B00DCE7E6320008388240AB
:1030B0009D4200DDA4E05B1B581C1F2800DCA4E13E
:1030C00016001F3BDE40202805D040231B1A9A40E3
:1030D000531E9A4116430025730700D0E9E62B00E2
:1030E000D3E02B0000250022FEE6C0085AE7C00806
:1030F00062466146520702430448C908834200D130
:1031000054E709035B050D0B5B0DEDE6FF070000BF
:10311000FFFF7FFF01F8FFFFFE070000CC4A6B1C9A
:10312000134276D163460343002D00D0DDE0002B2F
:1031300000D150E14346C7080B439ED04346C31815
:1031400083428041614440420D18DB082A0200D4CA
:1031500073E1C04A15406A076D021A432D0B012323
:10316000C2E64346C61A63465F1AB0429B415B42C1
:10317000FF1A3B025ED432003A4300D075E60024C9
:1031800000230025B0E6B34FED1A17408FE65346F3
:10319000624602435AD05A1E012B00D1C8E0AE4C01
:1031A000A34200D1FAE64C460126382A10DC1F2A39
:1031B00000DD89E020239B1A0500664698409E406A
:1031C000431E98416346D540D3402E430643C91A57
:1031D00043469E1BB0459241524255468F1A3FE6E8
:1031E0001A000E00203AD640202B05D04022D31AD8
:1031F000994043460B431F007B1E9F413E4329E6F7
:103200009449EB1A0A40944637E743468C46D8085F
:10321000C8E6914A934200D164E74246821882424E
:103220008041614440420918CE0752081D001643F0
:103230004F083CE643461E1A6346B0459241C91A00
:1032400001244B4652428F1A1C400EE642464C4621
:103250008C46D0084CE7002B00D0A3E0002A00D118
:10326000E7E043464A07DB081A43130001244846B7
:10327000C9080B4304409BE6C6198642804161445D
:1032800040420F183B0251D40123BC46F0082FE7FF
:10329000C61B6346B0428041591A404201250F1AAD
:1032A000DEE51A000E00203AD640B146202B05D0AC
:1032B0004022D31A994043460B431F003E00731E21
:1032C0009E414B461E4345E613006546203BDD40CC
:1032D000202A05D0402366469B1A9E400643B346EB
:1032E0005E46731E9E412E4372E7002B8DD04346EF
:1032F0000B4300D1F9E66246C0085207634610430B
:103300008022DB081203134207D0CD08154204D1F6
:103310004346D8082B0049070843420FC000520714
:10332000C0080243190013000B4341E602251FE6C3
:1033300043461E1AB045924163465242C91A4C4652
:1033400001258F1A8CE5002A00D118E743464A0769
:10335000DB0801241A434B4649021C400D0B002395
:10336000C2E54346C71A63465D1AB8429B415B42B9
:10337000ED1A80231B041D4253D04246161A6246A2
:103380008D1AB045924152420124AD1A4A4614406A
:103390001D4278D02F4B1D400123A0E542468C46AC
:1033A000D008A5E6002A00D19FE66246C008520771
:1033B000634610438022DB0812031342ADD0CD08D0
:1033C0001542AAD143460124D8084B4649071C4060
:1033D00008432B00A1E743468C46DF0800234CE658
:1033E00013006546203BDD40202A05D04023664679
:1033F0009B1A9E400643B3465B465A1E93412B439D
:103400001FE62B00BC46F00872E620210026091AB0
:1034100046E54044404592416144524206008F18BF
:1034200030E73A002A4300D1A9E60023AC46FF0862
:1034300023E6802100240903BDE56A076D021A43D3
:103440002D0B002350E500220025034B4CE5C04620
:10345000FE070000FFFF7FFFFF070000002B00D1E9
:10346000F7E553465A1B1300002D00D190E6382A89
:1034700006DC802364461B041C43A446340096E605
:1034800034000126A4E66A07F60800233243E9085F
:1034900037E6002B00D141E653465A1B002D01D1DF
:1034A0001300AEE50123382A00DDCAE58023654616
:1034B0001B041D43AC46B3E50B00020070B5164D6E
:1034C0000C0382B04900002000920193240B490DA7
:1034D000DE0FA94204DD1148814203DD104BF018D4
:1034E00002B070BD8020400320430E4C641A1F2C94
:1034F00008DD0D4B5B1AD84003005842002EEFD177
:103500001800EDE7094B009A9C46030061448B408C
:10351000E2401343F1E7C046FE0300001D04000033
:10352000FFFFFF7F3304000013040000EDFBFFFFEB
:1035300070B542024300C40FFE201B0E591C550AF1
:1035400008420CD0E02189008C466D07120B6344C1
:103550001B051343E40723432800190070BD002B0B
:1035600014D1002D1BD0280000F068F80A281CDCBC
:103570000B232A001B1ADA40030015339D400E4B23
:1035800012031B1A5B05120B5B0DE1E7002D09D03E
:10359000130B802212031A436D07084BD8E7002350
:1035A0000022D5E70022054BD2E703002A000B3B9F
:1035B0009A400025E3E7C04689030000FF070000AA
:1035C0008446100062468C461900634600E0C046FF
:1035D0001FB500F005F9002801D40021C8421FBD25
:1035E00010B500F049F84042013010BD10B500F0B0
:1035F000F7F8002801DB002010BD012010BDC046F7
:1036000010B500F0EDF8002801DD002010BD01200C
:1036100010BDC04610B500F073F8002801DC002092
:1036200010BD012010BDC04610B500F069F800289B
:1036300001DA002010BD012010BDC0461C2101236D
:103640001B04984201D3000C10391B0A984201D385
:10365000000A08391B09984201D30009043902A263
:10366000105C40187047C0460403020201010101CA
:103670000000000000000000F0B55746DE464E4650
:103680004546E0B50D000400E80F83460903D80F56
:10369000090B824619488C461F0369005E00490DDC
:1036A0003F0B760D814218D086420FD00120B142E7
:1036B0000DD1BC450BD1944209D1D3451CD0002972
:1036C00005D160462043431E984100E00120F0BC34
:1036D000BB46B246A946A046F0BD01208E42F6D1B7
:1036E000614639430F0017432743F0D15B465246EA
:1036F000981A431E9841EAE70020E8E7FF07000018
:10370000F0B557464E464546DE46E0B50D000E0381
:103710004900490D8A46DF0FE90FBC4683B02F4FA1
:10372000040080460191580019039146360B090B9D
:10373000400DBA451DD0B8420DD05746002F2AD1B2
:103740003443002824D10A4336D0002C41D16346AB
:103750005800013815E0114338D15346002B01D1F0
:103760002643F4D0019B634507D1019B58000138E3
:1037700007E026432AD1504521D00120019B5F421A
:10378000384303B0F0BCBB46B246A946A046F0BDE4
:10379000002CDCD0E6E70028EFD0019B6345ECD19C
:1037A0008245EADCE1DB8E42E7D8DED1C845E4D8C9
:1037B0000020C845E5D2D8E7002CE2D0DDE7114370
:1037C00004D1019B6345D8D10020DAE702204042B2
:1037D000D7E7019B6345E6D0CFE7C046FF0700006F
:1037E000F0B557464E464546DE46E0B50D000E03A1
:1037F0004900490D8A46DF0FE90FBC4683B02E4FC2
:10380000040080460191580019039146360B090BBC
:10381000400DBA451ED0B8420DD05746002F27D1D3
:103820003443002833D10A4334D0002C40D16346BE
:103830005800013815E0114312D15346002B01D135
:103840002643F4D0019B63451DD00120019B5F42BC
:10385000384306E0264303D15045F6D111431CD02E
:10386000022003B0F0BCBB46B246A946A046F0BD5C
:103870000028EAD0019B6345E7D18245E5DC02DB05
:103880008E42E2D80ED0019B58000138E9E7002CA7
:10389000CDD0D7E7002CE4D0D7E7019B00206345CB
:1038A000DFD0D2E7C845D0D80020C845D9D2EAE752
:1038B000019B6345E4D0C8E7FF0700000EB403B5E1
:1038C00003AB04CB8168019300F054F802B008BC4C
:1038D00003B018470FB407B5054904AB086804CB1B
:1038E0008168019300F046F803B008BC04B01847A3
:1038F0000800002003008218934200D1704719701D
:103900000133F9E7936810B5013B9360002B04DAAB
:103910009469A34207DB0A2905D01368581C10607C
:103920001970080010BD00F0BDFD0100F9E7F8B501
:1039300006000F001400D518AC4201D1002007E0AA
:1039400021783A003000FFF7DDFF0134431CF3D14A
:10395000F8BD002310B5140092689A4205D02200E9
:1039600000F0DCFB00220300A2600022180062606D
:1039700010BD0000F0B5A1B00F0015001E000390AF
:10398000002804D0036A002B01D100F093FB7B6E6A
:10399000DB0705D4BB899B0502D4B86D00F091FE0E
:1039A000BB891B0702D53B69002B13D13900039853
:1039B00000F0C4FD00280DD07B6EDB0703D501208D
:1039C000404221B0F0BDBB899B05F8D4B86D00F032
:1039D0007EFEF4E7002308AC636120336376103386
:1039E000A37607962E003378002B01D0252B48D1E3
:1039F000731B0593AE420BD02A0039000398FFF7E2
:103A000096FF013000D1AEE06369059A9B186361AF
:103A10003378002B00D1A6E00122002352426260DD
:103A200004A954325218751C2360E360A36013701C
:103A3000A365594B052218002978059300F048FE2C
:103A40006E1C00281FD12268D30604D5532304A975
:103A50005B1820211970130704D5532304A95B18A0
:103A60002B2119702B782A2B16D02E0000210A202A
:103A7000E3683278751C303A092A50D9002911D1EF
:103A800017E00136AFE7059B2268C01A0123834087
:103A9000134335002360CCE7079B191D1B68079172
:103AA000002B01DB0B9304E05B42E3600223134332
:103AB000236033782E2B0CD173782A2B34D1079BBB
:103AC00002361A1D1B680792002B01DA01235B42A4
:103AD0000993324D03222800317800F0F9FD0028C7
:103AE00006D04023401B83402268013613432360E5
:103AF000317806222A48751C217600F0E9FD00285D
:103B000040D0284B002B22D10722079B0733934339
:103B1000083307936369049A9B18636162E7434320
:103B20002E0001219B18A4E700230A20190001366A
:103B300063603278751C303A092A03D9002BC8D04B
:103B40000991C6E741432E0001238918F1E707AA2E
:103B5000009221003A00144B039800E000BF04904B
:103B6000049B0133D6D17B6EDB0705D4BB899B0553
:103B700002D4B86D00F0ABFDBB895B0600D51EE733
:103B80000D981EE707AA009221003A00064B039801
:103B900000F088F8E3E7C046C0500008C6500008AF
:103BA000CA500008000000002F39000810B5044C6E
:103BB00013000A0001002068FFF7DCFE10BDC046BC
:103BC00008000020F7B5160001938A680B690C0005
:103BD0000090934200DA13002200336043321278DF
:103BE000002A01D00133336023689B0602D5336875
:103BF000023333602268062315001D401A4227D085
:103C0000230043331B785A1E93412268920630D416
:103C1000220001990098089D4332A847013025D021
:103C20000622236800251340042B05D13368E5687C
:103C3000ED1AEB43DB171D40A3682269934201DDB7
:103C40009B1AED180026B54220D1002010E0013566
:103C5000E36832689B1AAB42D2DD2200012301994E
:103C60000098089F1932B8470130F0D10120404236
:103C7000FEBD3020E1184331087021005A1C453147
:103C80000978A218433202331170C1E722000123E0
:103C900001990098089F1A32B8470130E6D00136E2
:103CA000D1E70000F0B58BB006920A0043320793CB
:103CB000059003920A7E0C00109B782A09D8622A8C
:103CC0000BD8002A00D1BAE07A490491582A00D1D1
:103CD0008EE0250042352A7022E010006338152856
:103CE000F7D800F0A9FF16001F00F6FFF6FFF6FF59
:103CF000F6FF1F00F6FFF6FFF6FFF6FF9F00360007
:103D00007E00F6FFF6FFB000F6FF3600F6FFF6FF86
:103D1000820025001A684235111D196013682B7046
:103D200001239EE018680968021D0D060BD5066880
:103D30001A60002E03DA2D23039A764213705D4B2E
:103D40000A27049318E006681A604906F1D536B2CE
:103D5000EFE70868196840C9050602D4400600D597
:103D6000B6B21960534B0A2704936F2A00D1023F61
:103D70002300002243331A706368A360002B06DB24
:103D800004212268039D8A43226033430CD0039DA3
:103D90003000390000F0E0FF049B013D5B5C2B70BC
:103DA000330006009F42F3D9082F09D12368DB07AF
:103DB00006D5626823699A4202DC3023013D2B70EC
:103DC000039B5B1B2361079B210000930598069BC7
:103DD00009AAFFF7F7FE013048D1012040420BB09D
:103DE000F0BD202209680A432260782232490491FA
:103DF000210045310A701968226840C9100602D4B2
:103E0000500600D5B6B21960D30702D5202313435C
:103E10002360002E01D01027AAE7202223689343B5
:103E20002360F8E71A680D68101D49691860136867
:103E30002E0601D5196002E06D06FBD5198000231E
:103E4000039D2361BFE71A68111D196015680021E1
:103E50002800626800F03CFC002801D0401B606034
:103E6000636823610023039A1370ACE72A00236977
:103E700006990598079DA8470130AED023689B0797
:103E800015D4099BE0689842A9DA1800A7E7220038
:103E9000012306990598079E1932B04701309CD03E
:103EA0000135E368099A9B1AAB42F0DCE9E700258B
:103EB000F7E7C046D1500008E2500008002310B5D3
:103EC000040003604360836081814366C2810361B3
:103ED00043618361190008225C30FFF70BFD0B4B37
:103EE000246263620A4BA3620A4BE3620A4B2363B8
:103EF0000A4B9C4205D00A4B9C4202D0094B9C4283
:103F000003D12000583000F0D8FB10BD0944000850
:103F1000354400086D44000899440008D40100208D
:103F20003C020020A402002010B5034A03490448C3
:103F300000F04EFA10BDC046580000205D4A00084F
:103F40000C00002041680B4B10B50400994201D0D1
:103F500000F084FDA168084B994202D0200000F0D7
:103F60007DFDE168054B994202D0200000F076FD0E
:103F700010BDC046D40100203C020020A402002055
:103F80004B6E10B5DB0705D48B899B0502D4886D79
:103F900000F097FB002010BD4B6E10B5DB0705D479
:103FA0008B899B0502D4886D00F091FB002010BD29
:103FB00010B5094B094A04211A6009480022FFF78D
:103FC0007DFF012209210748FFF778FF0222122115
:103FD0000548FFF773FF10BD0C030020293F0008C0
:103FE000D40100203C020020A402002010B50248A9
:103FF00000F067FB10BDC0461703002010B5024853
:1040000000F065FB10BDC04617030020F8B507009F
:10401000FFF7ECFF244B1B68002B01D1FFF7C8FF13
:10402000224EB4687368013B0FD53568002D38D136
:10403000D6213800490000F0CBFB041E26D13060A9
:10404000FFF7DCFF0C233B601CE00C22A55E002D7B
:104050001AD12000164B5830E360656600F02DFB46
:10406000FFF7CCFF2000082229002560A5606560CD
:1040700025616561A5615C30FFF73CFC6563A56364
:10408000A564E5642000F8BD6834CCE70423D022A1
:10409000056043600C302900A0605200FFF72AFC45
:1040A00034603668BDE7C0460C030020580000208D
:1040B0000100FFFF10B50400FFF798FF236A002BF3
:1040C00002D0FFF79BFF10BD044B2362044B1B681B
:1040D000002BF6D1FFF76CFFF3E7C046453F000821
:1040E0000C03002010B5FFF781FF0020024A0349AE
:1040F00000F06EF910BDC04658000020813F000856
:1041000010B5044A0449002000F062F9FFF776FF79
:1041100010BDC04658000020993F0008F0B59368D4
:1041200087B00C0002900492002B02D1002007B04F
:10413000F0BD8B891B0756D50B69002B53D0049B10
:104140001B6801930C22A35E02221E00164013423C
:104150006FD1012201211A400B4200D1A2E03000B0
:1041600037000396002F00D10AE100280AD13A0057
:104170000A21039800F0ACFA7E1C002802D0039BB1
:104180000130C61A0596BE4200D9059720682269FB
:10419000A5686369904200D8FBE0059AED18AA4231
:1041A00000DCF6E003992A0000F026FA23682100DB
:1041B0005B190298236000F051FC00286DD10120AA
:1041C000761B05D12100029800F048FC002864D13C
:1041D000039B049A5B190393049B7F1B9B685B1BE7
:1041E0009360BFD1A2E72100029800F0A7F9002850
:1041F000A5D0012040429AE7019B1E685D68083304
:104200000193A76A216A002DF6D06E4A2B009542D1
:1042100000D9130032000298B84700283DDD049B06
:10422000049A9B6836181B1A2D1A9360002BE8D14C
:104230007CE700263500E4E7019B1B680393019BA4
:104240005D68083301930C22A35E2068A668002DE8
:10425000F2D080229200134262D0AE4237D8902230
:10426000D200134233D02169421A032005926269B9
:104270004243D70FBF18059A7F1001325219BA4234
:1042800000D917005B053CD53900029800F0A0FA70
:10429000061E0AD10C23029A13604023A2891343FD
:1042A000A381A6E715000392CDE7059A216900F0E6
:1042B0001AFAA289444B1A4080231343A381059B19
:1042C0002661F61826602E006761FF1AA7602F008E
:1042D000AE4200D92E0032000399206800F08CF91C
:1042E000A3689B1BA36023689B192360039B049A0C
:1042F000DB190393049BED1B9B68DB1B9360A2D12E
:1043000014E73A00029800F0F3FA061ED7D12169AB
:10431000029800F0F1F98022A3899343A381B9E7C1
:104320002369834202D36769AF4216D9AE4200D9EE
:104330002E003200039900F05FF9A36822689B1BEE
:1043400092193700A3602260002BCFD12100029880
:1043500000F084FB0028C9D09FE7802328001B06BB
:104360009D4200D319483900FDF786FC3B00A66A40
:104370004343039A216A0298B047071EB6DC8CE7D4
:10438000019B00201B680393019B5F680833019326
:10439000E8E6059A934208DCA56A039A216A029826
:1043A000A847051E00DD0AE777E7059A039900F0A4
:1043B00023F9059AA36815009B1AA36023689B182C
:1043C0002360FCE600FCFF7F7FFBFFFFFFFFFF7F1A
:1043D000F7B51400002600900191A5686768013FB9
:1043E00004D52468002CF8D13000FEBDAB89012B28
:1043F00008D90E22AB5E013304D029000098019B3E
:10440000984706436835EAE770B50C000E25495F0A
:1044100000F02AF9002803DB636D1B18636570BD8B
:10442000A389024A1340A381F9E7C046FFEFFFFFCB
:1044300000207047F8B51F008B8905000C0016009E
:10444000DB0505D50E23C95E0022022300F0F8F833
:10445000A389054A28001340A38132000E23E15EA0
:104460003B0000F015F9F8BDFFEFFFFF70B50C0041
:104470000E25495F00F0E4F8A389421C03D1054AE8
:104480001340A38170BD802252011343A381606554
:10449000F8E7C046FFEFFFFF10B50E23C95E00F03E
:1044A000BDF810BDF8B506000D001400002804D0BA
:1044B000036A002B01D1FFF7FDFDA369A360A38967
:1044C0001B0702D52369002B09D12100300000F021
:1044D00035F8002803D001256D422800F8BD236976
:1044E0002068EFB2C01A6369EDB2834205DC210097
:1044F000300000F0B3FA0028EDD1A3680130013B91
:10450000A36023685A1C22601F706369834204D031
:10451000A389DB07E1D50A2DDFD12100300000F0AF
:104520009DFA0028D9D0D6E710B5034B0A00010048
:104530001868FFF7B7FF10BD080000202D4B70B5BD
:10454000050018680C00002804D0036A002B01D174
:10455000FFF7B0FD0C22A35E1A0723D4DA0607D4B6
:1045600009222A60402201201343A38140423AE0FD
:104570005B0713D5616B002908D0230044339942AF
:1045800002D0280000F0B8F8002363632422A38936
:104590009343A38100236360236923600823A289D6
:1045A0001343A3812369002B0BD1A0218022A3896F
:1045B000890092000B40934203D02100280000F0B4
:1045C000BBFA0C22A35E01211A000A400B420BD059
:1045D0000022A26062695242A261002022698242E6
:1045E00001D11A06BED470BD990700D46269A260D9
:1045F000F3E7C0460800002010B5884202D98B18A6
:10460000984208D300239A4207D0CC5CC4540133AB
:10461000F9E78B5C8354013AFBD210BD002370B5DF
:10462000064D040008002B60FDF7DDF9431C03D1A3
:104630002B68002B00D0236070BDC046D001002045
:1046400070B50400080011001A000023054D2B600E
:10465000FDF724FA431C03D12B68002B00D0236004
:1046600070BDC046D001002070B5040008001100E4
:104670001A000023054D2B60FDF798FA431C03D167
:104680002B68002B00D0236070BDC046D0010020F5
:1046900070B50400080011001A000023054D2B60BE
:1046A000FDF7C0FA431C03D12B68002B00D0236018
:1046B00070BDC046D00100207047704770477047FA
:1046C000704770470120704701207047704770475E
:1046D000C9B28218904201D10020704703788B4202
:1046E000FBD00130F6E7002310B59A4200D110BD8F
:1046F000CC5CC4540133F8E770B505000C1E10D033
:10470000043C2368002B00DAE418280000F0E0F8ED
:104710001D4A1368002B05D163601460280000F067
:10472000DFF870BDA34208D9206821188B42F3D16D
:1047300019685B6809182160EEE71A005B68002BB6
:1047400001D0A342F9D911685018A0420BD12068BA
:104750000918501811608342E0D118685B6841184D
:1047600011605360DAE7A04202D90C232B60D5E731
:10477000206821188B4203D119685B6809182160F1
:1047800063605460CAE7C0461C03002070B50F4E3A
:104790000D0031680400002902D100F033FA3060C6
:1047A0002900200000F02EFA431C03D101256D42A0
:1047B000280070BD0323C51C9D43A842F8D0291AC8
:1047C000200000F01FFA0130F2D1EFE718030020BB
:1047D000F7B50322CB1C9343083305001F000C2BB5
:1047E00034D20C27B94233D8280000F071F8374E84
:1047F00033681C00002C2FD139002800FFF7C6FFBA
:104800000400431C5FD134680094009B002B4AD104
:10481000002C52D023682800E3180099019300F07F
:10482000F1F9019B834248D123682800FF1A39001F
:10483000FFF7ACFF013040D02368DB1923603368F9
:104840005A68002A33D1009B336019E0002BC9DA83
:104850000C232B600020FEBD2168C91B20D40B292E
:104860000AD9E2192760A34204D13260636811605B
:10487000536005E05A60F9E76268A3420ED13260E6
:10488000280000F02DF8200007220B30231D904354
:10489000C21A9842DFD01B1AA350DCE75A60EFE738
:1048A00023006468A6E7009C63680093ADE71A00E4
:1048B0005B68A342FBD10023DAE70C2328002B60BE
:1048C00000F00EF8C6E70760DAE7C0461C030020D8
:1048D00010B50248FFF7F5FE10BDC04614030020D6
:1048E00010B50248FFF7F3FE10BDC04614030020C8
:1048F000F7B506000C001500002905D11100FFF7DF
:1049000067FF04002000FEBD002A03D1FFF7F4FE7C
:104910002C00F7E700F088F90700854202D8430829
:10492000AB42EFD329003000FFF752FF019000287F
:1049300001D1019CE6E72A00BD4200D93A002100DE
:104940000198FFF7D0FE21003000FFF7D5FEF0E719
:10495000F7B50C228B5E05000C001A0756D44A6886
:10496000002A02DC0A6C002A4EDDE76A002F4BD0D9
:10497000002280202E682A601A004001216A02402D
:10498000034233D0626DA3895B0706D56368D21AF0
:10499000636B002B01D0236CD21A00232800E76A36
:1049A000216AB847A289431C06D129681D2946D827
:1049B000294BCB40DB0742D500236360236923608A
:1049C000D20405D5431C02D12B68002B00D16065B1
:1049D000616B2E60002917D023004433994202D026
:1049E0002800FFF789FE002363630DE00123280000
:1049F000B8470200431CC6D12B68002BC3D01D2B27
:104A000001D0162B1AD12E6000201EE00E69002E58
:104A1000FAD00F680E60BA1B019200229B0700D1EA
:104A20004A69A260019B002BEEDDA36A32001F00E1
:104A30002800019B216AB847002807DCA28940238F
:104A4000012013431BB2A3814042FEBD019B3618D7
:104A50001B1A0193E6E7C046010040200B6970B5C0
:104A600005000C00002B02D10025280070BD002895
:104A700004D0036A002B01D1FFF71CFB0C22A35EBC
:104A8000002BF1D0626ED20704D49B0502D4A06D36
:104A9000FFF717FE28002100FFF75AFF636E05009D
:104AA000DB07E2D4A3899B05DFD4A06DFFF70FFEDF
:104AB000DBE70000010010B5002805D1054A0649D2
:104AC0000648FFF785FC10BD054B1868FFF7C6FFC9
:104AD000F9E7C046580000205D4A00080C0000209D
:104AE0000800002070B50E001D000E23C95E1400E2
:104AF00096B000290CDAB2898023110019401A42BD
:104B000014D18023DB0000202960236016B070BD23
:104B10006A4600F053F80028EDDBF02301991B02F0
:104B20001940044BC9184B425941EAE70021402380
:104B3000E9E7C04600E0FFFFF0B502268B890500DB
:104B40000C0085B0334207D0230047332360236134
:104B50000123636105B0F0BD03AB02AAFFF7C2FFFA
:104B6000029F019039002800FFF732FE002808D18B
:104B70000C22A35E9A05EDD4032293431E43A68123
:104B8000E2E78023A28920601343A381039B206175
:104B90006761002B0CD028000E23E15E00F020F8A6
:104BA000002805D00323A2899A43023B1343A38123
:104BB000A389019A1343A381CCE70000002370B5B9
:104BC000064D0400080011002B60FCF733FF431C66
:104BD00003D12B68002B00D0236070BDD0010020D2
:104BE000002370B5064D040008002B60FCF798FF09
:104BF000431C03D12B68002B00D0236070BDC0463E
:104C0000D0010020002370B5064D040008002B6081
:104C1000FCF79AFF431C03D12B68002B00D02360C4
:104C200070BDC046D00100200B1F1B68181F002B51
:104C300001DA0B58C018704703B4714649084000A8
:104C40004900095E49008E4403BC704700224308B6
:104C50008B4274D303098B425FD3030A8B4244D344
:104C6000030B8B4228D3030C8B420DD3FF22090286
:104C700012BA030C8B4202D31212090265D0030B45
:104C80008B4219D300E0090AC30B8B4201D3CB033B
:104C9000C01A5241830B8B4201D38B03C01A52417D
:104CA000430B8B4201D34B03C01A5241030B8B427F
:104CB00001D30B03C01A5241C30A8B4201D3CB026A
:104CC000C01A5241830A8B4201D38B02C01A52414F
:104CD000430A8B4201D34B02C01A5241030A8B4252
:104CE00001D30B02C01A5241CDD2C3098B4201D36A
:104CF000CB01C01A524183098B4201D38B01C01AE8
:104D0000524143098B4201D34B01C01A524103095E
:104D10008B4201D30B01C01A5241C3088B4201D30D
:104D2000CB00C01A524183088B4201D38B00C01ABA
:104D3000524143088B4201D34B00C01A5241411AE1
:104D400000D20146524110467047FFE701B50020EE
:104D5000FDF77CF802BDC0460029F7D076E7704722
:104D6000436F6D6D616E643A2025730052657370F8
:104D70006F6E73653A2025730000000030313233C6
:104D80003435363738394142434445460000000047
:104D900041542B44564944313335390D0A00000043
:104DA00041542B5645520D0A0000000041542B423D
:104DB0004155440D0A00000041542B524649440D10
:104DC0000A00000041542B445649440D0A000000DB
:104DD00041542B5246430D0A0000000041542B5011
:104DE0004F57450D0A00000041542B434C53530DBF
:104DF0000A0000001B5B324A1B5B313B314800005C
:104E00000D0A53544D33324C303531206D756C746E
:104E10006920492F4F206578616D706C652E0D0AF1
:104E2000000000004D6561737572657320746865DC
:104E300020766F6C746167652066726F6D204144E7
:104E400043206368616E6E656C73203820616E6408
:104E50002039202870696E7320313420616E6420FF
:104E60003135206F66204C514650333220706163DB
:104E70006B616765290D0A004D6561737572657315
:104E800020706572696F64206F6E20504138202851
:104E900070696E203138206F66204C514650333295
:104EA000207061636B616765290D0A00546F676745
:104EB0006C6573205042332C205042342C205042D9
:104EC000352C205042362C20504237202870696EF5
:104ED000732032362C2032372C2032382C203239B5
:104EE0002C203330206F66204C51465033322070D6
:104EF00061636B616765290D0A00000047656E6597
:104F0000726174657320736572766F2050574D73AC
:104F1000206F6E205041302C205041312C205041C8
:104F2000322C20504133202870696E7320362C209B
:104F3000372C20382C2039206F66204C51465033B6
:104F400032207061636B616765290D0A0000000003
:104F500052656164732074686520707573682D6292
:104F60007574746F6E206F6E2070696E20504131C1
:104F700034202870696E203234206F66204C5146F0
:104F8000503332207061636B616765290D0A0D0A29
:104F9000000000004E4F205349474E414C20202036
:104FA0002020202020202020202020202020202001
:104FB00020200D00620A0008700A00087E0A00081E
:104FC0008C0A00089A0A00080D0A52657475726E00
:104FD00065642066726F6D206D61696E28292E20D0
:104FE0002053797374656D2073746F702E00000008
:104FF000496E7465727275707420776974686F7524
:10500000742068616E646C65722028495352292EA1
:10501000202053797374656D2073746F702E0000B7
:1050200048617264204661756C7420696E746572A3
:10503000727570742E202053797374656D207374AB
:105040006F702E008023000866220008902200085E
:10505000F6220008902200082A2300089022000867
:10506000F622000866220008662200082A230008AB
:10507000F62200087C2200087C2200087C2200081E
:1050800034230008662200086622000890220008E7
:10509000B8230008902200082A2300089022000864
:1050A000B823000866220008662200082A230008A8
:1050B000B82300087C2200087C2200087C2200081B
:1050C000232D302B2000686C4C00656667454647F1
:1050D0000030313233343536373839414243444574
:1050E00046003031323334353637383961626364E3
:0450F00065660000F1
:1050F400644B3219C80100200C000020000000009D
:10510400D40100203C020020A40200200000000082
:10511400000000000000000000000000000000008B
:10512400000000000000000000000000000000007B
:10513400000000000000000000000000000000006B
:105144000000000000000000000000000300000058
:04515400D401002062
:04000005080000B936
:00000001FF
