:100000000200037581B3120177E582600302006F7D
:10001000780079007A007B007C007D00EC4D601C4C
:1000200088828983E493A3A882A9838A828B83F040
:10003000A3AA82AB831CBCFFE31D80E07582007520
:1000400083007C147D00EC4D600AE4F0A31CBCFF2F
:10005000F51D80F27582007583007C007D00EC4DFB
:10006000600AE4F0A31CBCFFF51D80F212017112BE
:10007000112480FE496E697469616C697A65642037
:100080004144432061742050696E2025645F2564DB
:100090000A00436F6D6D616E643A202573005265EE
:1000A00073706F6E73653A2025730D0A0025640026
:1000B0000A000A0A2D2D2D2D2050726573732061C0
:1000C0006E6420486F6C6420626F7468204A6F7998
:1000D000737469636B7320746F2043616C6962721F
:1000E000617465202D2D2D2D0A0041542B42415560
:1000F000440D0A0041542B524649440D0A00415414
:100100002B44564944413043340D0A0041542B528C
:1001100046430D0A0041542B504F57450D0A0041EC
:10012000542B434C53530D0A0041542B5645520D4A
:100130000A000A0A2D2D2D2D20434F4E54524F4CAC
:100140004C455220534554555020434F4D504C453B
:100150005445202D2D2D2D0A002533642C25336484
:10016000204320540A003C4E4F20464C4F41543E01
:1001700000E4F54BF54C2275A7007597DE7597AD39
:1001800075FF8075EF0675A71075C12075A70075FE
:10019000A90075A900E5A930E7FB75A90375A903B6
:1001A000E5A930E7FB43A411439C0875E10175E222
:1001B0000075E341759810758DE6858D8B53890F19
:1001C000438920D28ED29975A71075980043A60155
:1001D00075A26075A37375A4FF75A5FF43F304D2E0
:1001E0009A75A700D2AF7582002275A700C2EF757D
:1001F000B28075BC2075B91E75E80075DF3F75B318
:1002000000D2EF22AA828522F005F0740180022537
:10021000E0D5F0FBFB75A720BA0002800ABA010204
:10022000800FBA021E8014EBF4FC52F1EB42D48032
:1002300012EBF4FC52F2EB42D58008EBF4FC52F3E3
:10024000EB42CC75A700AB227C007D00C003C0044C
:10025000C002C0057474C0E07400C0E07480C0E0E7
:10026000121631E58124F9F581228582BBC2EDD2D7
:10027000EC30EDFD85BD8285BE832212026A121428
:1002800054AA82AB83ACF0FDC002C003C004C00519
:10029000906C8B75F05374401214F4AA82AB83AC4B
:1002A000F0FDE58124FCF581E4C0E074FCC0E0745D
:1002B0007FC0E07446C0E08A828B838CF0ED121719
:1002C00063AA82AB83ACF0FDE58124FCF5818A82D0
:1002D0008B838CF0ED22AA82438E407592B8759381
:1002E000FF8592948593957591047B00C3EB9A509A
:1002F0000BE59130E7FB53917F0B80F07591002265
:10030000AA82AB837C007D00C3EC9AED9B502B7ED0
:1003100000BE0400501D7582FAC002C003C004C0B4
:1003200005C0061202D6D006D005D004D003D002F4
:100330000E80DE0CBC00D10D80CE22AA82AB83AC35
:10034000F0FD75A72075930C75C8107594008A117F
:100350008B128C138D1490A20075F04A7404121342
:10036000EFAA82AB83ACF0FD751118E4F512F5131A
:10037000F5148A828B838CF0ED1213EFAA82AB8383
:10038000ACF0FDE4C39AFAE49BFB74019CE49D8A03
:10039000958B96D2C943944075A70022AA8275A76F
:1003A0002010C90280FB8A9275A70022AA82AB8323
:1003B000ACF08A828B838CF01213D3FD60188D828F
:1003C000C002C003C00412039CD004D003D0020AB0
:1003D000BA00DF0B80DC22AA82AB83ACF08A828B6E
:1003E000838CF01213D3FD601CBD0A01228D82C0E4
:1003F00002C003C00412039CD004D003D0020ABA86
:1004000000DB0B80D82275A72010C80280FB53C8E0
:100410003F85928275A7002275A7207A007B002075
:10042000C82675A700758214C002C0031202D6D078
:1004300003D00275A7200ABA00010BBAA8E1BB617C
:10044000DE75A70075820A22C2C853C83F85928212
:1004500075A70022AA82AB83ACF0C002C003C0041F
:10046000120418AD82D004D003D002BD0A0A8A82D9
:100470008B838CF0E40216658A828B838CF0ED12FC
:100480001665A3AA82AB8380D175A720A2C875A7E1
:100490000022AA82AB837C007D00C3EC9AED9B50C6
:1004A000477E00BE04005039C002C003C004C0052E
:1004B000C006120489E433D006D005D004D003D09E
:1004C000026001227582FAC002C003C004C005C0E8
:1004D000061202D6D006D005D004D003D0020E807A
:1004E000C20CBC00B50D80B222AA82AB83ACF0C0B6
:1004F00002C003C004C002C003C0047492C0E07410
:1005000000C0E07480C0E0121631E58124FAF58164
:10051000C2B3900005120300D004D003D0028A8237
:100520008B838CF01203AC90000075F00012045421
:1005300090000A120300D2B37400C0E07400C0E05F
:10054000E4C0E0749EC0E07400C0E07480C0E012BB
:100550001631E58124FAF58122AA82AB837C80EBF7
:1005600030E7027CA08A828B83C004121597E58253
:100570008583F0D004541FFA7B00ECFD3395E0FE38
:10058000ED4202EE42038A048C8222AA82AB83AC43
:10059000F0FDC002C003C004C005C002C003C00417
:1005A000C00590333375F0D3743F1214C4AE82E5A6
:1005B0008124FCF581D005D004D003D002EE607414
:1005C0007433C0E0C0E074D3C0E0743FC0E08A82FE
:1005D0008B838CF0ED12174BAE82AF83A8F0F9E558
:1005E0008124FCF5817433C0E0C0E074D3C0E074B2
:1005F0003FC0E08E828F8388F0E9121763AE82AF2E
:1006000083A8F0F9E58124FCF581C006C007C0008D
:10061000C00190000075F0A074411214F4AE82AFD6
:1006200083A8F0F9E58124FCF5818E828F8388F020
:10063000E9021490C002C003C004C005C002C00398
:10064000C004C00590333375F0D3743F121460AE0C
:1006500082E58124FCF581D005D004D003D002EEE0
:10066000606F7433C0E0C0E074D3C0E0743FC0E09A
:100670008A828B838CF0ED121763AA82AB83ACF075
:10068000FDE58124FCF581C002C003C004C00590D3
:10069000000075F080743F12174BAA82AB83ACF058
:1006A000FDE58124FCF581C002C003C004C00590B3
:1006B000000075F0A074C11214F4AA82AB83ACF0F0
:1006C000FDE58124FCF5818A828B838CF0ED021498
:1006D0009090000022AA82AB83ACF0FDEA4B4C8DD7
:1006E000F0C2F745F060047582002275820122AAEB
:1006F00082AB83ACF0E5234524702DE525452670BB
:10070000278A828B838CF0E4121665A3E4121665A7
:1007100074022AFDE43BFE8C078D828E838FF0E409
:10072000121665A3E4021665E52633E433FD600383
:10073000020939C3E49523E464808524F063F080E2
:1007400095F04003020830C3E5239525E524648035
:100750008526F063F08095F0504A8A828B838CF076
:10076000E525121665A3E52612166574022AF527FB
:10077000E43BF5288C29751102E4F5128523828566
:10078000248312167EA982AE83E525C399F9E52656
:100790009EFE8527828528838529F0E9121665A3A8
:1007A000EE021665E525B52346E526B524418A8285
:1007B0008B838CF0E525121665A3E5261216657469
:1007C000022AF527E43BF5288C29751102E4F5127D
:1007D00085258285268312167EA982AE838527828F
:1007E0008528838529F0E9121665A3EE0216658A2D
:1007F000828B838CF0E523121665A3E5241216651F
:1008000074022AF527E43BF5288C29751102E4F5DA
:100810001285258285268312167EA982AE838527BE
:10082000828528838529F0E9121665A3EE021665F4
:10083000C3E49523F523E49524F524C3E523952506
:10084000E52464808526F063F08095F050517511A1
:1008500002E4F512852382852483C002C003C0040C
:1008600012167EAE82AF83D004D003D002E525C33A
:100870009EFEE5269FFF8A828B838CF0EE12166522
:10088000A3EF12166574022AFEE43BFF8C008E82F1
:100890008F8388F0E525121665A3E526021665E527
:1008A00025B5234DE526B52448751102E4F51285DA
:1008B0002582852683C002C003C00412167EAE8244
:1008C000AF83D004D003D0028A828B838CF0EE12E7
:1008D0001665A3EF12166574022AFEE43BFF8C0036
:1008E0008E828F8388F0E525121665A3E526021611
:1008F00065751102E4F512852582852683C002C044
:1009000003C00412167EAE82AF83D004D003D0029F
:100910008A828B838CF0EE121665A3EF1216657433
:10092000022AFEE43BFF8C008E828F8388F0E52351
:10093000121665A3E524021665ED7003020A2AC3A8
:10094000E52594F8E5266480947F5003020A2AC3C3
:10095000E49523E464808524F063F08095F0505B97
:10096000852582852683A3A3A3A38523118524122D
:10097000C002C003C0041215A6AD82AE8375110477
:10098000E4F5128D828E8312167EAD82AE83D00482
:10099000D003D0028A828B838CF0ED121665A3EE11
:1009A00012166574022AFDE43BFE8C078D828E834D
:1009B0008FF0E4121665A3E40216658A828B838C9D
:1009C000F0E4121665A3E412166574022AFDE43BF6
:1009D000FE8C0774042525F8E43526F985238285E5
:1009E0002483C005C006C007C000C001121597854A
:1009F0008211858312D001D000888289831215A6C6
:100A0000A882A983751104E4F512888289831216DD
:100A10007EA882A983D007D006D0058D828E838FD1
:100A2000F0E8121665A3E9021665C3E49523E464B1
:100A3000808524F063F08095F04003020B40C3E40E
:100A40009525FDE49526FEC3E5239DE52464808E6F
:100A5000F063F08095F050498A828B838CF0E52515
:100A6000121665A3E52612166574022AF527E43BE3
:100A7000F5288C29751102E4F512852382852483DB
:100A800012167EAF82A883EF2525FFE83526F8856C
:100A900027828528838529F0EF121665A3E80216C0
:100AA00065EDB5234CEEB524488A828B838CF0E546
:100AB00025121665A3E52612166574022AFDE43B8D
:100AC000FE8C07751102E4F512852582852683C008
:100AD00005C006C00712167EA882A983D007D006DB
:100AE000D0058D828E838FF0E8121665A3E9021679
:100AF00065C3E49523FDE49524FE8A828B838CF004
:100B0000ED121665A3EE12166574022AFDE43BFE93
:100B10008C07751102E4F512852582852683C005B0
:100B2000C006C00712167EA882A983D007D006D0BF
:100B3000058D828E838FF0E8121665A3E902166593
:100B4000C3E5259523E52664808524F063F0809530
:100B5000F05051751102E4F512852382852483C07B
:100B600002C003C00412167EAD82AE83D004D0034F
:100B7000D002E525C39DFDE5269EFE8A828B838CEF
:100B8000F0ED121665A3EE12166574022AFDE43B21
:100B9000FE8C078D828E838FF0E525121665A3E506
:100BA00026021665E525B5234DE526B524487511C1
:100BB00002E4F512852582852683C002C003C004A5
:100BC00012167EAD82AE83D004D003D0028A828B0F
:100BD000838CF0ED121665A3EE12166574022AFDE1
:100BE000E43BFE8C078D828E838FF0E5251216651F
:100BF000A3E526021665751102E4F51285258285A6
:100C00002683C002C003C00412167EAD82AE83D01C
:100C100004D003D0028A828B838CF0ED121665A378
:100C2000EE12166574022AFAE43BFB8A828B838CEF
:100C3000F0E523121665A3E524021665AA82AB83AC
:100C4000ACF0E511121665A3E51212166574022ABE
:100C5000FAE43BFB8A828B838CF0E513121665A3C2
:100C6000E51402166585823485833585F036852A3C
:100C700039852B3A852C3B853982853A83853BF033
:100C80001213D3F537A31213D3F538C030C031C0D7
:100C900032C03390000075F080743F12174BAA8267
:100CA000AB83ACF0F8E58124FCF58185378285388B
:100CB00083C002C003C004C000121756A982AD83CE
:100CC000AEF0FFD000D004D003D002C002C003C0F9
:100CD00004C000C002C003C004C00089828D838E9E
:100CE000F0EF1214F485823C85833D85F03EF53F9C
:100CF000E58124FCF581852D40852E41852F428597
:100D000040828541838542F01213D3F9A31213D395
:100D1000FD89828D83121756AD82AE83AFF0F9C084
:100D200030C031C032C0338D828E838FF0E912140F
:100D3000F4AD82AE83AFF0F9E58124FCF581C00506
:100D4000C006C007C001853C82853D83853EF0E535
:100D50003F1215C3AD82AE83AFF0F9E58124FCF5F7
:100D6000818D828E838FF0E9121490AD82AE8385DF
:100D700034828535838536F0ED121665A3EE1216A2
:100D80006574022534F53CE43535F53D85363E7411
:100D9000022539F9E4353AFDAE3B89828D838EF028
:100DA0001213D3F9A31213D3FD89828D8312175620
:100DB0001214F4AA82AB83ACF0FDE58124FCF5812A
:100DC00074022540FEE43541FFA8428E828F83885D
:100DD000F01213D3FEA31213D3FF8E828F83C002AF
:100DE000C003C004C005121756AE82AF83A8F0F945
:100DF000C030C031C032C0338E828F8388F0E91298
:100E000014F4AE82AF83A8F0F9E58124FCF581D01B
:100E100005D004D003D002C006C007C000C0018ABC
:100E2000828B838CF0ED1215C3AA82AB83ACF0FDEC
:100E3000E58124FCF5818A828B838CF0ED1214907D
:100E4000AA82AB83853C82853D83853EF0EA1216FB
:100E500065A3EB02166575821312027BAA82AB832F
:100E6000ACF0FD75820EC002C003C004C0051202C2
:100E70007BAE82AF83A8F0F9D005D004D003D002B6
:100E8000EA4B4C8DF0C2F745F0600BEE4F4889F00D
:100E9000C2F745F070269007D0C002C003C004C05E
:100EA00005C006C007C000C001120300D001D00079
:100EB000D007D006D005D004D003D002EA4B4C8D29
:100EC000F0C2F745F0600EEE4F4889F0C2F745F0EA
:100ED0006003020E5675821312027BAA82AB83ACAA
:100EE000F0FDEA4B4C8DF0C2F745F060E875820EDC
:100EF00012027BAA82AB83ACF0FDEA4B4C8DF0C2B0
:100F0000F745F060D022D2A07582281202D6C2A086
:100F100022AA828AE0A2E79290A2E69291A2E592AA
:100F200092A2E49293C002120F067582281202D692
:100F3000D0028AE0A2E39290A2E29291A2E1929280
:100F4000A2E09293020F06AA82D2978A82120F1110
:100F5000900002020300AA82C2978A82120F1190A7
:100F60000005020300C2A090001412030075823332
:100F7000120F56758233120F56758232120F567544
:100F80008228120F5675820C120F56758201120FAD
:100F900056900014020300AA82AB83ACF07402B531
:100FA00043047DC080027D808D82C002C003C004E6
:100FB000120F56900005120300D004D003D0027D1A
:100FC000007E00ED2AFFEE3BF88C018F828883893A
:100FD000F01213D3FF60208F82C002C003C004C090
:100FE00005C006120F47D006D005D004D003D002AA
:100FF0000DBD00CF0E80CC3000248D028E03C3EADD
:101000009410EB648094805015758220C002C00358
:10101000120F47D003D0020ABA00E30B80E022850A
:10102000824685834785F048E4F549F54AE544243E
:10103000FFFFE54534FFF879007A00C3E99FEA64D1
:101040008088F063F08095F05059C002C007C0005E
:10105000C001121652AB82D001D000D007D002BB23
:101060000A028003BB0D1DE5492546FCE54A3547CC
:10107000FDAE488C828D838EF0E412166585498220
:10108000854A8322E92546FCEA3547FDAE488C8235
:101090008D838EF0EB12166509B900010A89498A21
:1010A0004A8098E5492546FAE54A3547FBAC488A27
:1010B000828B838CF0E412166585448285458322F9
:1010C000AA827B077C00EC20E7448BF005F0EA3332
:1010D00092D2EA8003A2D213D5F0FA5401FD3395DF
:1010E000E0FEC002C003C004C005C00674ADC0E08D
:1010F0007400C0E07480C0E0121631E58124FBF575
:1011000081D004D003D0021BBBFF011C80B874B097
:10111000C0E07400C0E07480C0E012163115811583
:10112000811581229001F4120300902580E4F5F0EE
:1011300012033B75220175820212020475220275A8
:1011400082021202047522037582021202047522C1
:1011500004758202120204752205758202120204CD
:101160007522067582021202041201EA120F6574DA
:10117000B2C0E07400C0E07480C0E0121631158186
:1011800015811581120E569000C81203009000EAD6
:1011900075F0801204E99000EA75F0801204E9907D
:1011A00000F475F0801204E99000FE75F0801204DE
:1011B000E990010C75F0801204E990011575F0803A
:1011C0001204E990011F75F0801204E9900129755D
:1011D000F0801204E97432C0E07401C0E07480C091
:1011E000E012163115811581158175821312027B6B
:1011F00085825D85835E85F05FF5607582121202DF
:101200007B85825585835685F057F5587582111276
:10121000027B85825985835A85F05BF55C75820E69
:1012200012027B85825185835285F053F554758275
:101230000F12027B85824D85834E85F04FF55075E8
:10124000821012027BAE82AF83AAF0FB85558285A5
:1012500056838557F0E558C002C003C006C0071288
:10126000058B858261858362855982855A83855B7A
:10127000F0E55C12058B858263858364854D8285EC
:101280004E83854FF0E55012058BAC82AD83D007BD
:10129000D006D003D0028E828F838AF0EBC004C0C8
:1012A0000512058BAA82AB83D005D004855D8285AB
:1012B0005E83855FF0E560C002C003C004C0051214
:1012C00006D58551828552838553F0E5541206D5A3
:1012D0008561238562248563258564269000A27537
:1012E000F0401206EFD005D004D003D0028C238D3D
:1012F000248A258B269000A675F0401206EF752AE9
:10130000A2752B00752C40752DA6752E00752F40EB
:101310007530CD7531CC75324C75333E9000AA7561
:10132000F040120C6578AC860208860378AA860421
:10133000088605C002C003C004C0057459C0E0742B
:1013400001C0E07480C0E0747AC0E07400C0E07452
:1013500040C0E0121705E58124F6F581747AC0E0FB
:101360007400C0E07440C0E012163115811581157B
:1013700081740DC0E0E4C0E0C0E0121631158115A3
:1013800081158190007A75F0401203AC7A007B00E1
:10139000C002C003120489D003D0024022758264C7
:1013A000C002C0031202D6D003D0020ABA00010B59
:1013B000C374E89A74838BF063F08095F050D11277
:1013C000048940030211EA90008E75F04012045423
:1013D0000211EA20F71430F6148883A88220F5075A
:1013E000E6A88375830022E280F7E49322E022FBE3
:1013F0007A20E4FCFDFEFFE5822582F582E5833359
:10140000F583E5F033F5F0EB33FB4017DAE9804282
:10141000E5822582F582E58333F583E5F033F5F047
:10142000EB33FBEC33FCED33FDEE33FEEF33FFEC3F
:101430009511ED9512EE9513EF95144013EC95115F
:10144000FCED9512FDEE9513FEEF9514FF4382011E
:10145000DABEEB22E4AC83AB82FAF9748E0218B4E4
:10146000FFA88118181218DCD2D133E6400730E704
:101470000B7582012220E70675820022C2D1121864
:10148000BEE97003F5822230D101B3E433F5822244
:10149000121907700AE582458345F0700122E43095
:1014A000D112F4700BE5F0F47006E58330E7012209
:1014B00090800022700AE5F07006E58320E70122A3
:1014C000907FFF22FFA88118181218DCD2D133E6D2
:1014D000400730E70B7582002220E7067582012263
:1014E000C2D11218BEE97003F5822220D101B3E403
:1014F00033F582221219E4BC0003021983EF60FA6B
:1015000030D502B2D1E583B4FF03021999E582B464
:10151000FF03021999258340072482400B02198397
:101520002483145003021999F582EA8DF0A4A8F0DF
:10153000EA8EF0A428F8E435F0F9EB8DF0A428E960
:1015400035F0F9E433CA8FF0A429F9EA35F0FAEB63
:10155000F88EF0A429F9EA35F0FAE433FBEC8DF0CB
:10156000A429F9EA35F0FAE43BFBE88FF0A42AFA63
:10157000EB35F0FBE433CCFD8EF0A42AFAEB35F02A
:10158000FBE43CFCED8FF0A42BFBEC35F0FC20E7FA
:10159000031219B1021962E58330E709F4F583E516
:1015A00082F4F582A322E5828511F0A4C582C0F001
:1015B0008512F0A4D0F025F0C5838511F0A4258311
:1015C000F583221219E47900E583B58202800D507B
:1015D00003121A12E583C39582121A2CE5D0C46552
:1015E000D020E117EA2DFAEB3EFBEC3FFC500974EA
:1015F00001121A2CEC4480FC021962C3EA9DFAEB3A
:101600009EFBEC9FFC500FC3E499F9E49AFAE49B2B
:10161000FBE49CFCB2D11219B102196202208F8541
:10162000827385837485F07585107690161C021A76
:10163000F8C008858108E50824FBF576E50824FB59
:10164000F8867308867408867590161C121AF8D0EE
:10165000082210980280FBAA998A82C00212208F69
:10166000D0028A822220F71030F6118883A88220C7
:10167000F507F6A88375830022F280F7F022C2D521
:10168000E58330E70DD2D5E4C39582F582E49583F6
:10169000F583E51230E70DB2D5E4C39511F511E4F9
:1016A0009512F51212188230D50BE4C39582F5829B
:1016B000E49583F58322AA82AB09AC0AAD0B8B8239
:1016C0008C838DF0EA1216650509E4B50902050A56
:1016D0002285820985830A85F00B850C73850D743C
:1016E000850E75850F769016B6121AF8AA82AB830E
:1016F000AC09AD0AAE0B8C828D838EF0E4121665B8
:101700008A828B8322C008858108E50824F8F57653
:10171000E50824FBF8860908860A08860BE50824F4
:10172000F8F886730886740886759016B6121AF84B
:10173000AA82AB83AC09AD0AAE0B8C828D838EF08E
:10174000E41216658A828B83D00822A8811818C6F5
:10175000B2E7C60215C3AC83AB827A007900748EFF
:101760000220AD1219E430D502B2D1BF0009BC008D
:10177000030219A6021999BC0003021983E583B478
:10178000FF0BE582B4FF030219A6021983E582B4B8
:10179000FF03021999C395835007247F400B021958
:1017A000832480145003021999C0E0E4CCCBCAF919
:1017B0008D118E128F13EF54F0C4F51475830685C6
:1017C00014F0EB84F582E9C4F9EAC4FAEBC4FBEC4B
:1017D000540FC47803D6FC18EBD6FB18EAD6FA856A
:1017E00082F0EDA4A8F0FD8582F0EEA428FEE43599
:1017F000F0F88582F0EFA428FFE435F0F8E99DF9D0
:10180000EA9EFAEB9FFBEC98FCAD11AE12AF1330E1
:10181000E7101582E92DF9EA3EFAEB3FFBE43CFCC8
:1018200080EDC082D58398C3E933F9EA33FAEB330C
:10183000FBEC33FCC3E99DEA9EEB9FEC9400B3E420
:1018400013F9D002D0E0C44AFAD003D0E0C44BFB75
:10185000D004D0E0F5F0540FC44CFCD08215823097
:10186000F40FD3EC13FCEB13FBEA13FAE913F905BD
:1018700082E930E70A74012AFAE43BFBE43CFC020B
:10188000197A7A10E4FBFCE58225E0F582E58333E2
:10189000F583EB33FBEC33FCEB9511F5F0EC951293
:1018A0004006FCABF0438201DADD22FCABF0AA83F8
:1018B000A982749EC2D1F5821219B102196279010E
:1018C000AA82E68F82B5821318E6B5F00E18E6B547
:1018D000830918E68A82B58202790022B4800FE576
:1018E000F0700AE5837006E58270027F00EFB68033
:1018F0001518B6001018B6000B18B6000608080830
:10190000760022080808221220D1C3749E958240D6
:10191000397900121A2C30D126E9F42401F582EA33
:10192000F43400F583EBF43400F5F0ECF43400709B
:101930000AE582458345F0700122E430E70F22EC8E
:1019400020E71489828A838BF02230D10AE4F58261
:10195000F583F5F074802274FFF582F583F5F07459
:101960007F22B98003EA13B34010EA2401FAE43B72
:10197000FBE43CFC50047C800582BC000EBB000BE9
:10198000BA0008E4F5F0F583F58222A2D1E58213CE
:101990008CF092F78B838A8222E4F583F58275F0CE
:1019A00080F4A2D11322E4F583F58275F0C0747F30
:1019B000227804EC7011E58224F8500AF582E4C91B
:1019C000CACBFCD8EF22EC7820058220E713D58221
:1019D0000122C3E933F9EA33FAEB33FBEC33FCD8E9
:1019E000EA158222AA82AB83A2F73392D16002D297
:1019F000F7F582ACF0E58124F9F8E6FD08E6FE088B
:101A000086F008E6A2F73392D56002D2F7F583AFED
:101A1000F022E582C583F582A2D133A2D592D113FB
:101A200092D5ECCFFCEBCEFBEACDFA226040F82554
:101A300082500274FFF582E824F8501ECCCBCAF91C
:101A4000E4CC24F85014CBCAF9E4CB24F8500BCAE8
:101A5000F9E4CA24F8500379002224086010F8C37E
:101A6000EC13FCEB13FBEA13FAE913F9D8F122AA01
:101A7000827480C0E0741AC0E0C065C0668A8222A9
:101A8000056CE4B56C02056D22AA8274302AFA2432
:101A9000C6500A74072AFA3001034302208A8202E0
:101AA0001A6FE582FAC4540FF582C002121A89D067
:101AB00002740F5AF582021A89AA67AB68AC69AD45
:101AC0006AAE6B757220EE2EFEED235401FF4206C6
:101AD000EA2AFAEB33FBEC33FCED33FDC3EE956EF3
:101AE0004008EEC3956EFE430201D572D98A678B1A
:101AF000688C698D6A8E6B22858265858366E4F5C4
:101B00006CF56DAA73AB74AC758A828B838CF01202
:101B100013D3FD74012AF573E43BF5748C75EDFA6B
:101B20007003022088BA25028003022080C205C209
:101B300006C207C208C209C20AC20BC20CC202C254
:101B400003C204756E00756F007570FFAB73AC74E3
:101B5000AD758B828C838DF01213D3FAA3AB82AC5C
:101B6000838B738C748D75BA25078A82121A6F80E5
:101B7000928A06BE3000402E8A06EE24C6402774A4
:101B8000FFB57013E56F75F00AA4FEEA24D02EF5B8
:101B90006F70BFD20680BBE57075F00AA4FEEA2420
:101BA000D02EF57080ACBA2E0A74FFB570A4757093
:101BB00000809F8A06BE6100400E8A06EE248540A2
:101BC000075302DFD2018002C201BA20028075BA37
:101BD0002303021C53BA2A03021C58BA2B02805F4B
:101BE000BA2D028055BA4202805FBA4303021C9D9F
:101BF000BA4403021DD8BA4503021DF2BA460302D5
:101C00001DEEBA4703021DF6BA4903021DD8BA4CAD
:101C100002803BBA4E03021DFABA4F03021DDFBA1F
:101C20005003021D71BA5303021CC1BA5503021DB1
:101C3000E4BA5803021DE9021E24D205021B52D247
:101C400007021B52D208021B52D20A021B52D20BAD
:101C5000021B52D20C021B5274FFB57020300A0BCB
:101C6000E57614F88876866F021B52E57624FEF836
:101C700088768606088607188E6F021B52300A0B7C
:101C8000E57614F888768670021B52E57624FEF815
:101C900088768606088607188E70021B52300A0A5C
:101CA000E57614F888768602800FE57624FEF888BB
:101CB000768603088604188B028A82121A6F021E27
:101CC00029E57624FDF888768603088604088605CB
:101CD00018188B678C688D698B828C838DF012202D
:101CE000E3AB82AC838B7174FFB570038571702098
:101CF000051DC3E571956F5016E56FC39571F56FBE
:101D0000AB6F156FEB6008758220121A6F80F1853A
:101D100067828568838569F01213D3FBFA6029AB6B
:101D2000701570C3E464808BF063F08095F05018F8
:101D30008A82121A6FAB67AC68AD690BBB00010CED
:101D40008B678C688D6980C7200503021E29C3E557
:101D500071956F4003021E29E56FC39571F56FAB56
:101D60006F156FEB7003021E29758220121A6F80A7
:101D7000EEE57624FDF88876860308860408860555
:101D800018188B678C688D69E569FB30E7047A4326
:101D90008013EB546060047A50800AEB30E6047ADA
:101DA0004980027A588A82C002121A6F75823A12EA
:101DB0001A6F758230121A6F758278121A6FD002FC
:101DC000BA4902800BBA50028006856882121AA2B4
:101DD000856782121AA28051D209756E0A804A75EF
:101DE0006E088045756E0A8040756E10803BD20289
:101DF0008037D2038033D204802FE57624FDF88823
:101E000076860308860408860518188B678C688D0B
:101E1000698B828C838DF0E56C121665A3E56D12DB
:101E2000166580058A82121A6F200206200303308D
:101E3000045AE57624FCF88876860308860408862A
:101E4000050886061818188B678C688D698E6A7568
:101E500067667568017569808567778568788569C3
:101E60007974012577FEE43578FFAB798E678F684A
:101E70008B698577828578838579F01213D3FBFA95
:101E80007003021B038A82121A6F80CCE56E700306
:101E9000021B037BB3300A2BE57614F88876E6FC48
:101EA0003395E0FDFEFF8C678D688E698F6A20098F
:101EB0005EAC677D007E007F008C678D688E698FC9
:101EC0006A804C300B1FE57624FCF888768604087F
:101ED00086050886060886071818188C678D688E90
:101EE000698F6A802AE57624FEF88876860408865B
:101EF0000518ED3395E0FEFF8C678D688E698F6A5B
:101F000020090CAC67AD687E007F008E698F6A3057
:101F10000C43E56745684569456A60397408B56EE4
:101F20000C758230C003121A6FD00380287410B56C
:101F30006E23758230C003121A6FD00330010C7506
:101F40008278C003121A6FD003800A758258C003CA
:101F5000121A6FD003300925AC67AD68AE69E56A27
:101F6000FF30E717C3E49CFCE49DFDE49EFEE49F84
:101F7000FF8C678D688E698F6A8002C20975710057
:101F8000D20D8B00756B00C000121AB9D000200D65
:101F90000DE56BC4FCE6FD4CF61888038002A66BC9
:101FA0000571B20DE56745684569456A70D68803D5
:101FB000E56F7003756F0120061A200517E571049F
:101FC000FCC3956F500E758220C003121A6FD003A8
:101FD000156F80E930090E75822DC003121A6FD07B
:101FE00003156F8024E571602030070E75822BC0C9
:101FF00003121A6FD003156F800F30080C75822002
:10200000C003121A6FD003156F20051EAC6F156F39
:10201000C3E5719C50273006047C3080027C208C04
:1020200082C003121A6FD00380E2C3E571956F502E
:1020300009E56FC39571F56F8003756F008B00AB79
:10204000711571EB6022B20D200D0A08E6C4540F21
:10205000FB8B6B80078603740F5BF56B856B82C00F
:1020600000121A89D00080D7200503021B03AB6F32
:10207000156FEB7003021B03758220121A6F80EE3E
:102080008A82121A6F021B03856C82856D8322AAD5
:1020900082BA0A0810990280FB75990D1099028086
:1020A000FB8A9922FCABF0AA83A982749EF582C2B6
:1020B000D1EC30E716D2D1E9F42401F9EAF4340086
:1020C000FAEBF43400FBECF43400FC1219B1021901
:1020D00062AA82AB83A2F73392D16002D2F7F58273
:1020E000ACF022AA82AB83ACF07D007E008A828BAA
:1020F000838CF01213D3FFA3AA82AB83EF60070D8A
:10210000BD00EA0E80E78D828E8322000000000071
:00000001FF
