:10000000020003758178120128E582600302006F07
:10001000780079007A007B007C007D00EC4D601C4C
:1000200088828983E493A3A882A9838A828B83F040
:10003000A3AA82AB831CBCFFE31D80E07582007520
:1000400083007C007D00EC4D600AE4F0A31CBCFF43
:10005000F51D80F27582007583007C007D00EC4DFB
:10006000600AE4F0A31CBCFFF51D80F21201271208
:10007000047480FE436F6D6D616E643A20257300D9
:10008000526573706F6E73653A2025730D0A0025F3
:1000900064000A000D0A4A44592D343020746573F7
:1000A000740D0A0041542B44564944413043340DE9
:1000B0000A0041542B5645520D0A0041542B42412F
:1000C00055440D0A0041542B524649440D0A004143
:1000D000542B445649440D0A0041542B5246430DBB
:1000E0000A0041542B504F57450D0A0041542B43F1
:1000F0004C53530D0A00444556494345205345543B
:10010000555020434F4D504C4554450A0A00253365
:10011000642C2533640A002535640A003C4E4F20C8
:10012000464C4F41543E002275A7007597DE7597E7
:10013000AD75FF8075EF0675A71075C12075A70016
:1001400075A90075A900E5A930E7FB75A90375A994
:1001500003E5A930E7FB43A41143A60175E101754E
:10016000E20075E341759810758DE6858D8B538996
:100170000F438920D28ED29975820022AA82438EA3
:10018000407592B87593FF85929485939575910407
:100190007B00C3EB9A500BE59130E7FB53917F0B4B
:1001A00080F075910022AA82AB837C007D00C3ECB5
:1001B0009AED9B502B7E00BE0400501D7582FAC044
:1001C00002C003C004C005C00612017CD006D005E1
:1001D000D004D003D0020E80DE0CBC00D10D80CE46
:1001E00022AA82AB83ACF0FD75A72075930C75C86D
:1001F000107594008A138B148C158D1690A20075BF
:10020000F04A740412063CAA82AB83ACF0FD75136D
:1002100018E4F514F515F5168A828B838CF0ED122F
:10022000063CAA82AB83ACF0FDE4C39AFAE49BFBE4
:1002300074019CE49D8A958B96D2C943944075A71E
:100240000022AA8275A72010C90280FB8A9275A796
:100250000022AA82AB83ACF08A828B838CF01206D8
:1002600020FD60188D82C002C003C004120242D07B
:1002700004D003D0020ABA00DF0B80DC2275A7206D
:1002800010C80280FB53C83F85928275A700227573
:10029000A7207A007B0020C82675A700758214C0AD
:1002A00002C00312017CD003D00275A7200ABA0055
:1002B000010BBAA8E1BB61DE75A70075820A22C2F4
:1002C000C853C83F85928275A70022AA82AB83AC2F
:1002D000F0C002C003C00412028FAD82D004D0036C
:1002E000D002BD0A0A8A828B838CF0E40207D88A86
:1002F000828B838CF0ED1207D8A3AA82AB8380D1C6
:1003000075A720A2C875A70022AA82AB837C007DB6
:1003100000C3EC9AED9B50477E00BE04005039C0EC
:1003200002C003C004C005C006120300E433D006B7
:10033000D005D004D003D0026001227582FAC00239
:10034000C003C004C005C00612017CD006D005D091
:1003500004D003D0020E80C20CBC00B50D80B222C6
:10036000AA82AB83ACF0C002C003C004C002C003C9
:10037000C0047474C0E07400C0E07480C0E0120770
:10038000B7E58124FAF581C2A09000051201A6D03C
:1003900004D003D0028A828B838CF0120252900028
:1003A0005F75F0401202CB90000A1201A6D2A07431
:1003B0005FC0E07400C0E07440C0E07480C0E074CE
:1003C00000C0E07480C0E01207B7E58124FAF5812F
:1003D00022AA827B077C00EC20E7448BF005F0EA40
:1003E0003392D2EA8003A2D213D5F0FA5401FD333E
:1003F00095E0FEC002C003C004C005C006748FC0F3
:10040000E07400C0E07480C0E01207B7E58124FB0F
:10041000F581D004D003D0021BBBFF011C80B8744F
:1004200092C0E07400C0E07480C0E01207B715818C
:100430001581158122E582FA30E5047BFF80027B7D
:1004400001EB3395E0FC53021F8A137514008B8275
:100450008C830206A1AA82AB83ACF07D000ABA00AD
:10046000010B0DBD13F790FFFF22AA82AB83E5F0CD
:10047000FCE480FE9001F41201A67494C0E07400C4
:10048000C0E07480C0E01207B71581158115819016
:100490002580E4F5F01201E19000A475F0801203CC
:1004A000609000B275F0801203609000BB75F08020
:1004B0001203609000C575F0801203609000CF7544
:1004C000F0801203609000D975F0801203609000F4
:1004D000E275F0801203609000EC75F0801203600A
:1004E00074F6C0E07400C0E07480C0E01207B71575
:1004F00081158115817A007B007C007D007E007F64
:1005000000C002C003C004C005C006C0071203003B
:10051000E433D007D006D005D004D003D00260E188
:10052000C004C00590004B75F040C002C003C00479
:10053000C005C006C0071202CBD007D006D005D038
:1005400004D003D00278538604BC43028006D00551
:10055000D0048049D005C00578558604BC5402807B
:1005600006D005D0048036D005D00490004B75F03D
:1005700040C006C0071206BEAA82AB83D007D006D1
:1005800090004F75F040C002C003C006C0071206BD
:10059000BEAC82AD83D007D006D003D002C002C06B
:1005A00003C004C005C006C007C004C005C002C027
:1005B00003740EC0E07401C0E07480C0E01207B79D
:1005C000E58124F9F581D007D006D005D004D00309
:1005D000D0020EBE00010FC002C003C004C005C09F
:1005E00006C007C006C0077417C0E07401C0E074FD
:1005F00080C0E07437C0E07400C0E07440C0E01216
:100600000840E58124F8F58190003775F04012022A
:1006100052D007D006D005D004D003D00202050185
:1006200020F71430F6148883A88220F507E6A88303
:1006300075830022E280F7E49322E022FB7A20E433
:10064000FCFDFEFFE5822582F582E58333F583E537
:10065000F033F5F0EB33FB4017DAE98042E5822511
:1006600082F582E58333F583E5F033F5F0EB33FB78
:10067000EC33FCED33FDEE33FEEF33FFEC9513ED81
:100680009514EE9515EF95164013EC9513FCED952A
:1006900014FDEE9515FEEF9516FF438201DABEEBD1
:1006A00022E5828513F0A4C582C0F08514F0A4D0A1
:1006B000F025F0C5838513F0A42583F58322AA8253
:1006C000AB83ACF07D007E008A078B008C018F82AB
:1006D000888389F0120620F5226035C374B985221B
:1006E000F063F08095F04008E522648094B05020DB
:1006F0008F82888389F0120620F522742DB522029C
:10070000800E742BB5220280070FBF00C10880BE87
:100710008F02880389048F82888389F0120620FF64
:10072000BF2D03D38001C39200BF2D028003BF2BD6
:10073000050ABA00010B8A828B838CF0120620FF17
:10074000604BC3EF648094B0404374B98FF063F0A2
:100750008095F040388D138E1490000AC002C003BB
:10076000C004C0071206A1AD82AE83D007D004D06A
:1007700003D002EF3395E0F8EF24D0FFE834FFF820
:10078000EF2DFDE83EFE0ABA00AC0B80A93000094F
:10079000C3E49DFAE49EFB80048D028E038A828B63
:1007A0008322020EA685823085833185F032851240
:1007B000339007A202090FC008858108E50824FBD1
:1007C000F533E50824FBF886300886310886329038
:1007D00007A212090FD0082220F71030F6118883E3
:1007E000A88220F507F6A88375830022F280F7F02F
:1007F00022AA82AB0BAC0CAD0D8B828C838DF0EA00
:100800001207D8050BE4B50B02050C2285820B8577
:10081000830C85F00D850E30850F318510328511E2
:10082000339007F112090FAA82AB83AC0BAD0CAE6B
:100830000D8C828D838EF0E41207D88A828B8322FE
:10084000C008858108E50824F8F533E50824FBF89D
:10085000860B08860C08860DE50824F8F886300813
:1008600086310886329007F112090FAA82AB83AC59
:100870000BAD0CAE0D8C828D838EF0E41207D88AFE
:10088000828B83D00822AA827497C0E07408C0E0EB
:10089000C022C0238A82220529E4B52902052A2222
:1008A000AA8274302AFA24C6500A74072AFA300140
:1008B000034302208A82020886E582FAC4540FF5B7
:1008C00082C0021208A0D002740F5AF5820208A05A
:1008D000AA24AB25AC26AD27AE28752F20EE2EFE20
:1008E000ED235401FF4206EA2AFAEB33FBEC33FC1A
:1008F000ED33FDC3EE952B4008EEC3952BFE43026E
:1009000001D52FD98A248B258C268D278E282285E8
:100910008222858323E4F529F52AAA30AB31AC3253
:100920008A828B838CF0120620FD74012AF530E454
:100930003BF5318C32EDFA7003020E9FBA2502802E
:1009400003020E97C205C206C207C208C209C20A44
:10095000C20BC20CC202C203C204752B00752C006C
:10096000752DFFAB30AC31AD328B828C838DF012A4
:100970000620FAA3AB82AC838B308C318D32BA2542
:10098000078A8212088680928A06BE3000402E8A2C
:1009900006EE24C6402774FFB52D13E52C75F00A2A
:1009A000A4FEEA24D02EF52C70BFD20680BBE52D24
:1009B00075F00AA4FEEA24D02EF52D80ACBA2E0ADA
:1009C00074FFB52DA4752D00809F8A06BE6100407E
:1009D0000E8A06EE248540075302DFD2018002C250
:1009E00001BA20028075BA2303020A6ABA2A0302F6
:1009F0000A6FBA2B02805FBA2D028055BA4202807C
:100A00005FBA4303020AB4BA4403020BEFBA4503C8
:100A1000020C09BA4603020C05BA4703020C0DBAD0
:100A20004903020BEFBA4C02803BBA4E03020C1191
:100A3000BA4F03020BF6BA5003020B88BA530302F3
:100A40000AD8BA5503020BFBBA5803020C00020C79
:100A50003BD205020969D207020969D20802096975
:100A6000D20A020969D20B020969D20C020969741F
:100A7000FFB52D20300A0BE53314F88833862C029D
:100A80000969E53324FEF888338606088607188E40
:100A90002C020969300A0BE53314F88833862D02DD
:100AA0000969E53324FEF888338606088607188E20
:100AB0002D020969300A0AE53314F888338602806A
:100AC0000FE53324FEF888338603088604188B026A
:100AD0008A82120886020C40E53324FDF8883386AA
:100AE0000308860408860518188B248C258D268B10
:100AF000828C838DF0120EBBAB82AC838B2E74FF85
:100B0000B52D03852E2D20051DC3E52E952C5016E1
:100B1000E52CC3952EF52CAB2C152CEB60087582BB
:100B20002012088680F18524828525838526F0128F
:100B30000620FBFA6029AB2D152DC3E464808BF0F1
:100B400063F08095F050188A82120886AB24AC2599
:100B5000AD260BBB00010C8B248C258D2680C72075
:100B60000503020C40C3E52E952C4003020C40E522
:100B70002CC3952EF52CAB2C152CEB7003020C40DE
:100B800075822012088680EEE53324FDF8883386CE
:100B90000308860408860518188B248C258D26E505
:100BA00026FB30E7047A438013EB546060047A50EC
:100BB000800AEB30E6047A4980027A588A82C002C1
:100BC00012088675823A1208867582301208867578
:100BD0008278120886D002BA4902800BBA5002808D
:100BE000068525821208B98524821208B98051D25F
:100BF00009752B0A804A752B088045752B0A8040A1
:100C0000752B10803BD2028037D2038033D2048010
:100C10002FE53324FDF8883386030886040886050B
:100C200018188B248C258D268B828C838DF0E529DA
:100C30001207D8A3E52A1207D880058A82120886EF
:100C400020020620030330045AE53324FCF88833DD
:100C500086030886040886050886061818188B245B
:100C60008C258D268E2775241C752501752680857B
:100C7000243485253585263674012534FEE4353542
:100C8000FFAB368E248F258B268534828535838570
:100C900036F0120620FBFA700302091A8A82120843
:100CA0008680CCE52B700302091A7B78300A2BE58D
:100CB0003314F88833E6FC3395E0FDFEFF8C248D79
:100CC000258E268F2720095EAC247D007E007F00C4
:100CD0008C248D258E268F27804C300B1FE53324E6
:100CE000FCF88833860408860508860608860718F7
:100CF00018188C248D258E268F27802AE53324FE14
:100D0000F88833860408860518ED3395E0FEFF8CDD
:100D1000248D258E268F2720090CAC24AD257E003E
:100D20007F008E268F27300C43E524452545264538
:100D30002760397408B52B0C758230C00312088601
:100D4000D00380287410B52B23758230C00312089D
:100D500086D00330010C758278C003120886D00358
:100D6000800A758258C003120886D003300925AC6A
:100D700024AD25AE26E527FF30E717C3E49CFCE44D
:100D80009DFDE49EFEE49FFF8C248D258E268F27FB
:100D90008002C209752E00D20D8B00752800C0009C
:100DA0001208D0D000200D0DE528C4FCE6FD4CF65D
:100DB0001888038002A628052EB20DE52445254596
:100DC00026452770D68803E52C7003752C01200674
:100DD0001A200517E52E04FCC3952C500E758220B1
:100DE000C003120886D003152C80E930090E7582E5
:100DF0002DC003120886D003152C8024E52E602018
:100E000030070E75822BC003120886D003152C8084
:100E10000F30080C758220C003120886D003152CF1
:100E200020051EAC2C152CC3E52E9C502730060443
:100E30007C3080027C208C82C003120886D0038024
:100E4000E2C3E52E952C5009E52CC3952EF52C8098
:100E500003752C008B00AB2E152EEB6022B20D20FB
:100E60000D0A08E6C4540FFB8B2880078603740F15
:100E70005BF528852882C0001208A0D00080D7200A
:100E8000050302091AAB2C152CEB700302091A7525
:100E9000822012088680EE8A8212088602091A854C
:100EA0002982852A8322AA82BA0A0810990280FB25
:100EB00075990D10990280FB8A9922AA82AB83ACA6
:100EC000F07D007E008A828B838CF0120620FFA3C7
:100ED000AA82AB83EF60070DBD00EA0E80E78D822A
:100EE0008E832200000000000000000000000000CF
:00000001FF
