:100000000200037581C8120177E582600302006F68
:10001000780079007A007B007C007D00EC4D601C4C
:1000200088828983E493A3A882A9838A828B83F040
:10003000A3AA82AB831CBCFFE31D80E07582007520
:1000400083007C147D00EC4D600AE4F0A31CBCFF2F
:10005000F51D80F27582007583007C007D00EC4DFB
:10006000600AE4F0A31CBCFFF51D80F212017112BE
:10007000112480FE496E697469616C697A65642037
:100080004144432061742050696E2025645F2564DB
:100090000A00436F6D6D616E643A202573005265EE
:1000A00073706F6E73653A2025730D0A0025640026
:1000B0000A000A0A2D2D2D2D2050726573732061C0
:1000C0006E6420486F6C6420626F7468204A6F7998
:1000D000737469636B7320746F2043616C6962721F
:1000E000617465202D2D2D2D0A0041542B42415560
:1000F000440D0A0041542B524649440D0A00415414
:100100002B44564944413043340D0A0041542B528C
:1001100046430D0A0041542B504F57450D0A0041EC
:10012000542B434C53530D0A0041542B5645520D4A
:100130000A000A0A2D2D2D2D20434F4E54524F4CAC
:100140004C455220534554555020434F4D504C453B
:100150005445202D2D2D2D0A00253464202533648F
:100160000A0025640A003C4E4F20464C4F41543E45
:1001700000E4F54CF54D2275A7007597DE7597AD37
:1001800075FF8075EF0675A71075C12075A70075FE
:10019000A90075A900E5A930E7FB75A90375A903B6
:1001A000E5A930E7FB43A411439C0875E10175E222
:1001B0000075E341759810758DE6858D8B53890F19
:1001C000438920D28ED29975A71075980043A60155
:1001D00075A26075A37375A4FF75A5FF43F304D2E0
:1001E0009A75A700D2AF7582002275A700C2EF757D
:1001F000B28075BC2075B91E75E80075DF3F75B318
:1002000000D2EF22AA828523F005F0740180022536
:10021000E0D5F0FBFB75A720BA0002800ABA010204
:10022000800FBA021E8014EBF4FC52F1EB42D48032
:1002300012EBF4FC52F2EB42D58008EBF4FC52F3E3
:10024000EB42CC75A700AB237C007D00C003C0044B
:10025000C002C0057474C0E07400C0E07480C0E0E7
:100260001216C6E58124F9F581228582BBC2EDD242
:10027000EC30EDFD85BD8285BE832212026A121428
:10028000E9AA82AB83ACF0FDC002C003C004C00584
:10029000906C8B75F0537440121589AA82AB83ACB5
:1002A000F0FDE58124FCF581E4C0E074FCC0E0745D
:1002B0007FC0E07446C0E08A828B838CF0ED121719
:1002C000F8AA82AB83ACF0FDE58124FCF5818A823B
:1002D0008B838CF0ED22AA82438E407592B8759381
:1002E000FF8592948593957591047B00C3EB9A509A
:1002F0000BE59130E7FB53917F0B80F07591002265
:10030000AA82AB837C007D00C3EC9AED9B502B7ED0
:1003100000BE0400501D7582FAC002C003C004C0B4
:1003200005C0061202D6D006D005D004D003D002F4
:100330000E80DE0CBC00D10D80CE22AA82AB83AC35
:10034000F0FD75A72075930C75C8107594008A1878
:100350008B198C1A8D1B90A20075F04A740412142C
:1003600020AA82AB83ACF0FD751818E4F519F51AD4
:10037000F51B8A828B838CF0ED121420AA82AB834A
:10038000ACF0FDE4C39AFAE49BFB74019CE49D8A03
:10039000958B96D2C943944075A70022AA8275A76F
:1003A0002010C90280FB8A9275A70022AA82AB8323
:1003B000ACF08A828B838CF0121404FD60188D825D
:1003C000C002C003C00412039CD004D003D0020AB0
:1003D000BA00DF0B80DC22AA82AB83ACF08A828B6E
:1003E000838CF0121404FD601CBD0A01228D82C0B2
:1003F00002C003C00412039CD004D003D0020ABA86
:1004000000DB0B80D82275A72010C80280FB53C8E0
:100410003F85928275A7002275A7207A007B002075
:10042000C82675A700758214C002C0031202D6D078
:1004300003D00275A7200ABA00010BBAA8E1BB617C
:10044000DE75A70075820A22C2C853C83F85928212
:1004500075A70022AA82AB83ACF0C002C003C0041F
:10046000120418AD82D004D003D002BD0A0A8A82D9
:100470008B838CF0E40216FA8A828B838CF0ED1267
:1004800016FAA3AA82AB8380D175A720A2C875A74C
:100490000022AA82AB837C007D00C3EC9AED9B50C6
:1004A000477E00BE04005039C002C003C004C0052E
:1004B000C006120489E433D006D005D004D003D09E
:1004C000026001227582FAC002C003C004C005C0E8
:1004D000061202D6D006D005D004D003D0020E807A
:1004E000C20CBC00B50D80B222AA82AB83ACF0C0B6
:1004F00002C003C004C002C003C0047492C0E07410
:1005000000C0E07480C0E01216C6E58124FAF581CF
:10051000C2B3900005120300D004D003D0028A8237
:100520008B838CF01203AC90000075F00012045421
:1005300090000A120300D2B37400C0E07400C0E05F
:10054000E4C0E0749EC0E07400C0E07480C0E012BB
:1005500016C6E58124FAF58122AA82AB837C80EB62
:1005600030E7027CA08A828B83C00412162CE582BD
:100570008583F0D004541FFA7B00ECFD3395E0FE38
:10058000ED4202EE42038A048C8222AA82AB83AC43
:10059000F0FDC002C003C004C005C002C003C00417
:1005A000C00590333375F0D3743F121559AE82E510
:1005B0008124FCF581D005D004D003D002EE607414
:1005C0007433C0E0C0E074D3C0E0743FC0E08A82FE
:1005D0008B838CF0ED1217E0AE82AF83A8F0F9E5C3
:1005E0008124FCF5817433C0E0C0E074D3C0E074B2
:1005F0003FC0E08E828F8388F0E91217F8AE82AF99
:1006000083A8F0F9E58124FCF581C006C007C0008D
:10061000C00190000075F0A07441121589AE82AF40
:1006200083A8F0F9E58124FCF5818E828F8388F020
:10063000E9021525C002C003C004C005C002C00302
:10064000C004C00590333375F0D3743F1214F5AE77
:1006500082E58124FCF581D005D004D003D002EEE0
:10066000606F7433C0E0C0E074D3C0E0743FC0E09A
:100670008A828B838CF0ED1217F8AA82AB83ACF0E0
:10068000FDE58124FCF581C002C003C004C00590D3
:10069000000075F080743F1217E0AA82AB83ACF0C3
:1006A000FDE58124FCF581C002C003C004C00590B3
:1006B000000075F0A074C1121589AA82AB83ACF05A
:1006C000FDE58124FCF5818A828B838CF0ED021597
:1006D0002590000022AA82AB83ACF0FDEA4B4C8D42
:1006E000F0C2F745F060047582002275820122AAEB
:1006F00082AB83ACF0E5244525702DE526452770B7
:10070000278A828B838CF0E41216FAA3E41216FA7D
:1007100074022AFDE43BFE8C078D828E838FF0E409
:100720001216FAA3E40216FAE52733E433FD600358
:10073000020939C3E49524E464808525F063F080E0
:1007400095F04003020830C3E5249526E525648032
:100750008527F063F08095F0504A8A828B838CF075
:10076000E5261216FAA3E5271216FA74022AF528CE
:10077000E43BF5298C2A751802E4F5198524828555
:100780002583121713A982AE83E526C399F9E527BD
:100790009EFE852882852983852AF0E91216FAA310
:1007A000EE0216FAE526B52446E527B525418A82EC
:1007B0008B838CF0E5261216FAA3E5271216FA743D
:1007C000022AF528E43BF5298C2A751802E4F5196C
:1007D000852682852783121713A982AE83852882F6
:1007E000852983852AF0E91216FAA3EE0216FA8A01
:1007F000828B838CF0E5241216FAA3E5251216FAF3
:1008000074022AF528E43BF5298C2A751802E4F5D0
:1008100019852682852783121713A982AE8385281E
:1008200082852983852AF0E91216FAA3EE0216FAC8
:10083000C3E49524F524E49525F525C3E524952600
:10084000E52564808527F063F08095F05051751898
:1008500002E4F519852482852583C002C003C00403
:10086000121713AE82AF83D004D003D002E526C3A3
:100870009EFEE5279FFF8A828B838CF0EE1216FA8C
:10088000A3EF1216FA74022AFEE43BFF8C008E825C
:100890008F8388F0E5261216FAA3E5270216FAE5FB
:1008A00026B5244DE527B52548751802E4F51985C8
:1008B0002682852783C002C003C004121713AE82AC
:1008C000AF83D004D003D0028A828B838CF0EE12E7
:1008D00016FAA3EF1216FA74022AFEE43BFF8C000C
:1008E0008E828F8388F0E5261216FAA3E52702167A
:1008F000FA751802E4F519852682852783C002C09F
:1009000003C004121713AE82AF83D004D003D00209
:100910008A828B838CF0EE1216FAA3EF1216FA7409
:10092000022AFEE43BFF8C008E828F8388F0E52450
:100930001216FAA3E5250216FAED7003020A2AC37D
:10094000E52694F8E5276480947F5003020A2AC3C1
:10095000E49524E464808525F063F08095F0505B95
:10096000852682852783A3A3A3A38524188525191B
:10097000C002C003C00412163BAD82AE83751804DA
:10098000E4F5198D828E83121713AD82AE83D004E5
:10099000D003D0028A828B838CF0ED1216FAA3EE7C
:1009A0001216FA74022AFDE43BFE8C078D828E83B8
:1009B0008FF0E41216FAA3E40216FA8A828B838C73
:1009C000F0E41216FAA3E41216FA74022AFDE43BCC
:1009D000FE8C0774042526F8E43527F985248285E2
:1009E0002583C005C006C007C000C00112162C85B3
:1009F0008218858319D001D0008882898312163B22
:100A0000A882A983751804E4F519888289831217CE
:100A100013A882A983D007D006D0058D828E838F3C
:100A2000F0E81216FAA3E90216FAC3E49524E46486
:100A3000808525F063F08095F04003020B40C3E40D
:100A40009526FDE49527FEC3E5249DE52564808E6B
:100A5000F063F08095F050498A828B838CF0E52614
:100A60001216FAA3E5271216FA74022AF528E43BB7
:100A7000F5298C2A751802E4F519852482852583C9
:100A8000121713AF82A883EF2526FFE83527F885D4
:100A90002882852983852AF0EF1216FAA3E8021628
:100AA000FAEDB5244CEEB525488A828B838CF0E5AF
:100AB000261216FAA3E5271216FA74022AFDE43B61
:100AC000FE8C07751802E4F519852682852783C0F8
:100AD00005C006C007121713A882A983D007D00645
:100AE000D0058D828E838FF0E81216FAA3E90216E4
:100AF000FAC3E49524FDE49525FE8A828B838CF06D
:100B0000ED1216FAA3EE1216FA74022AFDE43BFE69
:100B10008C07751802E4F519852682852783C005A0
:100B2000C006C007121713A882A983D007D006D029
:100B3000058D828E838FF0E81216FAA3E90216FA69
:100B4000C3E5269524E52764808525F063F080952C
:100B5000F05051751802E4F519852482852583C06B
:100B600002C003C004121713AD82AE83D004D003B9
:100B7000D002E526C39DFDE5279EFE8A828B838CED
:100B8000F0ED1216FAA3EE1216FA74022AFDE43BF7
:100B9000FE8C078D828E838FF0E5261216FAA3E570
:100BA000270216FAE526B5244DE527B52548751820
:100BB00002E4F519852682852783C002C003C0049C
:100BC000121713AD82AE83D004D003D0028A828B79
:100BD000838CF0ED1216FAA3EE1216FA74022AFDB7
:100BE000E43BFE8C078D828E838FF0E5261216FA89
:100BF000A3E5270216FA751802E4F5198526828501
:100C00002783C002C003C004121713AD82AE83D085
:100C100004D003D0028A828B838CF0ED1216FAA3E3
:100C2000EE1216FA74022AFAE43BFB8A828B838C5A
:100C3000F0E5241216FAA3E5250216FAAA82AB8380
:100C4000ACF0E5181216FAA3E5191216FA74022A86
:100C5000FAE43BFB8A828B838CF0E51A1216FAA326
:100C6000E51B0216FA85823585833685F037852B9C
:100C70003A852C3B852D3C853A82853B83853CF02B
:100C8000121404F538A3121404F539C031C032C06F
:100C900033C03490000075F080743F1217E0AA82D0
:100CA000AB83ACF0F8E58124FCF581853882853989
:100CB00083C002C003C004C0001217EBA982AD8339
:100CC000AEF0FFD000D004D003D002C002C003C0F9
:100CD00004C000C002C003C004C00089828D838E9E
:100CE000F0EF12158985823D85833E85F03FF54002
:100CF000E58124FCF581852E41852F428530438591
:100D000041828542838543F0121404F9A31214042E
:100D1000FD89828D831217EBAD82AE83AFF0F9C0EF
:100D200031C032C033C0348D828E838FF0E912150A
:100D300089AD82AE83AFF0F9E58124FCF581C00571
:100D4000C006C007C001853D82853E83853FF0E532
:100D500040121658AD82AE83AFF0F9E58124FCF560
:100D6000818D828E838FF0E9121525AD82AE838549
:100D700035828536838537F0ED1216FAA3EE12160A
:100D8000FA74022535F53DE43536F53E85373F7476
:100D900002253AF9E4353BFDAE3C89828D838EF025
:100DA000121404F9A3121404FD89828D831217EB27
:100DB000121589AA82AB83ACF0FDE58124FCF58194
:100DC00074022541FEE43542FFA8438E828F83885A
:100DD000F0121404FEA3121404FF8E828F83C0024B
:100DE000C003C004C0051217EBAE82AF83A8F0F9B0
:100DF000C031C032C033C0348E828F8388F0E91294
:100E00001589AE82AF83A8F0F9E58124FCF581D085
:100E100005D004D003D002C006C007C000C0018ABC
:100E2000828B838CF0ED121658AA82AB83ACF0FD56
:100E3000E58124FCF5818A828B838CF0ED121525E7
:100E4000AA82AB83853D82853E83853FF0EA1216F8
:100E5000FAA3EB0216FA75821312027BAA82AB8305
:100E6000ACF0FD75820EC002C003C004C0051202C2
:100E70007BAE82AF83A8F0F9D005D004D003D002B6
:100E8000EA4B4C8DF0C2F745F0600BEE4F4889F00D
:100E9000C2F745F070269007D0C002C003C004C05E
:100EA00005C006C007C000C001120300D001D00079
:100EB000D007D006D005D004D003D002EA4B4C8D29
:100EC000F0C2F745F0600EEE4F4889F0C2F745F0EA
:100ED0006003020E5675821312027BAA82AB83ACAA
:100EE000F0FDEA4B4C8DF0C2F745F060E875820EDC
:100EF00012027BAA82AB83ACF0FDEA4B4C8DF0C2B0
:100F0000F745F060D022D2A07582281202D6C2A086
:100F100022AA828AE0A2E79290A2E69291A2E592AA
:100F200092A2E49293C002120F067582281202D692
:100F3000D0028AE0A2E39290A2E29291A2E1929280
:100F4000A2E09293020F06AA82D2978A82120F1110
:100F5000900002020300AA82C2978A82120F1190A7
:100F60000005020300C2A090001412030075823332
:100F7000120F56758233120F56758232120F567544
:100F80008228120F5675820C120F56758201120FAD
:100F900056900014020300AA82AB83ACF07402B531
:100FA00044047DC080027D808D82C002C003C004E5
:100FB000120F56900005120300D004D003D0027D1A
:100FC000007E00ED2AFFEE3BF88C018F828883893A
:100FD000F0121404FF60208F82C002C003C004C05E
:100FE00005C006120F47D006D005D004D003D002AA
:100FF0000DBD00CF0E80CC3000248D028E03C3EADD
:101000009410EB648094805015758220C002C00358
:10101000120F47D003D0020ABA00E30B80E022850A
:10102000824785834885F049E4F54AF54BE5452438
:10103000FFFFE54634FFF879007A00C3E99FEA64D0
:101040008088F063F08095F05059C002C007C0005E
:10105000C0011216E7AB82D001D000D007D002BB8E
:101060000A028003BB0D1DE54A2547FCE54B3548C8
:10107000FDAE498C828D838EF0E41216FA854A8289
:10108000854B8322E92547FCEA3548FDAE498C8231
:101090008D838EF0EB1216FA09B900010A894A8A8B
:1010A0004B8098E54A2547FAE54B3548FBAC498A21
:1010B000828B838CF0E41216FA8545828546832262
:1010C000AA827B077C00EC20E7448BF005F0EA3332
:1010D00092D2EA8003A2D213D5F0FA5401FD3395DF
:1010E000E0FEC002C003C004C005C00674ADC0E08D
:1010F0007400C0E07480C0E01216C6E58124FBF5E0
:1011000081D004D003D0021BBBFF011C80B874B097
:10111000C0E07400C0E07480C0E01216C6158115EE
:10112000811581229001F4120300902580E4F5F0EE
:1011300012033B75230175820212020475230275A6
:1011400082021202047523037582021202047523BF
:1011500004758202120204752305758202120204CC
:101160007523067582021202041201EA120F6574D9
:10117000B2C0E07400C0E07480C0E01216C61581F1
:1011800015811581120E569000C81203009000EAD6
:1011900075F0801204E99000EA75F0801204E9907D
:1011A00000F475F0801204E99000FE75F0801204DE
:1011B000E990010C75F0801204E990011575F0803A
:1011C0001204E990011F75F0801204E9900129755D
:1011D000F0801204E97432C0E07401C0E07480C091
:1011E000E01216C615811581158175821312027BD6
:1011F00085825E85835F85F060F5617582121202DB
:101200007B85825685835785F058F5597582111272
:10121000027B85825A85835B85F05CF55D75820E65
:1012200012027B85825285835385F054F555758271
:101230000F12027B85824E85834F85F050F55175E4
:10124000821012027BAE82AF83AAF0FB85568285A4
:1012500057838558F0E559C002C003C006C0071285
:10126000058B858262858363855A82855B83855C75
:10127000F0E55D12058B858264858365854E8285E8
:101280004F838550F0E55112058BAC82AD83D007BA
:10129000D006D003D0028E828F838AF0EBC004C0C8
:1012A0000512058BAA82AB83D005D004855E8285AA
:1012B0005F838560F0E561C002C003C004C0051211
:1012C00006D58552828553838554F0E5551206D59F
:1012D0008562248563258564268565279000A7752A
:1012E000F0401206EFD005D004D003D0028C248D3C
:1012F000258A268B279000AB75F0401206EF752BE0
:10130000A7752C00752D40752EAB752F00753040DC
:101310007531CD7532CC75334C75343E9000AF7558
:10132000F040120C6578B1860208860378AF860417
:10133000088605C002C003C004C0057459C0E0742B
:1013400001C0E07480C0E0747FC0E07400C0E0744D
:1013500040C0E012179AE58124F6F58190007F7570
:10136000F0401203AC747FC0E07400C0E07440C071
:10137000E01216C61581158115817A007B00C00226
:10138000C003120489D003D0024022758264C002D7
:10139000C0031202D6D003D0020ABA00010BC374F4
:1013A000E89A74838BF063F08095F050D112048931
:1013B000500990009375F0401204547466C0E074B4
:1013C00000C0E07440C0E074ADC0E07400C0E074E0
:1013D00080C0E07493C0E07400C0E07440C0E012CC
:1013E00014BBE58124F7F581C066C0677462C0E074
:1013F0007401C0E07480C0E01216C6E58124FBF5DC
:10140000810211EA20F71430F6148883A88220F5AF
:1014100007E6A88375830022E280F7E49322E022A6
:10142000FB7A20E4FCFDFEFFE5822582F582E58360
:1014300033F583E5F033F5F0EB33FB4017DAE98061
:1014400042E5822582F582E58333F583E5F033F5C5
:10145000F0EB33FBEC33FCED33FDEE33FEEF33FF0B
:10146000EC9518ED9519EE951AEF951B4013EC9538
:1014700018FCED9519FDEE951AFEEF951BFF4382C2
:1014800001DABEEB22AA08AB09AC0A8A828B838CF4
:10149000F0121404FA0508E4B5080205098A82224C
:1014A00085820885830985F00A850B78850C798506
:1014B0000D7A850E7B901485021B50C00F85810F1D
:1014C000E50F24F8F57BE50F24FBF886080886096C
:1014D00008860AE50F24F8F8867808867908867A5F
:1014E000901485121B50D00F22E4AC83AB82FAF922
:1014F000748E021F01FFA8811818121F29D2D13340
:10150000E6400730E70B7582012220E7067582006E
:1015100022C2D1121F0BE97003F5822230D101B330
:10152000E433F58222121F54700AE582458345F0A8
:10153000700122E430D112F4700BE5F0F47006E58E
:101540008330E7012290800022700AE5F07006E502
:101550008320E70122907FFF22FFA8811818121F25
:1015600029D2D133E6400730E70B7582002220E70D
:101570000675820122C2D1121F0BE97003F5822287
:1015800020D101B3E433F58222122031BC000302E2
:101590001FD0EF60FA30D502B2D1E583B4FF030269
:1015A0001FE6E582B4FF03021FE62583400724827D
:1015B000400B021FD02483145003021FE6F582EA79
:1015C0008DF0A4A8F0EA8EF0A428F8E435F0F9EB49
:1015D0008DF0A428E935F0F9E433CA8FF0A429F995
:1015E000EA35F0FAEBF88EF0A429F9EA35F0FAE4DE
:1015F00033FBEC8DF0A429F9EA35F0FAE43BFBE883
:101600008FF0A42AFAEB35F0FBE433CCFD8EF0A486
:101610002AFAEB35F0FBE43CFCED8FF0A42BFBEC5D
:1016200035F0FC20E703121FFE021FAFE58330E711
:1016300009F4F583E582F4F582A322E5828518F0AA
:10164000A4C582C0F08519F0A4D0F025F0C583852B
:1016500018F0A42583F583221220317900E583B5A3
:101660008202800D500312205FE583C39582122011
:1016700079E5D0C465D020E117EA2DFAEB3EFBEC0A
:101680003FFC50097401122079EC4480FC021FAF2A
:10169000C3EA9DFAEB9EFBEC9FFC500FC3E499F963
:1016A000E49AFAE49BFBE49CFCB2D1121FFE021FF9
:1016B000AF0226DC85827685837785F07885177979
:1016C0009016B1022145C00F85810FE50F24FBF56F
:1016D00079E50F24FBF886760886770886789016D9
:1016E000B1122145D00F2210980280FBAA998A825C
:1016F000C0021226DCD0028A822220F71030F611B6
:101700008883A88220F507F6A88375830022F280DB
:10171000F7F022C2D5E58330E70DD2D5E4C3958238
:10172000F582E49583F583E51930E70DB2D5E4C37E
:101730009518F518E49519F51912191730D50BE419
:10174000C39582F582E49583F58322AA82AB10AC1F
:1017500011AD128B828C838DF0EA1216FA0510E41B
:10176000B5100205112285821085831185F012853E
:10177000137685147785157885167990174B122185
:1017800045AA82AB83AC10AD11AE128C828D838ED4
:10179000F0E41216FA8A828B8322C00F85810FE54E
:1017A0000F24F8F579E50F24FBF886100886110858
:1017B0008612E50F24F8F8867608867708867890F2
:1017C000174B122145AA82AB83AC10AD11AE128C1F
:1017D000828D838EF0E41216FA8A828B83D00F22D8
:1017E000A8811818C6B2E7C6021658AC83AB827A35
:1017F000007900748E0226FA12203130D502B2D15F
:10180000BF0009BC0003021FF3021FE6BC00030275
:101810001FD0E583B4FF0BE582B4FF03021FF30280
:101820001FD0E582B4FF03021FE6C395835007244F
:101830007F400B021FD02480145003021FE6C0E03B
:10184000E4CCCBCAF98D188E198F1AEF54F0C4F579
:101850001B758306851BF0EB84F582E9C4F9EAC4A5
:10186000FAEBC4FBEC540FC47803D6FC18EBD6FBA0
:1018700018EAD6FA8582F0EDA4A8F0FD8582F0EE94
:10188000A428FEE435F0F88582F0EFA428FFE435C3
:10189000F0F8E99DF9EA9EFAEB9FFBEC98FCAD1895
:1018A000AE19AF1A30E7101582E92DF9EA3EFAEBCE
:1018B0003FFBE43CFC80EDC082D58398C3E933F95B
:1018C000EA33FAEB33FBEC33FCC3E99DEA9EEB9F72
:1018D000EC9400B3E413F9D002D0E0C44AFAD00388
:1018E000D0E0C44BFBD004D0E0F5F0540FC44CFC66
:1018F000D082158230F40FD3EC13FCEB13FBEA1308
:10190000FAE913F90582E930E70A74012AFAE43B9F
:10191000FBE43CFC021FC77A10E4FBFCE58225E0F7
:10192000F582E58333F583EB33FBEC33FCEB951861
:10193000F5F0EC95194006FCABF0438201DADD22AC
:1019400085688285698312278C858277E577600AAE
:101950000571E4B5710605728002D2048577822292
:101960007A007B0030040578B9760022C002C003FB
:10197000121940AC82D003D002BC0002802DBC08FA
:10198000028014BC09028023BC0A02801EBC0D0226
:101990008019BC20218014EA4B60D11ABAFF011BC8
:1019A000157174FFB57102157280C1EA4B60BDEA12
:1019B00024B9F8760022EC7009EA24B9F87600D24E
:1019C0000422ECB57607EA24B9F8760022C3EA943B
:1019D0000FEB940050968A058B060ABA00010BEDB6
:1019E00024B9F8A60402196CAA827B7FC3EA64803A
:1019F00094B0401174B98AF063F08095F04006EA23
:101A000024D0FB8030C3EA648094C1401174C68A3C
:101A1000F063F08095F0400674C92AFB8017C3EA92
:101A2000648094E1400F74E68AF063F08095F040A2
:101A30000474A92AFBC3EB957350038B8222758231
:101A40007F22AA82756D00756E00756F007570003B
:101A50008A00E6FA60148A82C0001219E8AB82D0CC
:101A600000C3EB957340030880E886038B82C000B7
:101A70001219E8AA82D000C3E5739A405085731802
:101A8000751900751A00751B00856D82856E83853A
:101A90006FF0E570C002C00012271EAB82AC83ADB0
:101AA000F0FED000D0028B6D8C6E8D6F8E70E4FBDB
:101AB000FCFDEA256DFAEB356EFBEC356FFCED3580
:101AC00070FD8A6D8B6E8C6F8D7008809D856D8228
:101AD000856E83856FF0E57022AA82756D00756E44
:101AE00000756F007570008A00E6FB60228B82C073
:101AF00003C0001219E8AC82D000D003C3EC957388
:101B0000400DBB2D028008BB2B0280030880DA88C1
:101B1000028603BB2D03D38001C39207BB2D028035
:101B200003BB2B010A8A82121A42300713C3E495C1
:101B30006DFAE4956EFBE4956FFCE49570FD80080A
:101B4000AA6DAB6EAC6FAD708A828B838CF0ED2288
:101B5000858268858369E4F571F572F575C204AA1A
:101B600078AB79AC7A8A828B838CF0121404FD7482
:101B7000012AF578E43BF5798C7AEDFA7003021EC0
:101B8000EFBA25028003021E88D203C201757300DA
:101B9000757400C205C206AB78AC79AD7A8B828CC5
:101BA000838DF0121404FAA3AB82AC838B788C790A
:101BB0008D7A8B828C838DF0121404F5768A06BEA2
:101BC000300040168A06EE24C6400FE57475F00A10
:101BD000A4FEEA24D02EF57480C38A06BE610040BC
:101BE0000A8A06EE248540035302DFBA250280AD3F
:101BF000BA2A028045BA42028036BA43028040BA0D
:101C00004403021D03BA4903021D03BA4C02802596
:101C1000BA4E03021D16BA4F03021D08BA530280C2
:101C200020BA5503021D01BA5803021D0F021D3EC2
:101C3000D201021B9DD202021B9DD205021B9DD226
:101C400006200517E57B24FDF8887B8603088604BB
:101C500008860518188B6A8C6B8D6CE574700B30D8
:101C600006047B0180027BFF8B74757300C3E573F0
:101C700095745005121940AA82300407E573700369
:101C8000021D3EEA601ABA2002800DBA09028008DD
:101C9000BA0D028003BA0A03300605E574B5731F56
:101CA000E57360C92005120575AB6AAC6BAD6C8B32
:101CB000828C838DF0E41216FA757300021D3EBA11
:101CC000081CE57360A7200511AB6AAC6BAD6C1BFB
:101CD000BBFF011C8B6A8C6B8D6C1573808F20058C
:101CE0001BAB6AAC6BAD6C8B828C838DF0EA1216E9
:101CF000FA0BBB00010C8B6A8C6B8D6C0573021C9C
:101D00006DC20375730A8036C203757308802FC2D3
:101D1000037573108028E57B24FDF8887B86030813
:101D2000860408860518188B6A8C6B8D6C8B828CE8
:101D3000838DF0E5711216FAA3E5721216FAE573B7
:101D40007003021E8812196078B9E67003021E88BB
:101D5000300503021E88E57B24FDF8887B86030896
:101D6000860408860518188B6A8C6B8D6C057520A7
:101D70000303021E01300235856A7C856B7D856C0C
:101D80007E7582B9121AD9AE82AF83ABF0FC857C26
:101D900082857D83857EF0EE1216FAA3EF1216FA85
:101DA000A3EB1216FAA3EC1216FA021E88300126D3
:101DB000856A7C856B7D856C7E7582B9121AD9AE79
:101DC00082AF83ABF0FC857C82857D83857EF0EEDF
:101DD0001216FA021E88856A7C856B7D856C7E757D
:101DE00082B9121AD9AE82AF83ABF0FC857C8285B2
:101DF0007D83857EF0EE1216FAA3EF1216FA021E0C
:101E000088300234856A7C856B7D856C7E7582B9ED
:101E1000121A42AE82AF83ABF0FC857C82857D8353
:101E2000857EF0EE1216FAA3EF1216FAA3EB121645
:101E3000FAA3EC1216FA8050300125856A7C856B76
:101E40007D856C7E7582B9121A42AE82AF83ABF08B
:101E5000FC857C82857D83857EF0EE1216FA8028D3
:101E6000856A7C856B7D856C7E7582B9121A42AE5F
:101E700082AF83ABF0FC857C82857D83857EF0EE2E
:101E80001216FAA3EF1216FA200403021B5FAB78B6
:101E9000AC79AD7A8B828C838DF0121404FEA3ABE7
:101EA00082AC838B788C798D7AEEFA7003021B5F9B
:101EB000BA25E18B828C838DF0121404FABA6E027B
:101EC0008003BA4ECFE57B24FDF8887B8602088626
:101ED0000608860718188A6A8E6B8F6C8A828E8332
:101EE0008FF0E5711216FAA3E5721216FA80A5AA10
:101EF000757B008A828B8322FCABF0AA83A9827453
:101F00009EC2D1F582121FFE021FAF7901AA82E69E
:101F10008F82B5821318E6B5F00E18E6B58309185E
:101F2000E68A82B58202790022B4800FE5F0700A59
:101F3000E5837006E58270027F00EFB6801518B663
:101F4000001018B6000B18B6000608080876002224
:101F50000808082212278EC3749E958240397900A2
:101F600012207930D126E9F42401F582EAF4340014
:101F7000F583EBF43400F5F0ECF43400700AE582FC
:101F8000458345F0700122E430E70F22EC20E7148E
:101F900089828A838BF02230D10AE4F582F583F5B9
:101FA000F074802274FFF582F583F5F0747F22B916
:101FB0008003EA13B34010EA2401FAE43BFBE43C5B
:101FC000FC50047C800582BC000EBB000BBA0008EC
:101FD000E4F5F0F583F58222A2D1E582138CF0922C
:101FE000F78B838A8222E4F583F58275F080F4A270
:101FF000D11322E4F583F58275F0C0747F22780452
:10200000EC7011E58224F8500AF582E4C9CACBFCD1
:10201000D8EF22EC7820058220E713D5820122C375
:10202000E933F9EA33FAEB33FBEC33FCD8EA1582F7
:1020300022AA82AB83A2F73392D16002D2F7F58253
:10204000ACF0E58124F9F8E6FD08E6FE0886F00824
:10205000E6A2F73392D56002D2F7F583AFF022E51E
:1020600082C583F582A2D133A2D592D11392D5EC49
:10207000CFFCEBCEFBEACDFA226040F8258250027D
:1020800074FFF582E824F8501ECCCBCAF9E4CC24C6
:10209000F85014CBCAF9E4CB24F8500BCAF9E4CABF
:1020A00024F8500379002224086010F8C3EC13FCD4
:1020B000EB13FBEA13FAE913F9D8F122AA8274CDE3
:1020C000C0E07420C0E0C068C0698A8222056FE465
:1020D000B56F02057022AA8274302AFA24C6500A0B
:1020E00074072AFA3008034302208A820220BCE5E2
:1020F00082FAC4540FF582C0021220D6D002740FA7
:102100005AF5820220D6AA6AAB6BAC6CAD6DAE6E8E
:10211000757520EE2EFEED235401FF4206EA2AFAE1
:10212000EB33FBEC33FCED33FDC3EE95714008EE71
:10213000C39571FE430201D575D98A6A8B6B8C6C8D
:102140008D6D8E6E22858268858369E4F56FF570EA
:10215000AA76AB77AC788A828B838CF0121404FD5C
:1021600074012AF576E43BF5778C78EDFA7003027A
:1021700026D5BA250280030226CDC20CC20DC20E9E
:10218000C20FC210C211C212C213C209C20AC20BCC
:102190007571007572007573FFAB76AC77AD788B97
:1021A000828C838DF0121404FAA3AB82AC838B76FD
:1021B0008C778D78BA25078A821220BC80928A0695
:1021C000BE3000402E8A06EE24C6402774FFB57349
:1021D00013E57275F00AA4FEEA24D02EF57270BFE2
:1021E000D20D80BBE57375F00AA4FEEA24D02EF56B
:1021F0007380ACBA2E0A74FFB573A4757300809F08
:102200008A06BE6100400E8A06EE2485400753020E
:10221000DFD2088002C208BA20028075BA23030206
:1022200022A0BA2A030222A5BA2B02805FBA2D028D
:102230008055BA4202805FBA43030222EABA4403DD
:10224000022425BA450302243FBA460302243BBABE
:102250004703022443BA4903022425BA4C02803BB7
:10226000BA4E03022447BA4F0302242CBA50030289
:1022700023BEBA530302230EBA5503022431BA58BF
:1022800003022436022471D20C02219FD20E0221B5
:102290009FD20F02219FD21102219FD21202219FB1
:1022A000D21302219F74FFB5732030110BE579140E
:1022B000F88879867202219FE57924FEF88879866C
:1022C00006088607188E7202219F30110BE57914DB
:1022D000F88879867302219FE57924FEF88879864B
:1022E00006088607188E7302219F30110AE57914BB
:1022F000F888798602800FE57924FEF888798603CC
:10230000088604188B028A821220BC022476E579A2
:1023100024FDF88879860308860408860518188B3A
:102320006A8C6B8D6C8B828C838DF01227A0AB82B4
:10233000AC838B7474FFB57303857473200C1DC359
:10234000E57495725016E572C39574F572AB72150B
:1023500072EB60087582201220BC80F1856A82854C
:102360006B83856CF0121404FBFA6029AB73157350
:10237000C3E464808BF063F08095F050188A821279
:1023800020BCAB6AAC6BAD6C0BBB00010C8B6A8CD8
:102390006B8D6C80C7200C03022476C3E5749572A4
:1023A0004003022476E572C39574F572AB72157220
:1023B000EB70030224767582201220BC80EEE57952
:1023C00024FDF88879860308860408860518188B8A
:1023D0006A8C6B8D6CE56CFB30E7047A438013EB01
:1023E000546060047A50800AEB30E6047A49800237
:1023F0007A588A82C0021220BC75823A1220BC75BB
:1024000082301220BC7582781220BCD002BA4902F8
:10241000800BBA50028006856B821220EF856A829B
:102420001220EF8051D21075710A804A75710880B0
:102430004575710A8040757110803BD2098037D292
:102440000A8033D20B802FE57924FDF88879860342
:1024500008860408860518188B6A8C6B8D6C8B8235
:102460008C838DF0E56F1216FAA3E5701216FA80D0
:10247000058A821220BC200906200A03300B5AE587
:102480007924FCF88879860308860408860508867E
:10249000061818188B6A8C6B8D6C8E6D756A667554
:1024A0006B01756C80856A7A856B7B856C7C7401A9
:1024B000257AFEE4357BFFAB7C8E6A8F6B8B6C8557
:1024C0007A82857B83857CF0121404FBFA70030208
:1024D00021508A821220BC80CCE571700302215009
:1024E0007BB830112BE57914F88879E6FC3395E058
:1024F000FDFEFF8C6A8D6B8E6C8F6D20105EAC6A5A
:102500007D007E007F008C6A8D6B8E6C8F6D804CA1
:1025100030121FE57924FCF88879860408860508BE
:1025200086060886071818188C6A8D6B8E6C8F6D5E
:10253000802AE57924FEF88879860408860518ED56
:102540003395E0FEFF8C6A8D6B8E6C8F6D20100CC6
:10255000AC6AAD6B7E007F008E6C8F6D301343E5EF
:102560006A456B456C456D60397408B5710C7582B0
:1025700030C0031220BCD00380287410B5712375BD
:102580008230C0031220BCD00330080C758278C0A2
:10259000031220BCD003800A758258C0031220BCED
:1025A000D003301025AC6AAD6BAE6CE56DFF30E743
:1025B00017C3E49CFCE49DFDE49EFEE49FFF8C6A4F
:1025C0008D6B8E6C8F6D8002C210757400D2148B6F
:1025D00000756E00C000122106D00020140DE56EBB
:1025E000C4FCE6FD4CF61888038002A66E0574B2A2
:1025F00014E56A456B456C456D70D68803E57270CD
:1026000003757201200D1A200C17E57404FCC395A4
:1026100072500E758220C0031220BCD00315728048
:10262000E930100E75822DC0031220BCD003157244
:102630008024E5746020300E0E75822BC0031220BA
:10264000BCD0031572800F300F0C758220C00312AE
:1026500020BCD0031572200C1EAC721572C3E57439
:102660009C5027300D047C3080027C208C82C0037B
:102670001220BCD00380E2C3E57495725009E57264
:10268000C39574F57280037572008B00AB7415747A
:10269000EB6022B21420140A08E6C4540FFB8B6EC0
:1026A00080078603740F5BF56E856E82C000122072
:1026B000D6D00080D7200C03022150AB721572EBEC
:1026C00070030221507582201220BC80EE8A821293
:1026D00020BC022150856F8285708322AA82BA0AAB
:1026E0000810990280FB75990D10990280FB8A9958
:1026F00022FCABF0AA83A982749EF582C2D1EC3091
:10270000E716D2D1E9F42401F9EAF43400FAEBF443
:102710003400FBECF43400FC121FFE021FAFAAF0E1
:10272000FBE5828518F0A4FCADF0E5838518F0A4E4
:102730002DFDE435F0FEE5828519F0A42DFDE5F0D0
:102740003EFEE433FFEA8518F0A42EFEE5F03FFFDD
:10275000E5838519F0A42EFEE5F03FFFE582851A9A
:10276000F0A42EFEE5F03FFFEB8518F0A42FFFEA62
:102770008519F0A42FFFE583851AF0A42FFFE582C9
:10278000851BF0A42F8EF08D838C8222E473AA82A5
:10279000AB83A2F73392D16002D2F7F582ACF0227C
:1027A000AA82AB83ACF07D007E008A828B838CF0A2
:1027B000121404FFA3AA82AB83EF60070DBD00EAE9
:1027C0000E80E78D828E8322000000000000000052
:00000001FF
