:1000000002000375818412012DE582600302006FF6
:10001000780079007A007B007C007D00EC4D601C4C
:1000200088828983E493A3A882A9838A828B83F040
:10003000A3AA82AB831CBCFFE31D80E07582007520
:1000400083007C007D00EC4D600AE4F0A31CBCFF43
:10005000F51D80F27582007583007C007D00EC4DFB
:10006000600AE4F0A31CBCFFF51D80F212012C1203
:10007000045A80FE436F6D6D616E643A20257300F3
:10008000526573706F6E73653A2025730D0A0025F3
:1000900064000A000D0A4A44592D343020746573F7
:1000A000740D0A0041542B44564944413043340DE9
:1000B0000A0041542B5645520D0A0041542B42412F
:1000C00055440D0A0041542B524649440D0A004143
:1000D000542B445649440D0A0041542B5246430DBB
:1000E0000A0041542B504F57450D0A0041542B43F1
:1000F0004C53530D0A00444556494345205345543B
:10010000555020434F4D504C4554450A0A00256434
:100110002564002533642C2533640A002535640AE0
:10012000003C4E4F20464C4F41543E002275A700E4
:100130007597DE7597AD75FF8075EF0675A710751D
:10014000C12075A70075A90075A900E5A930E7FBD6
:1001500075A90375A903E5A930E7FB43A41143A6DC
:100160000175E10175E20075E341759810758DE642
:10017000858D8B53890F438920D28ED29975820049
:1001800022AA82438E407592B87593FF859294851A
:1001900093957591047B00C3EB9A500BE59130E782
:1001A000FB53917F0B80F075910022AA82AB837C78
:1001B000007D00C3EC9AED9B502B7E00BE040050E6
:1001C0001D7582FAC002C003C004C005C00612013A
:1001D00081D006D005D004D003D0020E80DE0CBC46
:1001E00000D10D80CE22AA82AB83ACF0FD75A72092
:1001F00075930C75C8107594008A1C8B1D8C1E8D10
:100200001F90A20075F04A74041205B6AA82AB834F
:10021000ACF0FD751C18E4F51DF51EF51F8A828BE8
:10022000838CF0ED1205B6AA82AB83ACF0FDE4C37B
:100230009AFAE49BFB74019CE49D8A958B96D2C943
:1002400043944075A70022AA8275A72010C9028096
:10025000FB8A9275A70022AA82AB83ACF08A828BBC
:10026000838CF012059AFD60188D82C002C003C015
:1002700004120247D004D003D0020ABA00DF0B8078
:10028000DC2275A72010C80280FB53C83F859282EC
:1002900075A7002275A7207A007B0020C82675A7C5
:1002A00000758214C002C003120181D003D0027510
:1002B000A7200ABA00010BBAA8E1BB61DE75A7004E
:1002C00075820A22C2C853C83F85928275A7002250
:1002D000AA82AB83ACF0C002C003C004120294AD8A
:1002E00082D004D003D002BD0A0A8A828B838CF0AC
:1002F000E40206D28A828B838CF0ED1206D2A3AA86
:1003000082AB8380D175A720A2C875A70022AA82DC
:10031000AB837C007D00C3EC9AED9B50477E00BE12
:1003200004005039C002C003C004C005C006120357
:1003300005E433D006D005D004D003D002600122FA
:100340007582FAC002C003C004C005C00612018154
:10035000D006D005D004D003D0020E80C20CBC0061
:10036000B50D80B222AA82AB83ACF0C002C003C03C
:1003700004C002C003C0047474C0E07400C0E07420
:1003800080C0E01206B1E58124FAF581C2A0900098
:10039000051201ABD004D003D0028A828B838CF08B
:1003A00012025790005B75F0401202D090000A12C2
:1003B00001ABD2A0745BC0E07400C0E07440C0E048
:1003C0007480C0E07400C0E07480C0E01206B1E543
:1003D0008124FAF58122AA827B077C00EC20E74485
:1003E0008BF005F0EA3392D2EA8003A2D213D5F063
:1003F000FA5401FD3395E0FEC002C003C004C005FD
:10040000C006748FC0E07400C0E07480C0E01206C3
:10041000B1E58124FBF581D004D003D0021BBBFFE2
:10042000011C80B87492C0E07400C0E07480C0E029
:100430001206B115811581158122E582FA30E50495
:100440007BFF80027B01EB3395E0FC53021F8A1C8B
:10045000751D008B828C8302067F9001F41201AB24
:100460007494C0E07400C0E07480C0E01206B1155E
:100470008115811581902580E4F5F01201E6900048
:10048000A475F0801203659000B275F080120365C8
:100490009000BB75F0801203659000C575F0801266
:1004A00003659000CF75F0801203659000D975F058
:1004B000801203659000E275F0801203659000ECF5
:1004C00075F08012036574F6C0E07400C0E07480BB
:1004D000C0E01206B1158115811581E4F510F51102
:1004E000F512F513FAFBC002C003120305E433D082
:1004F00003D00260F190004E75F040C002C00312BC
:1005000002D07412C0E07400C0E07440C0E0741007
:10051000C0E07400C0E07440C0E0740EC0E074013C
:10052000C0E07480C0E0744EC0E07400C0E074406D
:10053000C0E0120651E58124F4F581C012C013C059
:1005400010C0117413C0E07401C0E07480C0E012E8
:1005500006B1E58124F9F581D003D0020ABA000181
:100560000BC002C003C002C003741CC0E07401C011
:10057000E07480C0E0743AC0E07400C0E07440C031
:10058000E012073AE58124F8F58190003A75F040D1
:10059000120257D003D0020204E620F71430F614FA
:1005A0008883A88220F507E6A88375830022E2806D
:1005B000F7E49322E022FB7A20E4FCFDFEFFE582D3
:1005C0002582F582E58333F583E5F033F5F0EB33EF
:1005D000FB4017DAE98042E5822582F582E5833324
:1005E000F583E5F033F5F0EB33FBEC33FCED33FD55
:1005F000EE33FEEF33FFEC951CED951DEE951EEFEF
:10060000951F4013EC951CFCED951DFDEE951EFE0F
:10061000EF951FFF438201DABEEB22AA08AB09ACBB
:100620000A8A828B838CF012059AFA0508E4B508D1
:100630000205098A822285820885830985F00A8558
:100640000B33850C34850D35850E3690061B02095B
:1006500090C00F85810FE50F24F8F536E50F24FBD8
:10066000F8860808860908860AE50F24F8F8863314
:1006700008863408863590061B120990D00F22E5B3
:1006800082851CF0A4C582C0F0851DF0A4D0F025A1
:10069000F0C583851CF0A42583F5832202135885B9
:1006A000823185833285F033851B3490069C020DA0
:1006B000C1C00F85810FE50F24FBF534E50F24FB46
:1006C000F8863108863208863390069C120DC1D018
:1006D0000F2220F71030F6118883A88220F507F644
:1006E000A88375830022F280F7F022AA82AB14ACB3
:1006F00015AD168B828C838DF0EA1206D20514E4B8
:10070000B5140205152285821485831585F016859A
:100710001731851832851933851A349006EB120D7E
:10072000C1AA82AB83AC14AD15AE168C828D838EBC
:10073000F0E41206D28A828B8322C00F85810FE5F6
:100740000F24F8F534E50F24FBF886140886150805
:100750008616E50F24F8F88631088632088633902D
:1007600006EB120DC1AA82AB83AC14AD15AE168C8C
:10077000828D838EF0E41206D28A828B83D00F2280
:100780008523828524831213DB858232E532600A59
:10079000052CE4B52C06052D8002D2038532822279
:1007A0007A007B003003057875760022C002C00312
:1007B000120780AC82D003D002BC0002802DBC089E
:1007C000028014BC09028023BC0A02801EBC0D02F8
:1007D0008019BC20218014EA4B60D11ABAFF011B9A
:1007E000152C74FFB52C02152D80C1EA4B60BDEAB3
:1007F0002475F8760022EC7009EA2475F87600D2A8
:100800000322ECB53107EA2475F8760022C3EA9496
:100810000FEB940050968A058B060ABA00010BED87
:100820002475F8A6040207ACAA827B7FC3EA648021
:1008300094B0401174B98AF063F08095F04006EAF4
:1008400024D0FB8030C3EA648094C1401174C68A0E
:10085000F063F08095F0400674C92AFB8017C3EA64
:10086000648094E1400F74E68AF063F08095F04074
:100870000474A92AFBC3EB952E50038B8222758248
:100880007F22AA82752800752900752A00752B0021
:100890008A00E6FA60148A82C000120828AB82D06F
:1008A00000C3EB952E40030880E886038B82C000CE
:1008B000120828AA82D000C3E52E9A4050852E1C2B
:1008C000751D00751E00751F00852882852983858A
:1008D0002AF0E52BC002C00012136DAB82AC83ADD1
:1008E000F0FED000D0028B288C298D2A8E2BE4FBC1
:1008F000FCFDEA2528FAEB3529FBEC352AFCED3521
:100900002BFD8A288B298C2A8D2B08809D85288297
:10091000852983852AF0E52B22AA8275280075296E
:1009200000752A00752B008A00E6FB60228B82C0CE
:1009300003C000120828AC82D000D003C3EC952E6F
:10094000400DBB2D028008BB2B0280030880DA8893
:10095000028603BB2D03D38001C39206BB2D028008
:1009600003BB2B010A8A82120882300613C3E49566
:1009700028FAE49529FBE4952AFCE4952BFD8008F0
:10098000AA28AB29AC2AAD2B8A828B838CF0ED226E
:10099000858223858324E4F52CF52DF530C203AA46
:1009A00033AB34AC358A828B838CF012059AFD749C
:1009B000012AF533E43BF5348C35EDFA7003020D72
:1009C0002FBA25028003020CC8D202C200752E0085
:1009D000752F00C204C205AB33AC34AD358B828CAD
:1009E000838DF012059AFAA3AB82AC838B338C34DF
:1009F0008D358B828C838DF012059AF5318A06BE77
:100A0000300040168A06EE24C6400FE52F75F00A26
:100A1000A4FEEA24D02EF52F80C38A06BE610040D2
:100A20000A8A06EE248540035302DFBA250280AD10
:100A3000BA2A028045BA42028036BA43028040BADE
:100A40004403020B43BA4903020B43BA4C0280250C
:100A5000BA4E03020B56BA4F03020B48BA53028038
:100A600020BA5503020B41BA5803020B4F020B7E0A
:100A7000D2000209DDD2010209DDD2040209DDD271
:100A800005200417E53624FDF88836860308860419
:100A900008860518188B258C268D27E52F700B30BE
:100AA00005047B0180027BFF8B2F752E00C3E52E92
:100AB000952F5005120780AA82300307E52E700398
:100AC000020B7EEA601ABA2002800DBA0902800881
:100AD000BA0D028003BA0A03300505E52FB52E1FB3
:100AE000E52E60C92004120530AB25AC26AD278B5E
:100AF000828C838DF0E41206D2752E00020B7EBA32
:100B0000081CE52E60A7200411AB25AC26AD271BE1
:100B1000BBFF011C8B258C268D27152E808F200472
:100B20001BAB25AC26AD278B828C838DF0EA120699
:100B3000D20BBB00010C8B258C268D27052E020ABB
:100B4000ADC202752E0A8036C202752E08802FC2F1
:100B500002752E108028E53624FDF88836860308B5
:100B6000860408860518188B258C268D278B828C89
:100B7000838DF0E52C1206D2A3E52D1206D2E52EC8
:100B80007003020CC81207A07875E67003020CC847
:100B9000300403020CC8E53624FDF88836860308C5
:100BA000860408860518188B258C268D270530208D
:100BB0000203020C4130013585253785263885270B
:100BC00039758275120919AE82AF83ABF0FC853797
:100BD000828538838539F0EE1206D2A3EF1206D251
:100BE000A3EB1206D2A3EC1206D2020CC8300026E8
:100BF000852537852638852739758275120919AEFE
:100C000082AF83ABF0FC8537828538838539F0EE7F
:100C10001206D2020CC885253785263885273975F6
:100C20008275120919AE82AF83ABF0FC85378285DD
:100C300038838539F0EE1206D2A3EF1206D2020CE9
:100C4000C830013485253785263885273975827562
:100C5000120882AE82AF83ABF0FC85378285388381
:100C60008539F0EE1206D2A3EF1206D2A3EB1206DC
:100C7000D2A3EC1206D28050300025852537852678
:100C800038852739758275120882AE82AF83ABF042
:100C9000FC8537828538838539F0EE1206D28028AC
:100CA000852537852638852739758275120882AEE5
:100CB00082AF83ABF0FC8537828538838539F0EECF
:100CC0001206D2A3EF1206D220030302099FAB3310
:100CD000AC34AD358B828C838DF012059AFEA3ABBC
:100CE00082AC838B338C348D35EEFA700302099F0E
:100CF000BA25E18B828C838DF012059AFABA6E02C6
:100D00008003BA4ECFE53624FDF888368602088681
:100D10000608860718188A258E268F278A828E83D2
:100D20008FF0E52C1206D2A3E52D1206D280A5AADB
:100D3000307B008A828B8322AA827449C0E0740DC2
:100D4000C0E0C023C0248A8222052AE4B52A020515
:100D50002B22AA8274302AFA24C6500A74072AFA6F
:100D60003007034302208A82020D38E582FAC45418
:100D70000FF582C002120D52D002740F5AF5820292
:100D80000D52AA25AB26AC27AD28AE29753020EE32
:100D90002EFEED235401FF4206EA2AFAEB33FBEC68
:100DA00033FCED33FDC3EE952C4008EEC3952CFECD
:100DB000430201D530D98A258B268C278D288E2990
:100DC00022858223858324E4F52AF52BAA31AB32D0
:100DD000AC338A828B838CF012059AFD74012AF55C
:100DE00031E43BF5328C33EDFA7003021351BA252E
:100DF000028003021349C20BC20CC20DC20EC20F05
:100E0000C210C211C212C208C209C20A752C0075F2
:100E10002D00752EFFAB31AC32AD338B828C838DC0
:100E2000F012059AFAA3AB82AC838B318C328D33EE
:100E3000BA25078A82120D3880928A06BE30004099
:100E40002E8A06EE24C6402774FFB52E13E52D75B5
:100E5000F00AA4FEEA24D02EF52D70BFD20C80BB80
:100E6000E52E75F00AA4FEEA24D02EF52E80ACBA49
:100E70002E0A74FFB52EA4752E00809F8A06BE61CF
:100E800000400E8A06EE248540075302DFD2078019
:100E900002C207BA20028075BA2303020F1CBA2AC5
:100EA00003020F21BA2B02805FBA2D028055BA428D
:100EB00002805FBA4303020F66BA44030210A1BA6C
:100EC00045030210BBBA46030210B7BA470302102B
:100ED000BFBA49030210A1BA4C02803BBA4E0302CA
:100EE00010C3BA4F030210A8BA500302103ABA5303
:100EF00003020F8ABA55030210ADBA58030210B2AA
:100F00000210EDD20B020E1BD20D020E1BD20E02EE
:100F10000E1BD210020E1BD211020E1BD212020E99
:100F20001B74FFB52E2030100BE53414F88834867E
:100F30002D020E1BE53424FEF88834860608860749
:100F4000188E2D020E1B30100BE53414F8883486F1
:100F50002E020E1BE53424FEF88834860608860728
:100F6000188E2E020E1B30100AE53414F8883486D1
:100F700002800FE53424FEF88834860308860418BE
:100F80008B028A82120D380210F2E53424FDF888B3
:100F900034860308860408860518188B258C268D50
:100FA000278B828C838DF01213DDAB82AC838B2F69
:100FB00074FFB52E03852F2E200B1DC3E52F952D15
:100FC0005016E52DC3952FF52DAB2D152DEB600893
:100FD000758220120D3880F185258285268385272C
:100FE000F012059AFBFA6029AB2E152EC3E464803B
:100FF0008BF063F08095F050188A82120D38AB2583
:10100000AC26AD270BBB00010C8B258C268D2780D1
:10101000C7200B030210F2C3E52F952D40030210E9
:10102000F2E52DC3952FF52DAB2D152DEB70030299
:1010300010F2758220120D3880EEE53424FDF88818
:1010400034860308860408860518188B258C268D9F
:1010500027E527FB30E7047A438013EB54606004F4
:101060007A50800AEB30E6047A4980027A588A8204
:10107000C002120D3875823A120D38758230120D89
:1010800038758278120D38D002BA4902800BBA50F6
:10109000028006852682120D6B852582120D6B80DB
:1010A00051D20F752C0A804A752C088045752C0A80
:1010B0008040752C10803BD2088037D2098033D213
:1010C0000A802FE53424FDF8883486030886040856
:1010D000860518188B258C268D278B828C838DF0A6
:1010E000E52A1206D2A3E52B1206D280058A8212C7
:1010F0000D38200806200903300A5AE53424FCF88C
:101100008834860308860408860508860618181899
:101110008B258C268D278E28752521752601752710
:101120008085253585263685273774012535FEE4EB
:101130003536FFAB378E258F268B27853582853652
:10114000838537F012059AFBFA7003020DCC8A8270
:10115000120D3880CCE52C7003020DCC7B7430105E
:101160002BE53414F88834E6FC3395E0FDFEFF8C63
:10117000258D268E278F28200F5EAC257D007E00D2
:101180007F008C258D268E278F28804C30111FE5FF
:101190003424FCF888348604088605088606088608
:1011A000071818188C258D268E278F28802AE5345D
:1011B00024FEF88834860408860518ED3395E0FE91
:1011C000FF8C258D268E278F28200F0CAC25AD2671
:1011D0007E007F008E278F28301243E52545264567
:1011E00027452860397408B52C0C758230C003126D
:1011F0000D38D00380287410B52C23758230C003BD
:10120000120D38D00330070C758278C003120D38E8
:10121000D003800A758258C003120D38D003300FF6
:1012200025AC25AD26AE27E528FF30E717C3E49CA3
:10123000FCE49DFDE49EFEE49FFF8C258D268E2719
:101240008F288002C20F752F00D2138B00752900E2
:10125000C000120D82D00020130DE529C4FCE6FD6C
:101260004CF61888038002A629052FB213E5254500
:10127000264527452870D68803E52D7003752D0176
:10128000200C1A200B17E52F04FCC3952D500E756A
:101290008220C003120D38D003152D80E9300F0EC7
:1012A00075822DC003120D38D003152D8024E52F33
:1012B0006020300D0E75822BC003120D38D003153F
:1012C0002D800F300E0C758220C003120D38D00314
:1012D000152D200B1EAC2D152DC3E52F9C5027304E
:1012E0000C047C3080027C208C82C003120D38D02C
:1012F0000380E2C3E52F952D5009E52DC3952FF509
:101300002D8003752D008B00AB2F152FEB6022B2C3
:101310001320130A08E6C4540FFB8B2980078603A9
:10132000740F5BF529852982C000120D52D0008010
:10133000D7200B03020DCCAB2D152DEB7003020D46
:10134000CC758220120D3880EE8A82120D38020D83
:10135000CC852A82852B8322AA82BA0A0810990298
:1013600080FB75990D10990280FB8A9922AAF0FBE7
:10137000E582851CF0A4FCADF0E583851CF0A42D6E
:10138000FDE435F0FEE582851DF0A42DFDE5F03E7F
:10139000FEE433FFEA851CF0A42EFEE5F03FFFE5F6
:1013A00083851DF0A42EFEE5F03FFFE582851EF04B
:1013B000A42EFEE5F03FFFEB851CF0A42FFFEA858D
:1013C0001DF0A42FFFE583851EF0A42FFFE5828585
:1013D0001FF0A42F8EF08D838C8222E473AA82AB3F
:1013E00083ACF07D007E008A828B838CF012059A9C
:1013F000FFA3AA82AB83EF60070DBD00EA0E80E772
:101400008D828E832200000000000000000000009A
:00000001FF
